{
  "transactions": [
    {
      "hash": null,
      "transactionType": "CALL",
      "contractName": null,
      "contractAddress": "0xa111c5ca16752b09ff16b3b8b24ba55a8486ab23",
      "function": "setPremiumPrice(bytes32,bytes32,uint256)",
      "arguments": [
        "0x8edf6f47e89d05c0e21320161fda1fd1fabd0081a66c959691ea17102e39fb27",
        "0x8f77c8c6fd421d301c5f91568d08c991f5a87c5f04cc3f0a4176f9e9b14c3854",
        "1"
      ],
      "transaction": {
        "from": "0xc77ad4de7d179fffba417ca24c055d86af69f4bb",
        "to": "0xa111c5ca16752b09ff16b3b8b24ba55a8486ab23",
        "gas": "0x5a676",
        "value": "0x0",
        "input": "0x74b13cf48edf6f47e89d05c0e21320161fda1fd1fabd0081a66c959691ea17102e39fb278f77c8c6fd421d301c5f91568d08c991f5a87c5f04cc3f0a4176f9e9b14c38540000000000000000000000000000000000000000000000000000000000000001",
        "nonce": "0x50",
        "chainId": "0xa5bf",
        "feeToken": null,
        "calls": [],
        "keyType": null,
        "keyData": null
      },
      "additionalContracts": [],
      "isFixedGasLimit": false
    },
    {
      "hash": null,
      "transactionType": "CALL",
      "contractName": null,
      "contractAddress": "0x5efe75a72eae3178a7a4f310e841b1d3ff980d3d",
      "function": "setListing(bytes32,string,uint256,uint256,bool)",
      "arguments": [
        "0x8edf6f47e89d05c0e21320161fda1fd1fabd0081a66c959691ea17102e39fb27",
        "king",
        "100000000",
        "31536000",
        "true"
      ],
      "transaction": {
        "from": "0xc77ad4de7d179fffba417ca24c055d86af69f4bb",
        "to": "0x5efe75a72eae3178a7a4f310e841b1d3ff980d3d",
        "gas": "0xfc01f",
        "value": "0x0",
        "input": "0x2ea4dda98edf6f47e89d05c0e21320161fda1fd1fabd0081a66c959691ea17102e39fb2700000000000000000000000000000000000000000000000000000000000000a00000000000000000000000000000000000000000000000000000000005f5e1000000000000000000000000000000000000000000000000000000000001e13380000000000000000000000000000000000000000000000000000000000000000100000000000000000000000000000000000000000000000000000000000000046b696e6700000000000000000000000000000000000000000000000000000000",
        "nonce": "0x51",
        "chainId": "0xa5bf",
        "feeToken": null,
        "calls": [],
        "keyType": null,
        "keyData": null
      },
      "additionalContracts": [],
      "isFixedGasLimit": false
    },
    {
      "hash": null,
      "transactionType": "CALL",
      "contractName": null,
      "contractAddress": "0xa111c5ca16752b09ff16b3b8b24ba55a8486ab23",
      "function": "setPremiumPrice(bytes32,bytes32,uint256)",
      "arguments": [
        "0x8edf6f47e89d05c0e21320161fda1fd1fabd0081a66c959691ea17102e39fb27",
        "0xf6a2574f8130a5385a107da69d90fd5f193de1a157d8c2a8da98cb1ea42522c3",
        "1"
      ],
      "transaction": {
        "from": "0xc77ad4de7d179fffba417ca24c055d86af69f4bb",
        "to": "0xa111c5ca16752b09ff16b3b8b24ba55a8486ab23",
        "gas": "0x5a676",
        "value": "0x0",
        "input": "0x74b13cf48edf6f47e89d05c0e21320161fda1fd1fabd0081a66c959691ea17102e39fb27f6a2574f8130a5385a107da69d90fd5f193de1a157d8c2a8da98cb1ea42522c30000000000000000000000000000000000000000000000000000000000000001",
        "nonce": "0x52",
        "chainId": "0xa5bf",
        "feeToken": null,
        "calls": [],
        "keyType": null,
        "keyData": null
      },
      "additionalContracts": [],
      "isFixedGasLimit": false
    },
    {
      "hash": null,
      "transactionType": "CALL",
      "contractName": null,
      "contractAddress": "0x5efe75a72eae3178a7a4f310e841b1d3ff980d3d",
      "function": "setListing(bytes32,string,uint256,uint256,bool)",
      "arguments": [
        "0x8edf6f47e89d05c0e21320161fda1fd1fabd0081a66c959691ea17102e39fb27",
        "queen",
        "100000000",
        "31536000",
        "true"
      ],
      "transaction": {
        "from": "0xc77ad4de7d179fffba417ca24c055d86af69f4bb",
        "to": "0x5efe75a72eae3178a7a4f310e841b1d3ff980d3d",
        "gas": "0xfc1df",
        "value": "0x0",
        "input": "0x2ea4dda98edf6f47e89d05c0e21320161fda1fd1fabd0081a66c959691ea17102e39fb2700000000000000000000000000000000000000000000000000000000000000a00000000000000000000000000000000000000000000000000000000005f5e1000000000000000000000000000000000000000000000000000000000001e1338000000000000000000000000000000000000000000000000000000000000000010000000000000000000000000000000000000000000000000000000000000005717565656e000000000000000000000000000000000000000000000000000000",
        "nonce": "0x53",
        "chainId": "0xa5bf",
        "feeToken": null,
        "calls": [],
        "keyType": null,
        "keyData": null
      },
      "additionalContracts": [],
      "isFixedGasLimit": false
    },
    {
      "hash": null,
      "transactionType": "CALL",
      "contractName": null,
      "contractAddress": "0xa111c5ca16752b09ff16b3b8b24ba55a8486ab23",
      "function": "setPremiumPrice(bytes32,bytes32,uint256)",
      "arguments": [
        "0x8edf6f47e89d05c0e21320161fda1fd1fabd0081a66c959691ea17102e39fb27",
        "0x536861bd889e384b0b0b95235b722d4faa778a260da1033ca00f620dbbb1709a",
        "1"
      ],
      "transaction": {
        "from": "0xc77ad4de7d179fffba417ca24c055d86af69f4bb",
        "to": "0xa111c5ca16752b09ff16b3b8b24ba55a8486ab23",
        "gas": "0x5a676",
        "value": "0x0",
        "input": "0x74b13cf48edf6f47e89d05c0e21320161fda1fd1fabd0081a66c959691ea17102e39fb27536861bd889e384b0b0b95235b722d4faa778a260da1033ca00f620dbbb1709a0000000000000000000000000000000000000000000000000000000000000001",
        "nonce": "0x54",
        "chainId": "0xa5bf",
        "feeToken": null,
        "calls": [],
        "keyType": null,
        "keyData": null
      },
      "additionalContracts": [],
      "isFixedGasLimit": false
    },
    {
      "hash": null,
      "transactionType": "CALL",
      "contractName": null,
      "contractAddress": "0x5efe75a72eae3178a7a4f310e841b1d3ff980d3d",
      "function": "setListing(bytes32,string,uint256,uint256,bool)",
      "arguments": [
        "0x8edf6f47e89d05c0e21320161fda1fd1fabd0081a66c959691ea17102e39fb27",
        "god",
        "100000000",
        "31536000",
        "true"
      ],
      "transaction": {
        "from": "0xc77ad4de7d179fffba417ca24c055d86af69f4bb",
        "to": "0x5efe75a72eae3178a7a4f310e841b1d3ff980d3d",
        "gas": "0xfbe5e",
        "value": "0x0",
        "input": "0x2ea4dda98edf6f47e89d05c0e21320161fda1fd1fabd0081a66c959691ea17102e39fb2700000000000000000000000000000000000000000000000000000000000000a00000000000000000000000000000000000000000000000000000000005f5e1000000000000000000000000000000000000000000000000000000000001e1338000000000000000000000000000000000000000000000000000000000000000010000000000000000000000000000000000000000000000000000000000000003676f640000000000000000000000000000000000000000000000000000000000",
        "nonce": "0x55",
        "chainId": "0xa5bf",
        "feeToken": null,
        "calls": [],
        "keyType": null,
        "keyData": null
      },
      "additionalContracts": [],
      "isFixedGasLimit": false
    },
    {
      "hash": null,
      "transactionType": "CALL",
      "contractName": null,
      "contractAddress": "0xa111c5ca16752b09ff16b3b8b24ba55a8486ab23",
      "function": "setPremiumPrice(bytes32,bytes32,uint256)",
      "arguments": [
        "0x8edf6f47e89d05c0e21320161fda1fd1fabd0081a66c959691ea17102e39fb27",
        "0xcd3a10258f4c15d033b6373f725da8d1215be02f83656e11f550b3374fbe2bb5",
        "1"
      ],
      "transaction": {
        "from": "0xc77ad4de7d179fffba417ca24c055d86af69f4bb",
        "to": "0xa111c5ca16752b09ff16b3b8b24ba55a8486ab23",
        "gas": "0x5a676",
        "value": "0x0",
        "input": "0x74b13cf48edf6f47e89d05c0e21320161fda1fd1fabd0081a66c959691ea17102e39fb27cd3a10258f4c15d033b6373f725da8d1215be02f83656e11f550b3374fbe2bb50000000000000000000000000000000000000000000000000000000000000001",
        "nonce": "0x56",
        "chainId": "0xa5bf",
        "feeToken": null,
        "calls": [],
        "keyType": null,
        "keyData": null
      },
      "additionalContracts": [],
      "isFixedGasLimit": false
    },
    {
      "hash": null,
      "transactionType": "CALL",
      "contractName": null,
      "contractAddress": "0x5efe75a72eae3178a7a4f310e841b1d3ff980d3d",
      "function": "setListing(bytes32,string,uint256,uint256,bool)",
      "arguments": [
        "0x8edf6f47e89d05c0e21320161fda1fd1fabd0081a66c959691ea17102e39fb27",
        "devil",
        "100000000",
        "31536000",
        "true"
      ],
      "transaction": {
        "from": "0xc77ad4de7d179fffba417ca24c055d86af69f4bb",
        "to": "0x5efe75a72eae3178a7a4f310e841b1d3ff980d3d",
        "gas": "0xfc1df",
        "value": "0x0",
        "input": "0x2ea4dda98edf6f47e89d05c0e21320161fda1fd1fabd0081a66c959691ea17102e39fb2700000000000000000000000000000000000000000000000000000000000000a00000000000000000000000000000000000000000000000000000000005f5e1000000000000000000000000000000000000000000000000000000000001e1338000000000000000000000000000000000000000000000000000000000000000010000000000000000000000000000000000000000000000000000000000000005646576696c000000000000000000000000000000000000000000000000000000",
        "nonce": "0x57",
        "chainId": "0xa5bf",
        "feeToken": null,
        "calls": [],
        "keyType": null,
        "keyData": null
      },
      "additionalContracts": [],
      "isFixedGasLimit": false
    },
    {
      "hash": null,
      "transactionType": "CALL",
      "contractName": null,
      "contractAddress": "0xa111c5ca16752b09ff16b3b8b24ba55a8486ab23",
      "function": "setPremiumPrice(bytes32,bytes32,uint256)",
      "arguments": [
        "0x8edf6f47e89d05c0e21320161fda1fd1fabd0081a66c959691ea17102e39fb27",
        "0x0c3fd321f4034b150c9566252db6f2e0394944320559ea8b2cf14a3e1e873024",
        "1"
      ],
      "transaction": {
        "from": "0xc77ad4de7d179fffba417ca24c055d86af69f4bb",
        "to": "0xa111c5ca16752b09ff16b3b8b24ba55a8486ab23",
        "gas": "0x5a676",
        "value": "0x0",
        "input": "0x74b13cf48edf6f47e89d05c0e21320161fda1fd1fabd0081a66c959691ea17102e39fb270c3fd321f4034b150c9566252db6f2e0394944320559ea8b2cf14a3e1e8730240000000000000000000000000000000000000000000000000000000000000001",
        "nonce": "0x58",
        "chainId": "0xa5bf",
        "feeToken": null,
        "calls": [],
        "keyType": null,
        "keyData": null
      },
      "additionalContracts": [],
      "isFixedGasLimit": false
    },
    {
      "hash": null,
      "transactionType": "CALL",
      "contractName": null,
      "contractAddress": "0x5efe75a72eae3178a7a4f310e841b1d3ff980d3d",
      "function": "setListing(bytes32,string,uint256,uint256,bool)",
      "arguments": [
        "0x8edf6f47e89d05c0e21320161fda1fd1fabd0081a66c959691ea17102e39fb27",
        "pirate",
        "100000000",
        "31536000",
        "true"
      ],
      "transaction": {
        "from": "0xc77ad4de7d179fffba417ca24c055d86af69f4bb",
        "to": "0x5efe75a72eae3178a7a4f310e841b1d3ff980d3d",
        "gas": "0xfc3a0",
        "value": "0x0",
        "input": "0x2ea4dda98edf6f47e89d05c0e21320161fda1fd1fabd0081a66c959691ea17102e39fb2700000000000000000000000000000000000000000000000000000000000000a00000000000000000000000000000000000000000000000000000000005f5e1000000000000000000000000000000000000000000000000000000000001e13380000000000000000000000000000000000000000000000000000000000000000100000000000000000000000000000000000000000000000000000000000000067069726174650000000000000000000000000000000000000000000000000000",
        "nonce": "0x59",
        "chainId": "0xa5bf",
        "feeToken": null,
        "calls": [],
        "keyType": null,
        "keyData": null
      },
      "additionalContracts": [],
      "isFixedGasLimit": false
    },
    {
      "hash": null,
      "transactionType": "CALL",
      "contractName": null,
      "contractAddress": "0xa111c5ca16752b09ff16b3b8b24ba55a8486ab23",
      "function": "setPremiumPrice(bytes32,bytes32,uint256)",
      "arguments": [
        "0x8edf6f47e89d05c0e21320161fda1fd1fabd0081a66c959691ea17102e39fb27",
        "0x6d9ef456bf9817b37be2dccf1f8c6fefd89f6a4a7a8e0f226001466eac0023be",
        "1"
      ],
      "transaction": {
        "from": "0xc77ad4de7d179fffba417ca24c055d86af69f4bb",
        "to": "0xa111c5ca16752b09ff16b3b8b24ba55a8486ab23",
        "gas": "0x5a667",
        "value": "0x0",
        "input": "0x74b13cf48edf6f47e89d05c0e21320161fda1fd1fabd0081a66c959691ea17102e39fb276d9ef456bf9817b37be2dccf1f8c6fefd89f6a4a7a8e0f226001466eac0023be0000000000000000000000000000000000000000000000000000000000000001",
        "nonce": "0x5a",
        "chainId": "0xa5bf",
        "feeToken": null,
        "calls": [],
        "keyType": null,
        "keyData": null
      },
      "additionalContracts": [],
      "isFixedGasLimit": false
    },
    {
      "hash": null,
      "transactionType": "CALL",
      "contractName": null,
      "contractAddress": "0x5efe75a72eae3178a7a4f310e841b1d3ff980d3d",
      "function": "setListing(bytes32,string,uint256,uint256,bool)",
      "arguments": [
        "0x8edf6f47e89d05c0e21320161fda1fd1fabd0081a66c959691ea17102e39fb27",
        "heaven",
        "100000000",
        "31536000",
        "true"
      ],
      "transaction": {
        "from": "0xc77ad4de7d179fffba417ca24c055d86af69f4bb",
        "to": "0x5efe75a72eae3178a7a4f310e841b1d3ff980d3d",
        "gas": "0xfc3a0",
        "value": "0x0",
        "input": "0x2ea4dda98edf6f47e89d05c0e21320161fda1fd1fabd0081a66c959691ea17102e39fb2700000000000000000000000000000000000000000000000000000000000000a00000000000000000000000000000000000000000000000000000000005f5e1000000000000000000000000000000000000000000000000000000000001e133800000000000000000000000000000000000000000000000000000000000000001000000000000000000000000000000000000000000000000000000000000000668656176656e0000000000000000000000000000000000000000000000000000",
        "nonce": "0x5b",
        "chainId": "0xa5bf",
        "feeToken": null,
        "calls": [],
        "keyType": null,
        "keyData": null
      },
      "additionalContracts": [],
      "isFixedGasLimit": false
    },
    {
      "hash": null,
      "transactionType": "CALL",
      "contractName": null,
      "contractAddress": "0xa111c5ca16752b09ff16b3b8b24ba55a8486ab23",
      "function": "setPremiumPrice(bytes32,bytes32,uint256)",
      "arguments": [
        "0x8edf6f47e89d05c0e21320161fda1fd1fabd0081a66c959691ea17102e39fb27",
        "0xd952fe0740d9d14011fc8ead3ab7de3c739d3aa93ce9254c10b0134d80d26a30",
        "1"
      ],
      "transaction": {
        "from": "0xc77ad4de7d179fffba417ca24c055d86af69f4bb",
        "to": "0xa111c5ca16752b09ff16b3b8b24ba55a8486ab23",
        "gas": "0x5a676",
        "value": "0x0",
        "input": "0x74b13cf48edf6f47e89d05c0e21320161fda1fd1fabd0081a66c959691ea17102e39fb27d952fe0740d9d14011fc8ead3ab7de3c739d3aa93ce9254c10b0134d80d26a300000000000000000000000000000000000000000000000000000000000000001",
        "nonce": "0x5c",
        "chainId": "0xa5bf",
        "feeToken": null,
        "calls": [],
        "keyType": null,
        "keyData": null
      },
      "additionalContracts": [],
      "isFixedGasLimit": false
    },
    {
      "hash": null,
      "transactionType": "CALL",
      "contractName": null,
      "contractAddress": "0x5efe75a72eae3178a7a4f310e841b1d3ff980d3d",
      "function": "setListing(bytes32,string,uint256,uint256,bool)",
      "arguments": [
        "0x8edf6f47e89d05c0e21320161fda1fd1fabd0081a66c959691ea17102e39fb27",
        "love",
        "100000000",
        "31536000",
        "true"
      ],
      "transaction": {
        "from": "0xc77ad4de7d179fffba417ca24c055d86af69f4bb",
        "to": "0x5efe75a72eae3178a7a4f310e841b1d3ff980d3d",
        "gas": "0xfc01f",
        "value": "0x0",
        "input": "0x2ea4dda98edf6f47e89d05c0e21320161fda1fd1fabd0081a66c959691ea17102e39fb2700000000000000000000000000000000000000000000000000000000000000a00000000000000000000000000000000000000000000000000000000005f5e1000000000000000000000000000000000000000000000000000000000001e13380000000000000000000000000000000000000000000000000000000000000000100000000000000000000000000000000000000000000000000000000000000046c6f766500000000000000000000000000000000000000000000000000000000",
        "nonce": "0x5d",
        "chainId": "0xa5bf",
        "feeToken": null,
        "calls": [],
        "keyType": null,
        "keyData": null
      },
      "additionalContracts": [],
      "isFixedGasLimit": false
    },
    {
      "hash": null,
      "transactionType": "CALL",
      "contractName": null,
      "contractAddress": "0xa111c5ca16752b09ff16b3b8b24ba55a8486ab23",
      "function": "setPremiumPrice(bytes32,bytes32,uint256)",
      "arguments": [
        "0x8edf6f47e89d05c0e21320161fda1fd1fabd0081a66c959691ea17102e39fb27",
        "0x6bd5921979df8775e28d201d8f84d011f187d53c9ef8172ca1c37c59d422bff2",
        "1"
      ],
      "transaction": {
        "from": "0xc77ad4de7d179fffba417ca24c055d86af69f4bb",
        "to": "0xa111c5ca16752b09ff16b3b8b24ba55a8486ab23",
        "gas": "0x5a676",
        "value": "0x0",
        "input": "0x74b13cf48edf6f47e89d05c0e21320161fda1fd1fabd0081a66c959691ea17102e39fb276bd5921979df8775e28d201d8f84d011f187d53c9ef8172ca1c37c59d422bff20000000000000000000000000000000000000000000000000000000000000001",
        "nonce": "0x5e",
        "chainId": "0xa5bf",
        "feeToken": null,
        "calls": [],
        "keyType": null,
        "keyData": null
      },
      "additionalContracts": [],
      "isFixedGasLimit": false
    },
    {
      "hash": null,
      "transactionType": "CALL",
      "contractName": null,
      "contractAddress": "0x5efe75a72eae3178a7a4f310e841b1d3ff980d3d",
      "function": "setListing(bytes32,string,uint256,uint256,bool)",
      "arguments": [
        "0x8edf6f47e89d05c0e21320161fda1fd1fabd0081a66c959691ea17102e39fb27",
        "moon",
        "100000000",
        "31536000",
        "true"
      ],
      "transaction": {
        "from": "0xc77ad4de7d179fffba417ca24c055d86af69f4bb",
        "to": "0x5efe75a72eae3178a7a4f310e841b1d3ff980d3d",
        "gas": "0xfc01f",
        "value": "0x0",
        "input": "0x2ea4dda98edf6f47e89d05c0e21320161fda1fd1fabd0081a66c959691ea17102e39fb2700000000000000000000000000000000000000000000000000000000000000a00000000000000000000000000000000000000000000000000000000005f5e1000000000000000000000000000000000000000000000000000000000001e13380000000000000000000000000000000000000000000000000000000000000000100000000000000000000000000000000000000000000000000000000000000046d6f6f6e00000000000000000000000000000000000000000000000000000000",
        "nonce": "0x5f",
        "chainId": "0xa5bf",
        "feeToken": null,
        "calls": [],
        "keyType": null,
        "keyData": null
      },
      "additionalContracts": [],
      "isFixedGasLimit": false
    },
    {
      "hash": null,
      "transactionType": "CALL",
      "contractName": null,
      "contractAddress": "0xa111c5ca16752b09ff16b3b8b24ba55a8486ab23",
      "function": "setPremiumPrice(bytes32,bytes32,uint256)",
      "arguments": [
        "0x8edf6f47e89d05c0e21320161fda1fd1fabd0081a66c959691ea17102e39fb27",
        "0x2632c52c2eb190dc088fe4ce54053b1ccbff2c3c5988f7480ef74b97394dbd9a",
        "1"
      ],
      "transaction": {
        "from": "0xc77ad4de7d179fffba417ca24c055d86af69f4bb",
        "to": "0xa111c5ca16752b09ff16b3b8b24ba55a8486ab23",
        "gas": "0x5a676",
        "value": "0x0",
        "input": "0x74b13cf48edf6f47e89d05c0e21320161fda1fd1fabd0081a66c959691ea17102e39fb272632c52c2eb190dc088fe4ce54053b1ccbff2c3c5988f7480ef74b97394dbd9a0000000000000000000000000000000000000000000000000000000000000001",
        "nonce": "0x60",
        "chainId": "0xa5bf",
        "feeToken": null,
        "calls": [],
        "keyType": null,
        "keyData": null
      },
      "additionalContracts": [],
      "isFixedGasLimit": false
    },
    {
      "hash": null,
      "transactionType": "CALL",
      "contractName": null,
      "contractAddress": "0x5efe75a72eae3178a7a4f310e841b1d3ff980d3d",
      "function": "setListing(bytes32,string,uint256,uint256,bool)",
      "arguments": [
        "0x8edf6f47e89d05c0e21320161fda1fd1fabd0081a66c959691ea17102e39fb27",
        "star",
        "100000000",
        "31536000",
        "true"
      ],
      "transaction": {
        "from": "0xc77ad4de7d179fffba417ca24c055d86af69f4bb",
        "to": "0x5efe75a72eae3178a7a4f310e841b1d3ff980d3d",
        "gas": "0xfc01f",
        "value": "0x0",
        "input": "0x2ea4dda98edf6f47e89d05c0e21320161fda1fd1fabd0081a66c959691ea17102e39fb2700000000000000000000000000000000000000000000000000000000000000a00000000000000000000000000000000000000000000000000000000005f5e1000000000000000000000000000000000000000000000000000000000001e13380000000000000000000000000000000000000000000000000000000000000000100000000000000000000000000000000000000000000000000000000000000047374617200000000000000000000000000000000000000000000000000000000",
        "nonce": "0x61",
        "chainId": "0xa5bf",
        "feeToken": null,
        "calls": [],
        "keyType": null,
        "keyData": null
      },
      "additionalContracts": [],
      "isFixedGasLimit": false
    },
    {
      "hash": null,
      "transactionType": "CALL",
      "contractName": null,
      "contractAddress": "0xa111c5ca16752b09ff16b3b8b24ba55a8486ab23",
      "function": "setPremiumPrice(bytes32,bytes32,uint256)",
      "arguments": [
        "0x8edf6f47e89d05c0e21320161fda1fd1fabd0081a66c959691ea17102e39fb27",
        "0xd860e3f5f752dd317289a914ceea5886a841192a7f2f9fcdd3a0f662c070e91a",
        "1"
      ],
      "transaction": {
        "from": "0xc77ad4de7d179fffba417ca24c055d86af69f4bb",
        "to": "0xa111c5ca16752b09ff16b3b8b24ba55a8486ab23",
        "gas": "0x5a676",
        "value": "0x0",
        "input": "0x74b13cf48edf6f47e89d05c0e21320161fda1fd1fabd0081a66c959691ea17102e39fb27d860e3f5f752dd317289a914ceea5886a841192a7f2f9fcdd3a0f662c070e91a0000000000000000000000000000000000000000000000000000000000000001",
        "nonce": "0x62",
        "chainId": "0xa5bf",
        "feeToken": null,
        "calls": [],
        "keyType": null,
        "keyData": null
      },
      "additionalContracts": [],
      "isFixedGasLimit": false
    },
    {
      "hash": null,
      "transactionType": "CALL",
      "contractName": null,
      "contractAddress": "0x5efe75a72eae3178a7a4f310e841b1d3ff980d3d",
      "function": "setListing(bytes32,string,uint256,uint256,bool)",
      "arguments": [
        "0x8edf6f47e89d05c0e21320161fda1fd1fabd0081a66c959691ea17102e39fb27",
        "angel",
        "100000000",
        "31536000",
        "true"
      ],
      "transaction": {
        "from": "0xc77ad4de7d179fffba417ca24c055d86af69f4bb",
        "to": "0x5efe75a72eae3178a7a4f310e841b1d3ff980d3d",
        "gas": "0xfc1df",
        "value": "0x0",
        "input": "0x2ea4dda98edf6f47e89d05c0e21320161fda1fd1fabd0081a66c959691ea17102e39fb2700000000000000000000000000000000000000000000000000000000000000a00000000000000000000000000000000000000000000000000000000005f5e1000000000000000000000000000000000000000000000000000000000001e1338000000000000000000000000000000000000000000000000000000000000000010000000000000000000000000000000000000000000000000000000000000005616e67656c000000000000000000000000000000000000000000000000000000",
        "nonce": "0x63",
        "chainId": "0xa5bf",
        "feeToken": null,
        "calls": [],
        "keyType": null,
        "keyData": null
      },
      "additionalContracts": [],
      "isFixedGasLimit": false
    },
    {
      "hash": null,
      "transactionType": "CALL",
      "contractName": null,
      "contractAddress": "0xa111c5ca16752b09ff16b3b8b24ba55a8486ab23",
      "function": "setPremiumPrice(bytes32,bytes32,uint256)",
      "arguments": [
        "0x8edf6f47e89d05c0e21320161fda1fd1fabd0081a66c959691ea17102e39fb27",
        "0xec08d0974e93cdef3f47cd5c5a287a626489bcf52960b0af6a2544794055c85b",
        "1"
      ],
      "transaction": {
        "from": "0xc77ad4de7d179fffba417ca24c055d86af69f4bb",
        "to": "0xa111c5ca16752b09ff16b3b8b24ba55a8486ab23",
        "gas": "0x5a676",
        "value": "0x0",
        "input": "0x74b13cf48edf6f47e89d05c0e21320161fda1fd1fabd0081a66c959691ea17102e39fb27ec08d0974e93cdef3f47cd5c5a287a626489bcf52960b0af6a2544794055c85b0000000000000000000000000000000000000000000000000000000000000001",
        "nonce": "0x64",
        "chainId": "0xa5bf",
        "feeToken": null,
        "calls": [],
        "keyType": null,
        "keyData": null
      },
      "additionalContracts": [],
      "isFixedGasLimit": false
    },
    {
      "hash": null,
      "transactionType": "CALL",
      "contractName": null,
      "contractAddress": "0x5efe75a72eae3178a7a4f310e841b1d3ff980d3d",
      "function": "setListing(bytes32,string,uint256,uint256,bool)",
      "arguments": [
        "0x8edf6f47e89d05c0e21320161fda1fd1fabd0081a66c959691ea17102e39fb27",
        "ace",
        "25000000",
        "31536000",
        "true"
      ],
      "transaction": {
        "from": "0xc77ad4de7d179fffba417ca24c055d86af69f4bb",
        "to": "0x5efe75a72eae3178a7a4f310e841b1d3ff980d3d",
        "gas": "0xfbe6f",
        "value": "0x0",
        "input": "0x2ea4dda98edf6f47e89d05c0e21320161fda1fd1fabd0081a66c959691ea17102e39fb2700000000000000000000000000000000000000000000000000000000000000a000000000000000000000000000000000000000000000000000000000017d78400000000000000000000000000000000000000000000000000000000001e13380000000000000000000000000000000000000000000000000000000000000000100000000000000000000000000000000000000000000000000000000000000036163650000000000000000000000000000000000000000000000000000000000",
        "nonce": "0x65",
        "chainId": "0xa5bf",
        "feeToken": null,
        "calls": [],
        "keyType": null,
        "keyData": null
      },
      "additionalContracts": [],
      "isFixedGasLimit": false
    },
    {
      "hash": null,
      "transactionType": "CALL",
      "contractName": null,
      "contractAddress": "0xa111c5ca16752b09ff16b3b8b24ba55a8486ab23",
      "function": "setPremiumPrice(bytes32,bytes32,uint256)",
      "arguments": [
        "0x8edf6f47e89d05c0e21320161fda1fd1fabd0081a66c959691ea17102e39fb27",
        "0x934224c6bd94d513bbffb24896491c7e64cce714cd6504d94caccb3208c60f65",
        "1"
      ],
      "transaction": {
        "from": "0xc77ad4de7d179fffba417ca24c055d86af69f4bb",
        "to": "0xa111c5ca16752b09ff16b3b8b24ba55a8486ab23",
        "gas": "0x5a676",
        "value": "0x0",
        "input": "0x74b13cf48edf6f47e89d05c0e21320161fda1fd1fabd0081a66c959691ea17102e39fb27934224c6bd94d513bbffb24896491c7e64cce714cd6504d94caccb3208c60f650000000000000000000000000000000000000000000000000000000000000001",
        "nonce": "0x66",
        "chainId": "0xa5bf",
        "feeToken": null,
        "calls": [],
        "keyType": null,
        "keyData": null
      },
      "additionalContracts": [],
      "isFixedGasLimit": false
    },
    {
      "hash": null,
      "transactionType": "CALL",
      "contractName": null,
      "contractAddress": "0x5efe75a72eae3178a7a4f310e841b1d3ff980d3d",
      "function": "setListing(bytes32,string,uint256,uint256,bool)",
      "arguments": [
        "0x8edf6f47e89d05c0e21320161fda1fd1fabd0081a66c959691ea17102e39fb27",
        "zen",
        "25000000",
        "31536000",
        "true"
      ],
      "transaction": {
        "from": "0xc77ad4de7d179fffba417ca24c055d86af69f4bb",
        "to": "0x5efe75a72eae3178a7a4f310e841b1d3ff980d3d",
        "gas": "0xfbe6f",
        "value": "0x0",
        "input": "0x2ea4dda98edf6f47e89d05c0e21320161fda1fd1fabd0081a66c959691ea17102e39fb2700000000000000000000000000000000000000000000000000000000000000a000000000000000000000000000000000000000000000000000000000017d78400000000000000000000000000000000000000000000000000000000001e13380000000000000000000000000000000000000000000000000000000000000000100000000000000000000000000000000000000000000000000000000000000037a656e0000000000000000000000000000000000000000000000000000000000",
        "nonce": "0x67",
        "chainId": "0xa5bf",
        "feeToken": null,
        "calls": [],
        "keyType": null,
        "keyData": null
      },
      "additionalContracts": [],
      "isFixedGasLimit": false
    },
    {
      "hash": null,
      "transactionType": "CALL",
      "contractName": null,
      "contractAddress": "0xa111c5ca16752b09ff16b3b8b24ba55a8486ab23",
      "function": "setPremiumPrice(bytes32,bytes32,uint256)",
      "arguments": [
        "0x8edf6f47e89d05c0e21320161fda1fd1fabd0081a66c959691ea17102e39fb27",
        "0xc90e7e9184dce6e0d7fff2e19e72ffa35430aca54bd634ada091bef2d2bb0635",
        "1"
      ],
      "transaction": {
        "from": "0xc77ad4de7d179fffba417ca24c055d86af69f4bb",
        "to": "0xa111c5ca16752b09ff16b3b8b24ba55a8486ab23",
        "gas": "0x5a676",
        "value": "0x0",
        "input": "0x74b13cf48edf6f47e89d05c0e21320161fda1fd1fabd0081a66c959691ea17102e39fb27c90e7e9184dce6e0d7fff2e19e72ffa35430aca54bd634ada091bef2d2bb06350000000000000000000000000000000000000000000000000000000000000001",
        "nonce": "0x68",
        "chainId": "0xa5bf",
        "feeToken": null,
        "calls": [],
        "keyType": null,
        "keyData": null
      },
      "additionalContracts": [],
      "isFixedGasLimit": false
    },
    {
      "hash": null,
      "transactionType": "CALL",
      "contractName": null,
      "contractAddress": "0x5efe75a72eae3178a7a4f310e841b1d3ff980d3d",
      "function": "setListing(bytes32,string,uint256,uint256,bool)",
      "arguments": [
        "0x8edf6f47e89d05c0e21320161fda1fd1fabd0081a66c959691ea17102e39fb27",
        "nova",
        "25000000",
        "31536000",
        "true"
      ],
      "transaction": {
        "from": "0xc77ad4de7d179fffba417ca24c055d86af69f4bb",
        "to": "0x5efe75a72eae3178a7a4f310e841b1d3ff980d3d",
        "gas": "0xfc02f",
        "value": "0x0",
        "input": "0x2ea4dda98edf6f47e89d05c0e21320161fda1fd1fabd0081a66c959691ea17102e39fb2700000000000000000000000000000000000000000000000000000000000000a000000000000000000000000000000000000000000000000000000000017d78400000000000000000000000000000000000000000000000000000000001e13380000000000000000000000000000000000000000000000000000000000000000100000000000000000000000000000000000000000000000000000000000000046e6f766100000000000000000000000000000000000000000000000000000000",
        "nonce": "0x69",
        "chainId": "0xa5bf",
        "feeToken": null,
        "calls": [],
        "keyType": null,
        "keyData": null
      },
      "additionalContracts": [],
      "isFixedGasLimit": false
    },
    {
      "hash": null,
      "transactionType": "CALL",
      "contractName": null,
      "contractAddress": "0xa111c5ca16752b09ff16b3b8b24ba55a8486ab23",
      "function": "setPremiumPrice(bytes32,bytes32,uint256)",
      "arguments": [
        "0x8edf6f47e89d05c0e21320161fda1fd1fabd0081a66c959691ea17102e39fb27",
        "0x0a24b3696fc1b44815c836b1f503c906711422771b26bccb4db6dd315f759b2e",
        "1"
      ],
      "transaction": {
        "from": "0xc77ad4de7d179fffba417ca24c055d86af69f4bb",
        "to": "0xa111c5ca16752b09ff16b3b8b24ba55a8486ab23",
        "gas": "0x5a676",
        "value": "0x0",
        "input": "0x74b13cf48edf6f47e89d05c0e21320161fda1fd1fabd0081a66c959691ea17102e39fb270a24b3696fc1b44815c836b1f503c906711422771b26bccb4db6dd315f759b2e0000000000000000000000000000000000000000000000000000000000000001",
        "nonce": "0x6a",
        "chainId": "0xa5bf",
        "feeToken": null,
        "calls": [],
        "keyType": null,
        "keyData": null
      },
      "additionalContracts": [],
      "isFixedGasLimit": false
    },
    {
      "hash": null,
      "transactionType": "CALL",
      "contractName": null,
      "contractAddress": "0x5efe75a72eae3178a7a4f310e841b1d3ff980d3d",
      "function": "setListing(bytes32,string,uint256,uint256,bool)",
      "arguments": [
        "0x8edf6f47e89d05c0e21320161fda1fd1fabd0081a66c959691ea17102e39fb27",
        "wolf",
        "25000000",
        "31536000",
        "true"
      ],
      "transaction": {
        "from": "0xc77ad4de7d179fffba417ca24c055d86af69f4bb",
        "to": "0x5efe75a72eae3178a7a4f310e841b1d3ff980d3d",
        "gas": "0xfc02f",
        "value": "0x0",
        "input": "0x2ea4dda98edf6f47e89d05c0e21320161fda1fd1fabd0081a66c959691ea17102e39fb2700000000000000000000000000000000000000000000000000000000000000a000000000000000000000000000000000000000000000000000000000017d78400000000000000000000000000000000000000000000000000000000001e1338000000000000000000000000000000000000000000000000000000000000000010000000000000000000000000000000000000000000000000000000000000004776f6c6600000000000000000000000000000000000000000000000000000000",
        "nonce": "0x6b",
        "chainId": "0xa5bf",
        "feeToken": null,
        "calls": [],
        "keyType": null,
        "keyData": null
      },
      "additionalContracts": [],
      "isFixedGasLimit": false
    },
    {
      "hash": null,
      "transactionType": "CALL",
      "contractName": null,
      "contractAddress": "0xa111c5ca16752b09ff16b3b8b24ba55a8486ab23",
      "function": "setPremiumPrice(bytes32,bytes32,uint256)",
      "arguments": [
        "0x8edf6f47e89d05c0e21320161fda1fd1fabd0081a66c959691ea17102e39fb27",
        "0x4c71ce6ba2ee0cfaa5acee977e8e67e2cd9b456dcdf1ab291519d32de27f4ece",
        "1"
      ],
      "transaction": {
        "from": "0xc77ad4de7d179fffba417ca24c055d86af69f4bb",
        "to": "0xa111c5ca16752b09ff16b3b8b24ba55a8486ab23",
        "gas": "0x5a676",
        "value": "0x0",
        "input": "0x74b13cf48edf6f47e89d05c0e21320161fda1fd1fabd0081a66c959691ea17102e39fb274c71ce6ba2ee0cfaa5acee977e8e67e2cd9b456dcdf1ab291519d32de27f4ece0000000000000000000000000000000000000000000000000000000000000001",
        "nonce": "0x6c",
        "chainId": "0xa5bf",
        "feeToken": null,
        "calls": [],
        "keyType": null,
        "keyData": null
      },
      "additionalContracts": [],
      "isFixedGasLimit": false
    },
    {
      "hash": null,
      "transactionType": "CALL",
      "contractName": null,
      "contractAddress": "0x5efe75a72eae3178a7a4f310e841b1d3ff980d3d",
      "function": "setListing(bytes32,string,uint256,uint256,bool)",
      "arguments": [
        "0x8edf6f47e89d05c0e21320161fda1fd1fabd0081a66c959691ea17102e39fb27",
        "punk",
        "25000000",
        "31536000",
        "true"
      ],
      "transaction": {
        "from": "0xc77ad4de7d179fffba417ca24c055d86af69f4bb",
        "to": "0x5efe75a72eae3178a7a4f310e841b1d3ff980d3d",
        "gas": "0xfc02f",
        "value": "0x0",
        "input": "0x2ea4dda98edf6f47e89d05c0e21320161fda1fd1fabd0081a66c959691ea17102e39fb2700000000000000000000000000000000000000000000000000000000000000a000000000000000000000000000000000000000000000000000000000017d78400000000000000000000000000000000000000000000000000000000001e133800000000000000000000000000000000000000000000000000000000000000001000000000000000000000000000000000000000000000000000000000000000470756e6b00000000000000000000000000000000000000000000000000000000",
        "nonce": "0x6d",
        "chainId": "0xa5bf",
        "feeToken": null,
        "calls": [],
        "keyType": null,
        "keyData": null
      },
      "additionalContracts": [],
      "isFixedGasLimit": false
    },
    {
      "hash": null,
      "transactionType": "CALL",
      "contractName": null,
      "contractAddress": "0xa111c5ca16752b09ff16b3b8b24ba55a8486ab23",
      "function": "setPremiumPrice(bytes32,bytes32,uint256)",
      "arguments": [
        "0x8edf6f47e89d05c0e21320161fda1fd1fabd0081a66c959691ea17102e39fb27",
        "0x1e39b0d04949e939b238bdc2c38f5acb52d2d9b05d8de70f345245e398e6f171",
        "1"
      ],
      "transaction": {
        "from": "0xc77ad4de7d179fffba417ca24c055d86af69f4bb",
        "to": "0xa111c5ca16752b09ff16b3b8b24ba55a8486ab23",
        "gas": "0x5a676",
        "value": "0x0",
        "input": "0x74b13cf48edf6f47e89d05c0e21320161fda1fd1fabd0081a66c959691ea17102e39fb271e39b0d04949e939b238bdc2c38f5acb52d2d9b05d8de70f345245e398e6f1710000000000000000000000000000000000000000000000000000000000000001",
        "nonce": "0x6e",
        "chainId": "0xa5bf",
        "feeToken": null,
        "calls": [],
        "keyType": null,
        "keyData": null
      },
      "additionalContracts": [],
      "isFixedGasLimit": false
    },
    {
      "hash": null,
      "transactionType": "CALL",
      "contractName": null,
      "contractAddress": "0x5efe75a72eae3178a7a4f310e841b1d3ff980d3d",
      "function": "setListing(bytes32,string,uint256,uint256,bool)",
      "arguments": [
        "0x8edf6f47e89d05c0e21320161fda1fd1fabd0081a66c959691ea17102e39fb27",
        "dope",
        "25000000",
        "31536000",
        "true"
      ],
      "transaction": {
        "from": "0xc77ad4de7d179fffba417ca24c055d86af69f4bb",
        "to": "0x5efe75a72eae3178a7a4f310e841b1d3ff980d3d",
        "gas": "0xfc02f",
        "value": "0x0",
        "input": "0x2ea4dda98edf6f47e89d05c0e21320161fda1fd1fabd0081a66c959691ea17102e39fb2700000000000000000000000000000000000000000000000000000000000000a000000000000000000000000000000000000000000000000000000000017d78400000000000000000000000000000000000000000000000000000000001e1338000000000000000000000000000000000000000000000000000000000000000010000000000000000000000000000000000000000000000000000000000000004646f706500000000000000000000000000000000000000000000000000000000",
        "nonce": "0x6f",
        "chainId": "0xa5bf",
        "feeToken": null,
        "calls": [],
        "keyType": null,
        "keyData": null
      },
      "additionalContracts": [],
      "isFixedGasLimit": false
    },
    {
      "hash": null,
      "transactionType": "CALL",
      "contractName": null,
      "contractAddress": "0xa111c5ca16752b09ff16b3b8b24ba55a8486ab23",
      "function": "setPremiumPrice(bytes32,bytes32,uint256)",
      "arguments": [
        "0x8edf6f47e89d05c0e21320161fda1fd1fabd0081a66c959691ea17102e39fb27",
        "0x3f631d566f4db432ca320a6932a0a30ed043d45d49871ce3d6daa3d8ea615ee4",
        "1"
      ],
      "transaction": {
        "from": "0xc77ad4de7d179fffba417ca24c055d86af69f4bb",
        "to": "0xa111c5ca16752b09ff16b3b8b24ba55a8486ab23",
        "gas": "0x5a676",
        "value": "0x0",
        "input": "0x74b13cf48edf6f47e89d05c0e21320161fda1fd1fabd0081a66c959691ea17102e39fb273f631d566f4db432ca320a6932a0a30ed043d45d49871ce3d6daa3d8ea615ee40000000000000000000000000000000000000000000000000000000000000001",
        "nonce": "0x70",
        "chainId": "0xa5bf",
        "feeToken": null,
        "calls": [],
        "keyType": null,
        "keyData": null
      },
      "additionalContracts": [],
      "isFixedGasLimit": false
    },
    {
      "hash": null,
      "transactionType": "CALL",
      "contractName": null,
      "contractAddress": "0x5efe75a72eae3178a7a4f310e841b1d3ff980d3d",
      "function": "setListing(bytes32,string,uint256,uint256,bool)",
      "arguments": [
        "0x8edf6f47e89d05c0e21320161fda1fd1fabd0081a66c959691ea17102e39fb27",
        "fire",
        "25000000",
        "31536000",
        "true"
      ],
      "transaction": {
        "from": "0xc77ad4de7d179fffba417ca24c055d86af69f4bb",
        "to": "0x5efe75a72eae3178a7a4f310e841b1d3ff980d3d",
        "gas": "0xfc02f",
        "value": "0x0",
        "input": "0x2ea4dda98edf6f47e89d05c0e21320161fda1fd1fabd0081a66c959691ea17102e39fb2700000000000000000000000000000000000000000000000000000000000000a000000000000000000000000000000000000000000000000000000000017d78400000000000000000000000000000000000000000000000000000000001e13380000000000000000000000000000000000000000000000000000000000000000100000000000000000000000000000000000000000000000000000000000000046669726500000000000000000000000000000000000000000000000000000000",
        "nonce": "0x71",
        "chainId": "0xa5bf",
        "feeToken": null,
        "calls": [],
        "keyType": null,
        "keyData": null
      },
      "additionalContracts": [],
      "isFixedGasLimit": false
    },
    {
      "hash": null,
      "transactionType": "CALL",
      "contractName": null,
      "contractAddress": "0xa111c5ca16752b09ff16b3b8b24ba55a8486ab23",
      "function": "setPremiumPrice(bytes32,bytes32,uint256)",
      "arguments": [
        "0x8edf6f47e89d05c0e21320161fda1fd1fabd0081a66c959691ea17102e39fb27",
        "0xa827b848d338b362a9edc3f5d9143a504828207dd0d1d6515b2b3968154d59b0",
        "1"
      ],
      "transaction": {
        "from": "0xc77ad4de7d179fffba417ca24c055d86af69f4bb",
        "to": "0xa111c5ca16752b09ff16b3b8b24ba55a8486ab23",
        "gas": "0x5a676",
        "value": "0x0",
        "input": "0x74b13cf48edf6f47e89d05c0e21320161fda1fd1fabd0081a66c959691ea17102e39fb27a827b848d338b362a9edc3f5d9143a504828207dd0d1d6515b2b3968154d59b00000000000000000000000000000000000000000000000000000000000000001",
        "nonce": "0x72",
        "chainId": "0xa5bf",
        "feeToken": null,
        "calls": [],
        "keyType": null,
        "keyData": null
      },
      "additionalContracts": [],
      "isFixedGasLimit": false
    },
    {
      "hash": null,
      "transactionType": "CALL",
      "contractName": null,
      "contractAddress": "0x5efe75a72eae3178a7a4f310e841b1d3ff980d3d",
      "function": "setListing(bytes32,string,uint256,uint256,bool)",
      "arguments": [
        "0x8edf6f47e89d05c0e21320161fda1fd1fabd0081a66c959691ea17102e39fb27",
        "gold",
        "25000000",
        "31536000",
        "true"
      ],
      "transaction": {
        "from": "0xc77ad4de7d179fffba417ca24c055d86af69f4bb",
        "to": "0x5efe75a72eae3178a7a4f310e841b1d3ff980d3d",
        "gas": "0xfc02f",
        "value": "0x0",
        "input": "0x2ea4dda98edf6f47e89d05c0e21320161fda1fd1fabd0081a66c959691ea17102e39fb2700000000000000000000000000000000000000000000000000000000000000a000000000000000000000000000000000000000000000000000000000017d78400000000000000000000000000000000000000000000000000000000001e1338000000000000000000000000000000000000000000000000000000000000000010000000000000000000000000000000000000000000000000000000000000004676f6c6400000000000000000000000000000000000000000000000000000000",
        "nonce": "0x73",
        "chainId": "0xa5bf",
        "feeToken": null,
        "calls": [],
        "keyType": null,
        "keyData": null
      },
      "additionalContracts": [],
      "isFixedGasLimit": false
    },
    {
      "hash": null,
      "transactionType": "CALL",
      "contractName": null,
      "contractAddress": "0xa111c5ca16752b09ff16b3b8b24ba55a8486ab23",
      "function": "setPremiumPrice(bytes32,bytes32,uint256)",
      "arguments": [
        "0x8edf6f47e89d05c0e21320161fda1fd1fabd0081a66c959691ea17102e39fb27",
        "0x6cb8430e200400c2bf381cdf79f195612cc0925d9550337df07dfe3e28796ba6",
        "1"
      ],
      "transaction": {
        "from": "0xc77ad4de7d179fffba417ca24c055d86af69f4bb",
        "to": "0xa111c5ca16752b09ff16b3b8b24ba55a8486ab23",
        "gas": "0x5a667",
        "value": "0x0",
        "input": "0x74b13cf48edf6f47e89d05c0e21320161fda1fd1fabd0081a66c959691ea17102e39fb276cb8430e200400c2bf381cdf79f195612cc0925d9550337df07dfe3e28796ba60000000000000000000000000000000000000000000000000000000000000001",
        "nonce": "0x74",
        "chainId": "0xa5bf",
        "feeToken": null,
        "calls": [],
        "keyType": null,
        "keyData": null
      },
      "additionalContracts": [],
      "isFixedGasLimit": false
    },
    {
      "hash": null,
      "transactionType": "CALL",
      "contractName": null,
      "contractAddress": "0x5efe75a72eae3178a7a4f310e841b1d3ff980d3d",
      "function": "setListing(bytes32,string,uint256,uint256,bool)",
      "arguments": [
        "0x8edf6f47e89d05c0e21320161fda1fd1fabd0081a66c959691ea17102e39fb27",
        "jade",
        "25000000",
        "31536000",
        "true"
      ],
      "transaction": {
        "from": "0xc77ad4de7d179fffba417ca24c055d86af69f4bb",
        "to": "0x5efe75a72eae3178a7a4f310e841b1d3ff980d3d",
        "gas": "0xfc02f",
        "value": "0x0",
        "input": "0x2ea4dda98edf6f47e89d05c0e21320161fda1fd1fabd0081a66c959691ea17102e39fb2700000000000000000000000000000000000000000000000000000000000000a000000000000000000000000000000000000000000000000000000000017d78400000000000000000000000000000000000000000000000000000000001e13380000000000000000000000000000000000000000000000000000000000000000100000000000000000000000000000000000000000000000000000000000000046a61646500000000000000000000000000000000000000000000000000000000",
        "nonce": "0x75",
        "chainId": "0xa5bf",
        "feeToken": null,
        "calls": [],
        "keyType": null,
        "keyData": null
      },
      "additionalContracts": [],
      "isFixedGasLimit": false
    },
    {
      "hash": null,
      "transactionType": "CALL",
      "contractName": null,
      "contractAddress": "0xa111c5ca16752b09ff16b3b8b24ba55a8486ab23",
      "function": "setPremiumPrice(bytes32,bytes32,uint256)",
      "arguments": [
        "0x8edf6f47e89d05c0e21320161fda1fd1fabd0081a66c959691ea17102e39fb27",
        "0x562dbd2e118dfbcf12d2e1f8d2c2681655e181f9d2e0f3ff620aedf5bfcd2848",
        "1"
      ],
      "transaction": {
        "from": "0xc77ad4de7d179fffba417ca24c055d86af69f4bb",
        "to": "0xa111c5ca16752b09ff16b3b8b24ba55a8486ab23",
        "gas": "0x5a676",
        "value": "0x0",
        "input": "0x74b13cf48edf6f47e89d05c0e21320161fda1fd1fabd0081a66c959691ea17102e39fb27562dbd2e118dfbcf12d2e1f8d2c2681655e181f9d2e0f3ff620aedf5bfcd28480000000000000000000000000000000000000000000000000000000000000001",
        "nonce": "0x76",
        "chainId": "0xa5bf",
        "feeToken": null,
        "calls": [],
        "keyType": null,
        "keyData": null
      },
      "additionalContracts": [],
      "isFixedGasLimit": false
    },
    {
      "hash": null,
      "transactionType": "CALL",
      "contractName": null,
      "contractAddress": "0x5efe75a72eae3178a7a4f310e841b1d3ff980d3d",
      "function": "setListing(bytes32,string,uint256,uint256,bool)",
      "arguments": [
        "0x8edf6f47e89d05c0e21320161fda1fd1fabd0081a66c959691ea17102e39fb27",
        "ruby",
        "25000000",
        "31536000",
        "true"
      ],
      "transaction": {
        "from": "0xc77ad4de7d179fffba417ca24c055d86af69f4bb",
        "to": "0x5efe75a72eae3178a7a4f310e841b1d3ff980d3d",
        "gas": "0xfc02f",
        "value": "0x0",
        "input": "0x2ea4dda98edf6f47e89d05c0e21320161fda1fd1fabd0081a66c959691ea17102e39fb2700000000000000000000000000000000000000000000000000000000000000a000000000000000000000000000000000000000000000000000000000017d78400000000000000000000000000000000000000000000000000000000001e13380000000000000000000000000000000000000000000000000000000000000000100000000000000000000000000000000000000000000000000000000000000047275627900000000000000000000000000000000000000000000000000000000",
        "nonce": "0x77",
        "chainId": "0xa5bf",
        "feeToken": null,
        "calls": [],
        "keyType": null,
        "keyData": null
      },
      "additionalContracts": [],
      "isFixedGasLimit": false
    },
    {
      "hash": null,
      "transactionType": "CALL",
      "contractName": null,
      "contractAddress": "0xa111c5ca16752b09ff16b3b8b24ba55a8486ab23",
      "function": "setPremiumPrice(bytes32,bytes32,uint256)",
      "arguments": [
        "0xace9c9c435cf933be3564cdbcf7b7e2faee63e4f39034849eacb82d13f32f02a",
        "0x8f77c8c6fd421d301c5f91568d08c991f5a87c5f04cc3f0a4176f9e9b14c3854",
        "1"
      ],
      "transaction": {
        "from": "0xc77ad4de7d179fffba417ca24c055d86af69f4bb",
        "to": "0xa111c5ca16752b09ff16b3b8b24ba55a8486ab23",
        "gas": "0x5a686",
        "value": "0x0",
        "input": "0x74b13cf4ace9c9c435cf933be3564cdbcf7b7e2faee63e4f39034849eacb82d13f32f02a8f77c8c6fd421d301c5f91568d08c991f5a87c5f04cc3f0a4176f9e9b14c38540000000000000000000000000000000000000000000000000000000000000001",
        "nonce": "0x78",
        "chainId": "0xa5bf",
        "feeToken": null,
        "calls": [],
        "keyType": null,
        "keyData": null
      },
      "additionalContracts": [],
      "isFixedGasLimit": false
    },
    {
      "hash": null,
      "transactionType": "CALL",
      "contractName": null,
      "contractAddress": "0x5efe75a72eae3178a7a4f310e841b1d3ff980d3d",
      "function": "setListing(bytes32,string,uint256,uint256,bool)",
      "arguments": [
        "0xace9c9c435cf933be3564cdbcf7b7e2faee63e4f39034849eacb82d13f32f02a",
        "king",
        "100000000",
        "31536000",
        "true"
      ],
      "transaction": {
        "from": "0xc77ad4de7d179fffba417ca24c055d86af69f4bb",
        "to": "0x5efe75a72eae3178a7a4f310e841b1d3ff980d3d",
        "gas": "0xfc02f",
        "value": "0x0",
        "input": "0x2ea4dda9ace9c9c435cf933be3564cdbcf7b7e2faee63e4f39034849eacb82d13f32f02a00000000000000000000000000000000000000000000000000000000000000a00000000000000000000000000000000000000000000000000000000005f5e1000000000000000000000000000000000000000000000000000000000001e13380000000000000000000000000000000000000000000000000000000000000000100000000000000000000000000000000000000000000000000000000000000046b696e6700000000000000000000000000000000000000000000000000000000",
        "nonce": "0x79",
        "chainId": "0xa5bf",
        "feeToken": null,
        "calls": [],
        "keyType": null,
        "keyData": null
      },
      "additionalContracts": [],
      "isFixedGasLimit": false
    },
    {
      "hash": null,
      "transactionType": "CALL",
      "contractName": null,
      "contractAddress": "0xa111c5ca16752b09ff16b3b8b24ba55a8486ab23",
      "function": "setPremiumPrice(bytes32,bytes32,uint256)",
      "arguments": [
        "0xace9c9c435cf933be3564cdbcf7b7e2faee63e4f39034849eacb82d13f32f02a",
        "0xf6a2574f8130a5385a107da69d90fd5f193de1a157d8c2a8da98cb1ea42522c3",
        "1"
      ],
      "transaction": {
        "from": "0xc77ad4de7d179fffba417ca24c055d86af69f4bb",
        "to": "0xa111c5ca16752b09ff16b3b8b24ba55a8486ab23",
        "gas": "0x5a686",
        "value": "0x0",
        "input": "0x74b13cf4ace9c9c435cf933be3564cdbcf7b7e2faee63e4f39034849eacb82d13f32f02af6a2574f8130a5385a107da69d90fd5f193de1a157d8c2a8da98cb1ea42522c30000000000000000000000000000000000000000000000000000000000000001",
        "nonce": "0x7a",
        "chainId": "0xa5bf",
        "feeToken": null,
        "calls": [],
        "keyType": null,
        "keyData": null
      },
      "additionalContracts": [],
      "isFixedGasLimit": false
    },
    {
      "hash": null,
      "transactionType": "CALL",
      "contractName": null,
      "contractAddress": "0x5efe75a72eae3178a7a4f310e841b1d3ff980d3d",
      "function": "setListing(bytes32,string,uint256,uint256,bool)",
      "arguments": [
        "0xace9c9c435cf933be3564cdbcf7b7e2faee63e4f39034849eacb82d13f32f02a",
        "queen",
        "100000000",
        "31536000",
        "true"
      ],
      "transaction": {
        "from": "0xc77ad4de7d179fffba417ca24c055d86af69f4bb",
        "to": "0x5efe75a72eae3178a7a4f310e841b1d3ff980d3d",
        "gas": "0xfc1ef",
        "value": "0x0",
        "input": "0x2ea4dda9ace9c9c435cf933be3564cdbcf7b7e2faee63e4f39034849eacb82d13f32f02a00000000000000000000000000000000000000000000000000000000000000a00000000000000000000000000000000000000000000000000000000005f5e1000000000000000000000000000000000000000000000000000000000001e1338000000000000000000000000000000000000000000000000000000000000000010000000000000000000000000000000000000000000000000000000000000005717565656e000000000000000000000000000000000000000000000000000000",
        "nonce": "0x7b",
        "chainId": "0xa5bf",
        "feeToken": null,
        "calls": [],
        "keyType": null,
        "keyData": null
      },
      "additionalContracts": [],
      "isFixedGasLimit": false
    },
    {
      "hash": null,
      "transactionType": "CALL",
      "contractName": null,
      "contractAddress": "0xa111c5ca16752b09ff16b3b8b24ba55a8486ab23",
      "function": "setPremiumPrice(bytes32,bytes32,uint256)",
      "arguments": [
        "0xace9c9c435cf933be3564cdbcf7b7e2faee63e4f39034849eacb82d13f32f02a",
        "0x536861bd889e384b0b0b95235b722d4faa778a260da1033ca00f620dbbb1709a",
        "1"
      ],
      "transaction": {
        "from": "0xc77ad4de7d179fffba417ca24c055d86af69f4bb",
        "to": "0xa111c5ca16752b09ff16b3b8b24ba55a8486ab23",
        "gas": "0x5a686",
        "value": "0x0",
        "input": "0x74b13cf4ace9c9c435cf933be3564cdbcf7b7e2faee63e4f39034849eacb82d13f32f02a536861bd889e384b0b0b95235b722d4faa778a260da1033ca00f620dbbb1709a0000000000000000000000000000000000000000000000000000000000000001",
        "nonce": "0x7c",
        "chainId": "0xa5bf",
        "feeToken": null,
        "calls": [],
        "keyType": null,
        "keyData": null
      },
      "additionalContracts": [],
      "isFixedGasLimit": false
    },
    {
      "hash": null,
      "transactionType": "CALL",
      "contractName": null,
      "contractAddress": "0x5efe75a72eae3178a7a4f310e841b1d3ff980d3d",
      "function": "setListing(bytes32,string,uint256,uint256,bool)",
      "arguments": [
        "0xace9c9c435cf933be3564cdbcf7b7e2faee63e4f39034849eacb82d13f32f02a",
        "god",
        "100000000",
        "31536000",
        "true"
      ],
      "transaction": {
        "from": "0xc77ad4de7d179fffba417ca24c055d86af69f4bb",
        "to": "0x5efe75a72eae3178a7a4f310e841b1d3ff980d3d",
        "gas": "0xfbe6f",
        "value": "0x0",
        "input": "0x2ea4dda9ace9c9c435cf933be3564cdbcf7b7e2faee63e4f39034849eacb82d13f32f02a00000000000000000000000000000000000000000000000000000000000000a00000000000000000000000000000000000000000000000000000000005f5e1000000000000000000000000000000000000000000000000000000000001e1338000000000000000000000000000000000000000000000000000000000000000010000000000000000000000000000000000000000000000000000000000000003676f640000000000000000000000000000000000000000000000000000000000",
        "nonce": "0x7d",
        "chainId": "0xa5bf",
        "feeToken": null,
        "calls": [],
        "keyType": null,
        "keyData": null
      },
      "additionalContracts": [],
      "isFixedGasLimit": false
    },
    {
      "hash": null,
      "transactionType": "CALL",
      "contractName": null,
      "contractAddress": "0xa111c5ca16752b09ff16b3b8b24ba55a8486ab23",
      "function": "setPremiumPrice(bytes32,bytes32,uint256)",
      "arguments": [
        "0xace9c9c435cf933be3564cdbcf7b7e2faee63e4f39034849eacb82d13f32f02a",
        "0xcd3a10258f4c15d033b6373f725da8d1215be02f83656e11f550b3374fbe2bb5",
        "1"
      ],
      "transaction": {
        "from": "0xc77ad4de7d179fffba417ca24c055d86af69f4bb",
        "to": "0xa111c5ca16752b09ff16b3b8b24ba55a8486ab23",
        "gas": "0x5a686",
        "value": "0x0",
        "input": "0x74b13cf4ace9c9c435cf933be3564cdbcf7b7e2faee63e4f39034849eacb82d13f32f02acd3a10258f4c15d033b6373f725da8d1215be02f83656e11f550b3374fbe2bb50000000000000000000000000000000000000000000000000000000000000001",
        "nonce": "0x7e",
        "chainId": "0xa5bf",
        "feeToken": null,
        "calls": [],
        "keyType": null,
        "keyData": null
      },
      "additionalContracts": [],
      "isFixedGasLimit": false
    },
    {
      "hash": null,
      "transactionType": "CALL",
      "contractName": null,
      "contractAddress": "0x5efe75a72eae3178a7a4f310e841b1d3ff980d3d",
      "function": "setListing(bytes32,string,uint256,uint256,bool)",
      "arguments": [
        "0xace9c9c435cf933be3564cdbcf7b7e2faee63e4f39034849eacb82d13f32f02a",
        "devil",
        "100000000",
        "31536000",
        "true"
      ],
      "transaction": {
        "from": "0xc77ad4de7d179fffba417ca24c055d86af69f4bb",
        "to": "0x5efe75a72eae3178a7a4f310e841b1d3ff980d3d",
        "gas": "0xfc1ef",
        "value": "0x0",
        "input": "0x2ea4dda9ace9c9c435cf933be3564cdbcf7b7e2faee63e4f39034849eacb82d13f32f02a00000000000000000000000000000000000000000000000000000000000000a00000000000000000000000000000000000000000000000000000000005f5e1000000000000000000000000000000000000000000000000000000000001e1338000000000000000000000000000000000000000000000000000000000000000010000000000000000000000000000000000000000000000000000000000000005646576696c000000000000000000000000000000000000000000000000000000",
        "nonce": "0x7f",
        "chainId": "0xa5bf",
        "feeToken": null,
        "calls": [],
        "keyType": null,
        "keyData": null
      },
      "additionalContracts": [],
      "isFixedGasLimit": false
    },
    {
      "hash": null,
      "transactionType": "CALL",
      "contractName": null,
      "contractAddress": "0xa111c5ca16752b09ff16b3b8b24ba55a8486ab23",
      "function": "setPremiumPrice(bytes32,bytes32,uint256)",
      "arguments": [
        "0xace9c9c435cf933be3564cdbcf7b7e2faee63e4f39034849eacb82d13f32f02a",
        "0x0c3fd321f4034b150c9566252db6f2e0394944320559ea8b2cf14a3e1e873024",
        "1"
      ],
      "transaction": {
        "from": "0xc77ad4de7d179fffba417ca24c055d86af69f4bb",
        "to": "0xa111c5ca16752b09ff16b3b8b24ba55a8486ab23",
        "gas": "0x5a686",
        "value": "0x0",
        "input": "0x74b13cf4ace9c9c435cf933be3564cdbcf7b7e2faee63e4f39034849eacb82d13f32f02a0c3fd321f4034b150c9566252db6f2e0394944320559ea8b2cf14a3e1e8730240000000000000000000000000000000000000000000000000000000000000001",
        "nonce": "0x80",
        "chainId": "0xa5bf",
        "feeToken": null,
        "calls": [],
        "keyType": null,
        "keyData": null
      },
      "additionalContracts": [],
      "isFixedGasLimit": false
    },
    {
      "hash": null,
      "transactionType": "CALL",
      "contractName": null,
      "contractAddress": "0x5efe75a72eae3178a7a4f310e841b1d3ff980d3d",
      "function": "setListing(bytes32,string,uint256,uint256,bool)",
      "arguments": [
        "0xace9c9c435cf933be3564cdbcf7b7e2faee63e4f39034849eacb82d13f32f02a",
        "pirate",
        "100000000",
        "31536000",
        "true"
      ],
      "transaction": {
        "from": "0xc77ad4de7d179fffba417ca24c055d86af69f4bb",
        "to": "0x5efe75a72eae3178a7a4f310e841b1d3ff980d3d",
        "gas": "0xfc3b0",
        "value": "0x0",
        "input": "0x2ea4dda9ace9c9c435cf933be3564cdbcf7b7e2faee63e4f39034849eacb82d13f32f02a00000000000000000000000000000000000000000000000000000000000000a00000000000000000000000000000000000000000000000000000000005f5e1000000000000000000000000000000000000000000000000000000000001e13380000000000000000000000000000000000000000000000000000000000000000100000000000000000000000000000000000000000000000000000000000000067069726174650000000000000000000000000000000000000000000000000000",
        "nonce": "0x81",
        "chainId": "0xa5bf",
        "feeToken": null,
        "calls": [],
        "keyType": null,
        "keyData": null
      },
      "additionalContracts": [],
      "isFixedGasLimit": false
    },
    {
      "hash": null,
      "transactionType": "CALL",
      "contractName": null,
      "contractAddress": "0xa111c5ca16752b09ff16b3b8b24ba55a8486ab23",
      "function": "setPremiumPrice(bytes32,bytes32,uint256)",
      "arguments": [
        "0xace9c9c435cf933be3564cdbcf7b7e2faee63e4f39034849eacb82d13f32f02a",
        "0x6d9ef456bf9817b37be2dccf1f8c6fefd89f6a4a7a8e0f226001466eac0023be",
        "1"
      ],
      "transaction": {
        "from": "0xc77ad4de7d179fffba417ca24c055d86af69f4bb",
        "to": "0xa111c5ca16752b09ff16b3b8b24ba55a8486ab23",
        "gas": "0x5a676",
        "value": "0x0",
        "input": "0x74b13cf4ace9c9c435cf933be3564cdbcf7b7e2faee63e4f39034849eacb82d13f32f02a6d9ef456bf9817b37be2dccf1f8c6fefd89f6a4a7a8e0f226001466eac0023be0000000000000000000000000000000000000000000000000000000000000001",
        "nonce": "0x82",
        "chainId": "0xa5bf",
        "feeToken": null,
        "calls": [],
        "keyType": null,
        "keyData": null
      },
      "additionalContracts": [],
      "isFixedGasLimit": false
    },
    {
      "hash": null,
      "transactionType": "CALL",
      "contractName": null,
      "contractAddress": "0x5efe75a72eae3178a7a4f310e841b1d3ff980d3d",
      "function": "setListing(bytes32,string,uint256,uint256,bool)",
      "arguments": [
        "0xace9c9c435cf933be3564cdbcf7b7e2faee63e4f39034849eacb82d13f32f02a",
        "heaven",
        "100000000",
        "31536000",
        "true"
      ],
      "transaction": {
        "from": "0xc77ad4de7d179fffba417ca24c055d86af69f4bb",
        "to": "0x5efe75a72eae3178a7a4f310e841b1d3ff980d3d",
        "gas": "0xfc3b0",
        "value": "0x0",
        "input": "0x2ea4dda9ace9c9c435cf933be3564cdbcf7b7e2faee63e4f39034849eacb82d13f32f02a00000000000000000000000000000000000000000000000000000000000000a00000000000000000000000000000000000000000000000000000000005f5e1000000000000000000000000000000000000000000000000000000000001e133800000000000000000000000000000000000000000000000000000000000000001000000000000000000000000000000000000000000000000000000000000000668656176656e0000000000000000000000000000000000000000000000000000",
        "nonce": "0x83",
        "chainId": "0xa5bf",
        "feeToken": null,
        "calls": [],
        "keyType": null,
        "keyData": null
      },
      "additionalContracts": [],
      "isFixedGasLimit": false
    },
    {
      "hash": null,
      "transactionType": "CALL",
      "contractName": null,
      "contractAddress": "0xa111c5ca16752b09ff16b3b8b24ba55a8486ab23",
      "function": "setPremiumPrice(bytes32,bytes32,uint256)",
      "arguments": [
        "0xace9c9c435cf933be3564cdbcf7b7e2faee63e4f39034849eacb82d13f32f02a",
        "0xd952fe0740d9d14011fc8ead3ab7de3c739d3aa93ce9254c10b0134d80d26a30",
        "1"
      ],
      "transaction": {
        "from": "0xc77ad4de7d179fffba417ca24c055d86af69f4bb",
        "to": "0xa111c5ca16752b09ff16b3b8b24ba55a8486ab23",
        "gas": "0x5a686",
        "value": "0x0",
        "input": "0x74b13cf4ace9c9c435cf933be3564cdbcf7b7e2faee63e4f39034849eacb82d13f32f02ad952fe0740d9d14011fc8ead3ab7de3c739d3aa93ce9254c10b0134d80d26a300000000000000000000000000000000000000000000000000000000000000001",
        "nonce": "0x84",
        "chainId": "0xa5bf",
        "feeToken": null,
        "calls": [],
        "keyType": null,
        "keyData": null
      },
      "additionalContracts": [],
      "isFixedGasLimit": false
    },
    {
      "hash": null,
      "transactionType": "CALL",
      "contractName": null,
      "contractAddress": "0x5efe75a72eae3178a7a4f310e841b1d3ff980d3d",
      "function": "setListing(bytes32,string,uint256,uint256,bool)",
      "arguments": [
        "0xace9c9c435cf933be3564cdbcf7b7e2faee63e4f39034849eacb82d13f32f02a",
        "love",
        "100000000",
        "31536000",
        "true"
      ],
      "transaction": {
        "from": "0xc77ad4de7d179fffba417ca24c055d86af69f4bb",
        "to": "0x5efe75a72eae3178a7a4f310e841b1d3ff980d3d",
        "gas": "0xfc02f",
        "value": "0x0",
        "input": "0x2ea4dda9ace9c9c435cf933be3564cdbcf7b7e2faee63e4f39034849eacb82d13f32f02a00000000000000000000000000000000000000000000000000000000000000a00000000000000000000000000000000000000000000000000000000005f5e1000000000000000000000000000000000000000000000000000000000001e13380000000000000000000000000000000000000000000000000000000000000000100000000000000000000000000000000000000000000000000000000000000046c6f766500000000000000000000000000000000000000000000000000000000",
        "nonce": "0x85",
        "chainId": "0xa5bf",
        "feeToken": null,
        "calls": [],
        "keyType": null,
        "keyData": null
      },
      "additionalContracts": [],
      "isFixedGasLimit": false
    },
    {
      "hash": null,
      "transactionType": "CALL",
      "contractName": null,
      "contractAddress": "0xa111c5ca16752b09ff16b3b8b24ba55a8486ab23",
      "function": "setPremiumPrice(bytes32,bytes32,uint256)",
      "arguments": [
        "0xace9c9c435cf933be3564cdbcf7b7e2faee63e4f39034849eacb82d13f32f02a",
        "0x6bd5921979df8775e28d201d8f84d011f187d53c9ef8172ca1c37c59d422bff2",
        "1"
      ],
      "transaction": {
        "from": "0xc77ad4de7d179fffba417ca24c055d86af69f4bb",
        "to": "0xa111c5ca16752b09ff16b3b8b24ba55a8486ab23",
        "gas": "0x5a686",
        "value": "0x0",
        "input": "0x74b13cf4ace9c9c435cf933be3564cdbcf7b7e2faee63e4f39034849eacb82d13f32f02a6bd5921979df8775e28d201d8f84d011f187d53c9ef8172ca1c37c59d422bff20000000000000000000000000000000000000000000000000000000000000001",
        "nonce": "0x86",
        "chainId": "0xa5bf",
        "feeToken": null,
        "calls": [],
        "keyType": null,
        "keyData": null
      },
      "additionalContracts": [],
      "isFixedGasLimit": false
    },
    {
      "hash": null,
      "transactionType": "CALL",
      "contractName": null,
      "contractAddress": "0x5efe75a72eae3178a7a4f310e841b1d3ff980d3d",
      "function": "setListing(bytes32,string,uint256,uint256,bool)",
      "arguments": [
        "0xace9c9c435cf933be3564cdbcf7b7e2faee63e4f39034849eacb82d13f32f02a",
        "moon",
        "100000000",
        "31536000",
        "true"
      ],
      "transaction": {
        "from": "0xc77ad4de7d179fffba417ca24c055d86af69f4bb",
        "to": "0x5efe75a72eae3178a7a4f310e841b1d3ff980d3d",
        "gas": "0xfc02f",
        "value": "0x0",
        "input": "0x2ea4dda9ace9c9c435cf933be3564cdbcf7b7e2faee63e4f39034849eacb82d13f32f02a00000000000000000000000000000000000000000000000000000000000000a00000000000000000000000000000000000000000000000000000000005f5e1000000000000000000000000000000000000000000000000000000000001e13380000000000000000000000000000000000000000000000000000000000000000100000000000000000000000000000000000000000000000000000000000000046d6f6f6e00000000000000000000000000000000000000000000000000000000",
        "nonce": "0x87",
        "chainId": "0xa5bf",
        "feeToken": null,
        "calls": [],
        "keyType": null,
        "keyData": null
      },
      "additionalContracts": [],
      "isFixedGasLimit": false
    },
    {
      "hash": null,
      "transactionType": "CALL",
      "contractName": null,
      "contractAddress": "0xa111c5ca16752b09ff16b3b8b24ba55a8486ab23",
      "function": "setPremiumPrice(bytes32,bytes32,uint256)",
      "arguments": [
        "0xace9c9c435cf933be3564cdbcf7b7e2faee63e4f39034849eacb82d13f32f02a",
        "0x2632c52c2eb190dc088fe4ce54053b1ccbff2c3c5988f7480ef74b97394dbd9a",
        "1"
      ],
      "transaction": {
        "from": "0xc77ad4de7d179fffba417ca24c055d86af69f4bb",
        "to": "0xa111c5ca16752b09ff16b3b8b24ba55a8486ab23",
        "gas": "0x5a686",
        "value": "0x0",
        "input": "0x74b13cf4ace9c9c435cf933be3564cdbcf7b7e2faee63e4f39034849eacb82d13f32f02a2632c52c2eb190dc088fe4ce54053b1ccbff2c3c5988f7480ef74b97394dbd9a0000000000000000000000000000000000000000000000000000000000000001",
        "nonce": "0x88",
        "chainId": "0xa5bf",
        "feeToken": null,
        "calls": [],
        "keyType": null,
        "keyData": null
      },
      "additionalContracts": [],
      "isFixedGasLimit": false
    },
    {
      "hash": null,
      "transactionType": "CALL",
      "contractName": null,
      "contractAddress": "0x5efe75a72eae3178a7a4f310e841b1d3ff980d3d",
      "function": "setListing(bytes32,string,uint256,uint256,bool)",
      "arguments": [
        "0xace9c9c435cf933be3564cdbcf7b7e2faee63e4f39034849eacb82d13f32f02a",
        "star",
        "100000000",
        "31536000",
        "true"
      ],
      "transaction": {
        "from": "0xc77ad4de7d179fffba417ca24c055d86af69f4bb",
        "to": "0x5efe75a72eae3178a7a4f310e841b1d3ff980d3d",
        "gas": "0xfc02f",
        "value": "0x0",
        "input": "0x2ea4dda9ace9c9c435cf933be3564cdbcf7b7e2faee63e4f39034849eacb82d13f32f02a00000000000000000000000000000000000000000000000000000000000000a00000000000000000000000000000000000000000000000000000000005f5e1000000000000000000000000000000000000000000000000000000000001e13380000000000000000000000000000000000000000000000000000000000000000100000000000000000000000000000000000000000000000000000000000000047374617200000000000000000000000000000000000000000000000000000000",
        "nonce": "0x89",
        "chainId": "0xa5bf",
        "feeToken": null,
        "calls": [],
        "keyType": null,
        "keyData": null
      },
      "additionalContracts": [],
      "isFixedGasLimit": false
    },
    {
      "hash": null,
      "transactionType": "CALL",
      "contractName": null,
      "contractAddress": "0xa111c5ca16752b09ff16b3b8b24ba55a8486ab23",
      "function": "setPremiumPrice(bytes32,bytes32,uint256)",
      "arguments": [
        "0xace9c9c435cf933be3564cdbcf7b7e2faee63e4f39034849eacb82d13f32f02a",
        "0xd860e3f5f752dd317289a914ceea5886a841192a7f2f9fcdd3a0f662c070e91a",
        "1"
      ],
      "transaction": {
        "from": "0xc77ad4de7d179fffba417ca24c055d86af69f4bb",
        "to": "0xa111c5ca16752b09ff16b3b8b24ba55a8486ab23",
        "gas": "0x5a686",
        "value": "0x0",
        "input": "0x74b13cf4ace9c9c435cf933be3564cdbcf7b7e2faee63e4f39034849eacb82d13f32f02ad860e3f5f752dd317289a914ceea5886a841192a7f2f9fcdd3a0f662c070e91a0000000000000000000000000000000000000000000000000000000000000001",
        "nonce": "0x8a",
        "chainId": "0xa5bf",
        "feeToken": null,
        "calls": [],
        "keyType": null,
        "keyData": null
      },
      "additionalContracts": [],
      "isFixedGasLimit": false
    },
    {
      "hash": null,
      "transactionType": "CALL",
      "contractName": null,
      "contractAddress": "0x5efe75a72eae3178a7a4f310e841b1d3ff980d3d",
      "function": "setListing(bytes32,string,uint256,uint256,bool)",
      "arguments": [
        "0xace9c9c435cf933be3564cdbcf7b7e2faee63e4f39034849eacb82d13f32f02a",
        "angel",
        "100000000",
        "31536000",
        "true"
      ],
      "transaction": {
        "from": "0xc77ad4de7d179fffba417ca24c055d86af69f4bb",
        "to": "0x5efe75a72eae3178a7a4f310e841b1d3ff980d3d",
        "gas": "0xfc1ef",
        "value": "0x0",
        "input": "0x2ea4dda9ace9c9c435cf933be3564cdbcf7b7e2faee63e4f39034849eacb82d13f32f02a00000000000000000000000000000000000000000000000000000000000000a00000000000000000000000000000000000000000000000000000000005f5e1000000000000000000000000000000000000000000000000000000000001e1338000000000000000000000000000000000000000000000000000000000000000010000000000000000000000000000000000000000000000000000000000000005616e67656c000000000000000000000000000000000000000000000000000000",
        "nonce": "0x8b",
        "chainId": "0xa5bf",
        "feeToken": null,
        "calls": [],
        "keyType": null,
        "keyData": null
      },
      "additionalContracts": [],
      "isFixedGasLimit": false
    },
    {
      "hash": null,
      "transactionType": "CALL",
      "contractName": null,
      "contractAddress": "0xa111c5ca16752b09ff16b3b8b24ba55a8486ab23",
      "function": "setPremiumPrice(bytes32,bytes32,uint256)",
      "arguments": [
        "0xace9c9c435cf933be3564cdbcf7b7e2faee63e4f39034849eacb82d13f32f02a",
        "0xec08d0974e93cdef3f47cd5c5a287a626489bcf52960b0af6a2544794055c85b",
        "1"
      ],
      "transaction": {
        "from": "0xc77ad4de7d179fffba417ca24c055d86af69f4bb",
        "to": "0xa111c5ca16752b09ff16b3b8b24ba55a8486ab23",
        "gas": "0x5a686",
        "value": "0x0",
        "input": "0x74b13cf4ace9c9c435cf933be3564cdbcf7b7e2faee63e4f39034849eacb82d13f32f02aec08d0974e93cdef3f47cd5c5a287a626489bcf52960b0af6a2544794055c85b0000000000000000000000000000000000000000000000000000000000000001",
        "nonce": "0x8c",
        "chainId": "0xa5bf",
        "feeToken": null,
        "calls": [],
        "keyType": null,
        "keyData": null
      },
      "additionalContracts": [],
      "isFixedGasLimit": false
    },
    {
      "hash": null,
      "transactionType": "CALL",
      "contractName": null,
      "contractAddress": "0x5efe75a72eae3178a7a4f310e841b1d3ff980d3d",
      "function": "setListing(bytes32,string,uint256,uint256,bool)",
      "arguments": [
        "0xace9c9c435cf933be3564cdbcf7b7e2faee63e4f39034849eacb82d13f32f02a",
        "ace",
        "25000000",
        "31536000",
        "true"
      ],
      "transaction": {
        "from": "0xc77ad4de7d179fffba417ca24c055d86af69f4bb",
        "to": "0x5efe75a72eae3178a7a4f310e841b1d3ff980d3d",
        "gas": "0xfbe7f",
        "value": "0x0",
        "input": "0x2ea4dda9ace9c9c435cf933be3564cdbcf7b7e2faee63e4f39034849eacb82d13f32f02a00000000000000000000000000000000000000000000000000000000000000a000000000000000000000000000000000000000000000000000000000017d78400000000000000000000000000000000000000000000000000000000001e13380000000000000000000000000000000000000000000000000000000000000000100000000000000000000000000000000000000000000000000000000000000036163650000000000000000000000000000000000000000000000000000000000",
        "nonce": "0x8d",
        "chainId": "0xa5bf",
        "feeToken": null,
        "calls": [],
        "keyType": null,
        "keyData": null
      },
      "additionalContracts": [],
      "isFixedGasLimit": false
    },
    {
      "hash": null,
      "transactionType": "CALL",
      "contractName": null,
      "contractAddress": "0xa111c5ca16752b09ff16b3b8b24ba55a8486ab23",
      "function": "setPremiumPrice(bytes32,bytes32,uint256)",
      "arguments": [
        "0xace9c9c435cf933be3564cdbcf7b7e2faee63e4f39034849eacb82d13f32f02a",
        "0x934224c6bd94d513bbffb24896491c7e64cce714cd6504d94caccb3208c60f65",
        "1"
      ],
      "transaction": {
        "from": "0xc77ad4de7d179fffba417ca24c055d86af69f4bb",
        "to": "0xa111c5ca16752b09ff16b3b8b24ba55a8486ab23",
        "gas": "0x5a686",
        "value": "0x0",
        "input": "0x74b13cf4ace9c9c435cf933be3564cdbcf7b7e2faee63e4f39034849eacb82d13f32f02a934224c6bd94d513bbffb24896491c7e64cce714cd6504d94caccb3208c60f650000000000000000000000000000000000000000000000000000000000000001",
        "nonce": "0x8e",
        "chainId": "0xa5bf",
        "feeToken": null,
        "calls": [],
        "keyType": null,
        "keyData": null
      },
      "additionalContracts": [],
      "isFixedGasLimit": false
    },
    {
      "hash": null,
      "transactionType": "CALL",
      "contractName": null,
      "contractAddress": "0x5efe75a72eae3178a7a4f310e841b1d3ff980d3d",
      "function": "setListing(bytes32,string,uint256,uint256,bool)",
      "arguments": [
        "0xace9c9c435cf933be3564cdbcf7b7e2faee63e4f39034849eacb82d13f32f02a",
        "zen",
        "25000000",
        "31536000",
        "true"
      ],
      "transaction": {
        "from": "0xc77ad4de7d179fffba417ca24c055d86af69f4bb",
        "to": "0x5efe75a72eae3178a7a4f310e841b1d3ff980d3d",
        "gas": "0xfbe7f",
        "value": "0x0",
        "input": "0x2ea4dda9ace9c9c435cf933be3564cdbcf7b7e2faee63e4f39034849eacb82d13f32f02a00000000000000000000000000000000000000000000000000000000000000a000000000000000000000000000000000000000000000000000000000017d78400000000000000000000000000000000000000000000000000000000001e13380000000000000000000000000000000000000000000000000000000000000000100000000000000000000000000000000000000000000000000000000000000037a656e0000000000000000000000000000000000000000000000000000000000",
        "nonce": "0x8f",
        "chainId": "0xa5bf",
        "feeToken": null,
        "calls": [],
        "keyType": null,
        "keyData": null
      },
      "additionalContracts": [],
      "isFixedGasLimit": false
    },
    {
      "hash": null,
      "transactionType": "CALL",
      "contractName": null,
      "contractAddress": "0xa111c5ca16752b09ff16b3b8b24ba55a8486ab23",
      "function": "setPremiumPrice(bytes32,bytes32,uint256)",
      "arguments": [
        "0xace9c9c435cf933be3564cdbcf7b7e2faee63e4f39034849eacb82d13f32f02a",
        "0xc90e7e9184dce6e0d7fff2e19e72ffa35430aca54bd634ada091bef2d2bb0635",
        "1"
      ],
      "transaction": {
        "from": "0xc77ad4de7d179fffba417ca24c055d86af69f4bb",
        "to": "0xa111c5ca16752b09ff16b3b8b24ba55a8486ab23",
        "gas": "0x5a686",
        "value": "0x0",
        "input": "0x74b13cf4ace9c9c435cf933be3564cdbcf7b7e2faee63e4f39034849eacb82d13f32f02ac90e7e9184dce6e0d7fff2e19e72ffa35430aca54bd634ada091bef2d2bb06350000000000000000000000000000000000000000000000000000000000000001",
        "nonce": "0x90",
        "chainId": "0xa5bf",
        "feeToken": null,
        "calls": [],
        "keyType": null,
        "keyData": null
      },
      "additionalContracts": [],
      "isFixedGasLimit": false
    },
    {
      "hash": null,
      "transactionType": "CALL",
      "contractName": null,
      "contractAddress": "0x5efe75a72eae3178a7a4f310e841b1d3ff980d3d",
      "function": "setListing(bytes32,string,uint256,uint256,bool)",
      "arguments": [
        "0xace9c9c435cf933be3564cdbcf7b7e2faee63e4f39034849eacb82d13f32f02a",
        "nova",
        "25000000",
        "31536000",
        "true"
      ],
      "transaction": {
        "from": "0xc77ad4de7d179fffba417ca24c055d86af69f4bb",
        "to": "0x5efe75a72eae3178a7a4f310e841b1d3ff980d3d",
        "gas": "0xfc03e",
        "value": "0x0",
        "input": "0x2ea4dda9ace9c9c435cf933be3564cdbcf7b7e2faee63e4f39034849eacb82d13f32f02a00000000000000000000000000000000000000000000000000000000000000a000000000000000000000000000000000000000000000000000000000017d78400000000000000000000000000000000000000000000000000000000001e13380000000000000000000000000000000000000000000000000000000000000000100000000000000000000000000000000000000000000000000000000000000046e6f766100000000000000000000000000000000000000000000000000000000",
        "nonce": "0x91",
        "chainId": "0xa5bf",
        "feeToken": null,
        "calls": [],
        "keyType": null,
        "keyData": null
      },
      "additionalContracts": [],
      "isFixedGasLimit": false
    },
    {
      "hash": null,
      "transactionType": "CALL",
      "contractName": null,
      "contractAddress": "0xa111c5ca16752b09ff16b3b8b24ba55a8486ab23",
      "function": "setPremiumPrice(bytes32,bytes32,uint256)",
      "arguments": [
        "0xace9c9c435cf933be3564cdbcf7b7e2faee63e4f39034849eacb82d13f32f02a",
        "0x0a24b3696fc1b44815c836b1f503c906711422771b26bccb4db6dd315f759b2e",
        "1"
      ],
      "transaction": {
        "from": "0xc77ad4de7d179fffba417ca24c055d86af69f4bb",
        "to": "0xa111c5ca16752b09ff16b3b8b24ba55a8486ab23",
        "gas": "0x5a686",
        "value": "0x0",
        "input": "0x74b13cf4ace9c9c435cf933be3564cdbcf7b7e2faee63e4f39034849eacb82d13f32f02a0a24b3696fc1b44815c836b1f503c906711422771b26bccb4db6dd315f759b2e0000000000000000000000000000000000000000000000000000000000000001",
        "nonce": "0x92",
        "chainId": "0xa5bf",
        "feeToken": null,
        "calls": [],
        "keyType": null,
        "keyData": null
      },
      "additionalContracts": [],
      "isFixedGasLimit": false
    },
    {
      "hash": null,
      "transactionType": "CALL",
      "contractName": null,
      "contractAddress": "0x5efe75a72eae3178a7a4f310e841b1d3ff980d3d",
      "function": "setListing(bytes32,string,uint256,uint256,bool)",
      "arguments": [
        "0xace9c9c435cf933be3564cdbcf7b7e2faee63e4f39034849eacb82d13f32f02a",
        "wolf",
        "25000000",
        "31536000",
        "true"
      ],
      "transaction": {
        "from": "0xc77ad4de7d179fffba417ca24c055d86af69f4bb",
        "to": "0x5efe75a72eae3178a7a4f310e841b1d3ff980d3d",
        "gas": "0xfc03e",
        "value": "0x0",
        "input": "0x2ea4dda9ace9c9c435cf933be3564cdbcf7b7e2faee63e4f39034849eacb82d13f32f02a00000000000000000000000000000000000000000000000000000000000000a000000000000000000000000000000000000000000000000000000000017d78400000000000000000000000000000000000000000000000000000000001e1338000000000000000000000000000000000000000000000000000000000000000010000000000000000000000000000000000000000000000000000000000000004776f6c6600000000000000000000000000000000000000000000000000000000",
        "nonce": "0x93",
        "chainId": "0xa5bf",
        "feeToken": null,
        "calls": [],
        "keyType": null,
        "keyData": null
      },
      "additionalContracts": [],
      "isFixedGasLimit": false
    },
    {
      "hash": null,
      "transactionType": "CALL",
      "contractName": null,
      "contractAddress": "0xa111c5ca16752b09ff16b3b8b24ba55a8486ab23",
      "function": "setPremiumPrice(bytes32,bytes32,uint256)",
      "arguments": [
        "0xace9c9c435cf933be3564cdbcf7b7e2faee63e4f39034849eacb82d13f32f02a",
        "0x4c71ce6ba2ee0cfaa5acee977e8e67e2cd9b456dcdf1ab291519d32de27f4ece",
        "1"
      ],
      "transaction": {
        "from": "0xc77ad4de7d179fffba417ca24c055d86af69f4bb",
        "to": "0xa111c5ca16752b09ff16b3b8b24ba55a8486ab23",
        "gas": "0x5a686",
        "value": "0x0",
        "input": "0x74b13cf4ace9c9c435cf933be3564cdbcf7b7e2faee63e4f39034849eacb82d13f32f02a4c71ce6ba2ee0cfaa5acee977e8e67e2cd9b456dcdf1ab291519d32de27f4ece0000000000000000000000000000000000000000000000000000000000000001",
        "nonce": "0x94",
        "chainId": "0xa5bf",
        "feeToken": null,
        "calls": [],
        "keyType": null,
        "keyData": null
      },
      "additionalContracts": [],
      "isFixedGasLimit": false
    },
    {
      "hash": null,
      "transactionType": "CALL",
      "contractName": null,
      "contractAddress": "0x5efe75a72eae3178a7a4f310e841b1d3ff980d3d",
      "function": "setListing(bytes32,string,uint256,uint256,bool)",
      "arguments": [
        "0xace9c9c435cf933be3564cdbcf7b7e2faee63e4f39034849eacb82d13f32f02a",
        "punk",
        "25000000",
        "31536000",
        "true"
      ],
      "transaction": {
        "from": "0xc77ad4de7d179fffba417ca24c055d86af69f4bb",
        "to": "0x5efe75a72eae3178a7a4f310e841b1d3ff980d3d",
        "gas": "0xfc03e",
        "value": "0x0",
        "input": "0x2ea4dda9ace9c9c435cf933be3564cdbcf7b7e2faee63e4f39034849eacb82d13f32f02a00000000000000000000000000000000000000000000000000000000000000a000000000000000000000000000000000000000000000000000000000017d78400000000000000000000000000000000000000000000000000000000001e133800000000000000000000000000000000000000000000000000000000000000001000000000000000000000000000000000000000000000000000000000000000470756e6b00000000000000000000000000000000000000000000000000000000",
        "nonce": "0x95",
        "chainId": "0xa5bf",
        "feeToken": null,
        "calls": [],
        "keyType": null,
        "keyData": null
      },
      "additionalContracts": [],
      "isFixedGasLimit": false
    },
    {
      "hash": null,
      "transactionType": "CALL",
      "contractName": null,
      "contractAddress": "0xa111c5ca16752b09ff16b3b8b24ba55a8486ab23",
      "function": "setPremiumPrice(bytes32,bytes32,uint256)",
      "arguments": [
        "0xace9c9c435cf933be3564cdbcf7b7e2faee63e4f39034849eacb82d13f32f02a",
        "0x1e39b0d04949e939b238bdc2c38f5acb52d2d9b05d8de70f345245e398e6f171",
        "1"
      ],
      "transaction": {
        "from": "0xc77ad4de7d179fffba417ca24c055d86af69f4bb",
        "to": "0xa111c5ca16752b09ff16b3b8b24ba55a8486ab23",
        "gas": "0x5a686",
        "value": "0x0",
        "input": "0x74b13cf4ace9c9c435cf933be3564cdbcf7b7e2faee63e4f39034849eacb82d13f32f02a1e39b0d04949e939b238bdc2c38f5acb52d2d9b05d8de70f345245e398e6f1710000000000000000000000000000000000000000000000000000000000000001",
        "nonce": "0x96",
        "chainId": "0xa5bf",
        "feeToken": null,
        "calls": [],
        "keyType": null,
        "keyData": null
      },
      "additionalContracts": [],
      "isFixedGasLimit": false
    },
    {
      "hash": null,
      "transactionType": "CALL",
      "contractName": null,
      "contractAddress": "0x5efe75a72eae3178a7a4f310e841b1d3ff980d3d",
      "function": "setListing(bytes32,string,uint256,uint256,bool)",
      "arguments": [
        "0xace9c9c435cf933be3564cdbcf7b7e2faee63e4f39034849eacb82d13f32f02a",
        "dope",
        "25000000",
        "31536000",
        "true"
      ],
      "transaction": {
        "from": "0xc77ad4de7d179fffba417ca24c055d86af69f4bb",
        "to": "0x5efe75a72eae3178a7a4f310e841b1d3ff980d3d",
        "gas": "0xfc03e",
        "value": "0x0",
        "input": "0x2ea4dda9ace9c9c435cf933be3564cdbcf7b7e2faee63e4f39034849eacb82d13f32f02a00000000000000000000000000000000000000000000000000000000000000a000000000000000000000000000000000000000000000000000000000017d78400000000000000000000000000000000000000000000000000000000001e1338000000000000000000000000000000000000000000000000000000000000000010000000000000000000000000000000000000000000000000000000000000004646f706500000000000000000000000000000000000000000000000000000000",
        "nonce": "0x97",
        "chainId": "0xa5bf",
        "feeToken": null,
        "calls": [],
        "keyType": null,
        "keyData": null
      },
      "additionalContracts": [],
      "isFixedGasLimit": false
    },
    {
      "hash": null,
      "transactionType": "CALL",
      "contractName": null,
      "contractAddress": "0xa111c5ca16752b09ff16b3b8b24ba55a8486ab23",
      "function": "setPremiumPrice(bytes32,bytes32,uint256)",
      "arguments": [
        "0xace9c9c435cf933be3564cdbcf7b7e2faee63e4f39034849eacb82d13f32f02a",
        "0x3f631d566f4db432ca320a6932a0a30ed043d45d49871ce3d6daa3d8ea615ee4",
        "1"
      ],
      "transaction": {
        "from": "0xc77ad4de7d179fffba417ca24c055d86af69f4bb",
        "to": "0xa111c5ca16752b09ff16b3b8b24ba55a8486ab23",
        "gas": "0x5a686",
        "value": "0x0",
        "input": "0x74b13cf4ace9c9c435cf933be3564cdbcf7b7e2faee63e4f39034849eacb82d13f32f02a3f631d566f4db432ca320a6932a0a30ed043d45d49871ce3d6daa3d8ea615ee40000000000000000000000000000000000000000000000000000000000000001",
        "nonce": "0x98",
        "chainId": "0xa5bf",
        "feeToken": null,
        "calls": [],
        "keyType": null,
        "keyData": null
      },
      "additionalContracts": [],
      "isFixedGasLimit": false
    },
    {
      "hash": null,
      "transactionType": "CALL",
      "contractName": null,
      "contractAddress": "0x5efe75a72eae3178a7a4f310e841b1d3ff980d3d",
      "function": "setListing(bytes32,string,uint256,uint256,bool)",
      "arguments": [
        "0xace9c9c435cf933be3564cdbcf7b7e2faee63e4f39034849eacb82d13f32f02a",
        "fire",
        "25000000",
        "31536000",
        "true"
      ],
      "transaction": {
        "from": "0xc77ad4de7d179fffba417ca24c055d86af69f4bb",
        "to": "0x5efe75a72eae3178a7a4f310e841b1d3ff980d3d",
        "gas": "0xfc03e",
        "value": "0x0",
        "input": "0x2ea4dda9ace9c9c435cf933be3564cdbcf7b7e2faee63e4f39034849eacb82d13f32f02a00000000000000000000000000000000000000000000000000000000000000a000000000000000000000000000000000000000000000000000000000017d78400000000000000000000000000000000000000000000000000000000001e13380000000000000000000000000000000000000000000000000000000000000000100000000000000000000000000000000000000000000000000000000000000046669726500000000000000000000000000000000000000000000000000000000",
        "nonce": "0x99",
        "chainId": "0xa5bf",
        "feeToken": null,
        "calls": [],
        "keyType": null,
        "keyData": null
      },
      "additionalContracts": [],
      "isFixedGasLimit": false
    },
    {
      "hash": null,
      "transactionType": "CALL",
      "contractName": null,
      "contractAddress": "0xa111c5ca16752b09ff16b3b8b24ba55a8486ab23",
      "function": "setPremiumPrice(bytes32,bytes32,uint256)",
      "arguments": [
        "0xace9c9c435cf933be3564cdbcf7b7e2faee63e4f39034849eacb82d13f32f02a",
        "0xa827b848d338b362a9edc3f5d9143a504828207dd0d1d6515b2b3968154d59b0",
        "1"
      ],
      "transaction": {
        "from": "0xc77ad4de7d179fffba417ca24c055d86af69f4bb",
        "to": "0xa111c5ca16752b09ff16b3b8b24ba55a8486ab23",
        "gas": "0x5a686",
        "value": "0x0",
        "input": "0x74b13cf4ace9c9c435cf933be3564cdbcf7b7e2faee63e4f39034849eacb82d13f32f02aa827b848d338b362a9edc3f5d9143a504828207dd0d1d6515b2b3968154d59b00000000000000000000000000000000000000000000000000000000000000001",
        "nonce": "0x9a",
        "chainId": "0xa5bf",
        "feeToken": null,
        "calls": [],
        "keyType": null,
        "keyData": null
      },
      "additionalContracts": [],
      "isFixedGasLimit": false
    },
    {
      "hash": null,
      "transactionType": "CALL",
      "contractName": null,
      "contractAddress": "0x5efe75a72eae3178a7a4f310e841b1d3ff980d3d",
      "function": "setListing(bytes32,string,uint256,uint256,bool)",
      "arguments": [
        "0xace9c9c435cf933be3564cdbcf7b7e2faee63e4f39034849eacb82d13f32f02a",
        "gold",
        "25000000",
        "31536000",
        "true"
      ],
      "transaction": {
        "from": "0xc77ad4de7d179fffba417ca24c055d86af69f4bb",
        "to": "0x5efe75a72eae3178a7a4f310e841b1d3ff980d3d",
        "gas": "0xfc03e",
        "value": "0x0",
        "input": "0x2ea4dda9ace9c9c435cf933be3564cdbcf7b7e2faee63e4f39034849eacb82d13f32f02a00000000000000000000000000000000000000000000000000000000000000a000000000000000000000000000000000000000000000000000000000017d78400000000000000000000000000000000000000000000000000000000001e1338000000000000000000000000000000000000000000000000000000000000000010000000000000000000000000000000000000000000000000000000000000004676f6c6400000000000000000000000000000000000000000000000000000000",
        "nonce": "0x9b",
        "chainId": "0xa5bf",
        "feeToken": null,
        "calls": [],
        "keyType": null,
        "keyData": null
      },
      "additionalContracts": [],
      "isFixedGasLimit": false
    },
    {
      "hash": null,
      "transactionType": "CALL",
      "contractName": null,
      "contractAddress": "0xa111c5ca16752b09ff16b3b8b24ba55a8486ab23",
      "function": "setPremiumPrice(bytes32,bytes32,uint256)",
      "arguments": [
        "0xace9c9c435cf933be3564cdbcf7b7e2faee63e4f39034849eacb82d13f32f02a",
        "0x6cb8430e200400c2bf381cdf79f195612cc0925d9550337df07dfe3e28796ba6",
        "1"
      ],
      "transaction": {
        "from": "0xc77ad4de7d179fffba417ca24c055d86af69f4bb",
        "to": "0xa111c5ca16752b09ff16b3b8b24ba55a8486ab23",
        "gas": "0x5a676",
        "value": "0x0",
        "input": "0x74b13cf4ace9c9c435cf933be3564cdbcf7b7e2faee63e4f39034849eacb82d13f32f02a6cb8430e200400c2bf381cdf79f195612cc0925d9550337df07dfe3e28796ba60000000000000000000000000000000000000000000000000000000000000001",
        "nonce": "0x9c",
        "chainId": "0xa5bf",
        "feeToken": null,
        "calls": [],
        "keyType": null,
        "keyData": null
      },
      "additionalContracts": [],
      "isFixedGasLimit": false
    },
    {
      "hash": null,
      "transactionType": "CALL",
      "contractName": null,
      "contractAddress": "0x5efe75a72eae3178a7a4f310e841b1d3ff980d3d",
      "function": "setListing(bytes32,string,uint256,uint256,bool)",
      "arguments": [
        "0xace9c9c435cf933be3564cdbcf7b7e2faee63e4f39034849eacb82d13f32f02a",
        "jade",
        "25000000",
        "31536000",
        "true"
      ],
      "transaction": {
        "from": "0xc77ad4de7d179fffba417ca24c055d86af69f4bb",
        "to": "0x5efe75a72eae3178a7a4f310e841b1d3ff980d3d",
        "gas": "0xfc03e",
        "value": "0x0",
        "input": "0x2ea4dda9ace9c9c435cf933be3564cdbcf7b7e2faee63e4f39034849eacb82d13f32f02a00000000000000000000000000000000000000000000000000000000000000a000000000000000000000000000000000000000000000000000000000017d78400000000000000000000000000000000000000000000000000000000001e13380000000000000000000000000000000000000000000000000000000000000000100000000000000000000000000000000000000000000000000000000000000046a61646500000000000000000000000000000000000000000000000000000000",
        "nonce": "0x9d",
        "chainId": "0xa5bf",
        "feeToken": null,
        "calls": [],
        "keyType": null,
        "keyData": null
      },
      "additionalContracts": [],
      "isFixedGasLimit": false
    },
    {
      "hash": null,
      "transactionType": "CALL",
      "contractName": null,
      "contractAddress": "0xa111c5ca16752b09ff16b3b8b24ba55a8486ab23",
      "function": "setPremiumPrice(bytes32,bytes32,uint256)",
      "arguments": [
        "0xace9c9c435cf933be3564cdbcf7b7e2faee63e4f39034849eacb82d13f32f02a",
        "0x562dbd2e118dfbcf12d2e1f8d2c2681655e181f9d2e0f3ff620aedf5bfcd2848",
        "1"
      ],
      "transaction": {
        "from": "0xc77ad4de7d179fffba417ca24c055d86af69f4bb",
        "to": "0xa111c5ca16752b09ff16b3b8b24ba55a8486ab23",
        "gas": "0x5a686",
        "value": "0x0",
        "input": "0x74b13cf4ace9c9c435cf933be3564cdbcf7b7e2faee63e4f39034849eacb82d13f32f02a562dbd2e118dfbcf12d2e1f8d2c2681655e181f9d2e0f3ff620aedf5bfcd28480000000000000000000000000000000000000000000000000000000000000001",
        "nonce": "0x9e",
        "chainId": "0xa5bf",
        "feeToken": null,
        "calls": [],
        "keyType": null,
        "keyData": null
      },
      "additionalContracts": [],
      "isFixedGasLimit": false
    },
    {
      "hash": null,
      "transactionType": "CALL",
      "contractName": null,
      "contractAddress": "0x5efe75a72eae3178a7a4f310e841b1d3ff980d3d",
      "function": "setListing(bytes32,string,uint256,uint256,bool)",
      "arguments": [
        "0xace9c9c435cf933be3564cdbcf7b7e2faee63e4f39034849eacb82d13f32f02a",
        "ruby",
        "25000000",
        "31536000",
        "true"
      ],
      "transaction": {
        "from": "0xc77ad4de7d179fffba417ca24c055d86af69f4bb",
        "to": "0x5efe75a72eae3178a7a4f310e841b1d3ff980d3d",
        "gas": "0xfc03e",
        "value": "0x0",
        "input": "0x2ea4dda9ace9c9c435cf933be3564cdbcf7b7e2faee63e4f39034849eacb82d13f32f02a00000000000000000000000000000000000000000000000000000000000000a000000000000000000000000000000000000000000000000000000000017d78400000000000000000000000000000000000000000000000000000000001e13380000000000000000000000000000000000000000000000000000000000000000100000000000000000000000000000000000000000000000000000000000000047275627900000000000000000000000000000000000000000000000000000000",
        "nonce": "0x9f",
        "chainId": "0xa5bf",
        "feeToken": null,
        "calls": [],
        "keyType": null,
        "keyData": null
      },
      "additionalContracts": [],
      "isFixedGasLimit": false
    }
  ],
  "receipts": [],
  "libraries": [],
  "pending": [],
  "returns": {},
  "timestamp": 1771492422356,
  "chain": 42431,
  "commit": "58e21dc"
}