{
  "transactions": [
    {
      "hash": "0x0f40602aee120ab03b05eceb82f16a89a36bb41ede21103300e8bd7a36155158",
      "transactionType": "CALL",
      "contractName": null,
      "contractAddress": "0x46bcae2625157b562c974bb5a912dfcb811a234a",
      "function": "setListing(bytes32,string,uint256,uint256,bool)",
      "arguments": [
        "0x8edf6f47e89d05c0e21320161fda1fd1fabd0081a66c959691ea17102e39fb27",
        "king",
        "100000000",
        "31536000",
        "true"
      ],
      "transaction": {
        "from": "0xc77ad4de7d179fffba417ca24c055d86af69f4bb",
        "to": "0x46bcae2625157b562c974bb5a912dfcb811a234a",
        "gas": "0xc1da8",
        "value": "0x0",
        "input": "0x2ea4dda98edf6f47e89d05c0e21320161fda1fd1fabd0081a66c959691ea17102e39fb2700000000000000000000000000000000000000000000000000000000000000a00000000000000000000000000000000000000000000000000000000005f5e1000000000000000000000000000000000000000000000000000000000001e13380000000000000000000000000000000000000000000000000000000000000000100000000000000000000000000000000000000000000000000000000000000046b696e6700000000000000000000000000000000000000000000000000000000",
        "nonce": "0xad",
        "chainId": "0xa5bf",
        "feeToken": null,
        "calls": [],
        "keyType": null,
        "keyData": null
      },
      "additionalContracts": [],
      "isFixedGasLimit": false
    },
    {
      "hash": "0x09d4dd8ce6b951d26e3caae1756f175a76288f27f266815b75e04b8231854176",
      "transactionType": "CALL",
      "contractName": null,
      "contractAddress": "0x46bcae2625157b562c974bb5a912dfcb811a234a",
      "function": "setListing(bytes32,string,uint256,uint256,bool)",
      "arguments": [
        "0x8edf6f47e89d05c0e21320161fda1fd1fabd0081a66c959691ea17102e39fb27",
        "queen",
        "100000000",
        "31536000",
        "true"
      ],
      "transaction": {
        "from": "0xc77ad4de7d179fffba417ca24c055d86af69f4bb",
        "to": "0x46bcae2625157b562c974bb5a912dfcb811a234a",
        "gas": "0xc1f01",
        "value": "0x0",
        "input": "0x2ea4dda98edf6f47e89d05c0e21320161fda1fd1fabd0081a66c959691ea17102e39fb2700000000000000000000000000000000000000000000000000000000000000a00000000000000000000000000000000000000000000000000000000005f5e1000000000000000000000000000000000000000000000000000000000001e1338000000000000000000000000000000000000000000000000000000000000000010000000000000000000000000000000000000000000000000000000000000005717565656e000000000000000000000000000000000000000000000000000000",
        "nonce": "0xae",
        "chainId": "0xa5bf",
        "feeToken": null,
        "calls": [],
        "keyType": null,
        "keyData": null
      },
      "additionalContracts": [],
      "isFixedGasLimit": false
    },
    {
      "hash": "0x4f870edb2e29cac2ee6bab01a86ab096f8fd71d9c4302925099b3577a1247a9d",
      "transactionType": "CALL",
      "contractName": null,
      "contractAddress": "0x46bcae2625157b562c974bb5a912dfcb811a234a",
      "function": "setListing(bytes32,string,uint256,uint256,bool)",
      "arguments": [
        "0x8edf6f47e89d05c0e21320161fda1fd1fabd0081a66c959691ea17102e39fb27",
        "god",
        "100000000",
        "31536000",
        "true"
      ],
      "transaction": {
        "from": "0xc77ad4de7d179fffba417ca24c055d86af69f4bb",
        "to": "0x46bcae2625157b562c974bb5a912dfcb811a234a",
        "gas": "0xc1c50",
        "value": "0x0",
        "input": "0x2ea4dda98edf6f47e89d05c0e21320161fda1fd1fabd0081a66c959691ea17102e39fb2700000000000000000000000000000000000000000000000000000000000000a00000000000000000000000000000000000000000000000000000000005f5e1000000000000000000000000000000000000000000000000000000000001e1338000000000000000000000000000000000000000000000000000000000000000010000000000000000000000000000000000000000000000000000000000000003676f640000000000000000000000000000000000000000000000000000000000",
        "nonce": "0xaf",
        "chainId": "0xa5bf",
        "feeToken": null,
        "calls": [],
        "keyType": null,
        "keyData": null
      },
      "additionalContracts": [],
      "isFixedGasLimit": false
    },
    {
      "hash": "0xae383fa5c74317491d7926005cceb0dd1a413d35ae031d3cde7746b0ffda6056",
      "transactionType": "CALL",
      "contractName": null,
      "contractAddress": "0x46bcae2625157b562c974bb5a912dfcb811a234a",
      "function": "setListing(bytes32,string,uint256,uint256,bool)",
      "arguments": [
        "0x8edf6f47e89d05c0e21320161fda1fd1fabd0081a66c959691ea17102e39fb27",
        "devil",
        "100000000",
        "31536000",
        "true"
      ],
      "transaction": {
        "from": "0xc77ad4de7d179fffba417ca24c055d86af69f4bb",
        "to": "0x46bcae2625157b562c974bb5a912dfcb811a234a",
        "gas": "0xc1f01",
        "value": "0x0",
        "input": "0x2ea4dda98edf6f47e89d05c0e21320161fda1fd1fabd0081a66c959691ea17102e39fb2700000000000000000000000000000000000000000000000000000000000000a00000000000000000000000000000000000000000000000000000000005f5e1000000000000000000000000000000000000000000000000000000000001e1338000000000000000000000000000000000000000000000000000000000000000010000000000000000000000000000000000000000000000000000000000000005646576696c000000000000000000000000000000000000000000000000000000",
        "nonce": "0xb0",
        "chainId": "0xa5bf",
        "feeToken": null,
        "calls": [],
        "keyType": null,
        "keyData": null
      },
      "additionalContracts": [],
      "isFixedGasLimit": false
    },
    {
      "hash": "0x3ee8a9730312b07ecf519f445e8710b0d7a9bd7503ba9866693c4eb5d8eefada",
      "transactionType": "CALL",
      "contractName": null,
      "contractAddress": "0x46bcae2625157b562c974bb5a912dfcb811a234a",
      "function": "setListing(bytes32,string,uint256,uint256,bool)",
      "arguments": [
        "0x8edf6f47e89d05c0e21320161fda1fd1fabd0081a66c959691ea17102e39fb27",
        "pirate",
        "100000000",
        "31536000",
        "true"
      ],
      "transaction": {
        "from": "0xc77ad4de7d179fffba417ca24c055d86af69f4bb",
        "to": "0x46bcae2625157b562c974bb5a912dfcb811a234a",
        "gas": "0xc205a",
        "value": "0x0",
        "input": "0x2ea4dda98edf6f47e89d05c0e21320161fda1fd1fabd0081a66c959691ea17102e39fb2700000000000000000000000000000000000000000000000000000000000000a00000000000000000000000000000000000000000000000000000000005f5e1000000000000000000000000000000000000000000000000000000000001e13380000000000000000000000000000000000000000000000000000000000000000100000000000000000000000000000000000000000000000000000000000000067069726174650000000000000000000000000000000000000000000000000000",
        "nonce": "0xb1",
        "chainId": "0xa5bf",
        "feeToken": null,
        "calls": [],
        "keyType": null,
        "keyData": null
      },
      "additionalContracts": [],
      "isFixedGasLimit": false
    },
    {
      "hash": "0xda57dd04380be48a253ddfcbe090edbbcaaae928a54e96cc5e922e799b7ab27b",
      "transactionType": "CALL",
      "contractName": null,
      "contractAddress": "0x46bcae2625157b562c974bb5a912dfcb811a234a",
      "function": "setListing(bytes32,string,uint256,uint256,bool)",
      "arguments": [
        "0x8edf6f47e89d05c0e21320161fda1fd1fabd0081a66c959691ea17102e39fb27",
        "heaven",
        "100000000",
        "31536000",
        "true"
      ],
      "transaction": {
        "from": "0xc77ad4de7d179fffba417ca24c055d86af69f4bb",
        "to": "0x46bcae2625157b562c974bb5a912dfcb811a234a",
        "gas": "0xc205a",
        "value": "0x0",
        "input": "0x2ea4dda98edf6f47e89d05c0e21320161fda1fd1fabd0081a66c959691ea17102e39fb2700000000000000000000000000000000000000000000000000000000000000a00000000000000000000000000000000000000000000000000000000005f5e1000000000000000000000000000000000000000000000000000000000001e133800000000000000000000000000000000000000000000000000000000000000001000000000000000000000000000000000000000000000000000000000000000668656176656e0000000000000000000000000000000000000000000000000000",
        "nonce": "0xb2",
        "chainId": "0xa5bf",
        "feeToken": null,
        "calls": [],
        "keyType": null,
        "keyData": null
      },
      "additionalContracts": [],
      "isFixedGasLimit": false
    },
    {
      "hash": "0xe2b3468823131ab228a40a5f85d726fbc854bf085cee115d81ca7fb1342f96b2",
      "transactionType": "CALL",
      "contractName": null,
      "contractAddress": "0x46bcae2625157b562c974bb5a912dfcb811a234a",
      "function": "setListing(bytes32,string,uint256,uint256,bool)",
      "arguments": [
        "0x8edf6f47e89d05c0e21320161fda1fd1fabd0081a66c959691ea17102e39fb27",
        "love",
        "100000000",
        "31536000",
        "true"
      ],
      "transaction": {
        "from": "0xc77ad4de7d179fffba417ca24c055d86af69f4bb",
        "to": "0x46bcae2625157b562c974bb5a912dfcb811a234a",
        "gas": "0xc1da8",
        "value": "0x0",
        "input": "0x2ea4dda98edf6f47e89d05c0e21320161fda1fd1fabd0081a66c959691ea17102e39fb2700000000000000000000000000000000000000000000000000000000000000a00000000000000000000000000000000000000000000000000000000005f5e1000000000000000000000000000000000000000000000000000000000001e13380000000000000000000000000000000000000000000000000000000000000000100000000000000000000000000000000000000000000000000000000000000046c6f766500000000000000000000000000000000000000000000000000000000",
        "nonce": "0xb3",
        "chainId": "0xa5bf",
        "feeToken": null,
        "calls": [],
        "keyType": null,
        "keyData": null
      },
      "additionalContracts": [],
      "isFixedGasLimit": false
    },
    {
      "hash": "0xf5a2bbd5e384e0e2aba4f2036e3a6cce2bf935808a0671c5685906feba13125b",
      "transactionType": "CALL",
      "contractName": null,
      "contractAddress": "0x46bcae2625157b562c974bb5a912dfcb811a234a",
      "function": "setListing(bytes32,string,uint256,uint256,bool)",
      "arguments": [
        "0x8edf6f47e89d05c0e21320161fda1fd1fabd0081a66c959691ea17102e39fb27",
        "moon",
        "100000000",
        "31536000",
        "true"
      ],
      "transaction": {
        "from": "0xc77ad4de7d179fffba417ca24c055d86af69f4bb",
        "to": "0x46bcae2625157b562c974bb5a912dfcb811a234a",
        "gas": "0xc1da8",
        "value": "0x0",
        "input": "0x2ea4dda98edf6f47e89d05c0e21320161fda1fd1fabd0081a66c959691ea17102e39fb2700000000000000000000000000000000000000000000000000000000000000a00000000000000000000000000000000000000000000000000000000005f5e1000000000000000000000000000000000000000000000000000000000001e13380000000000000000000000000000000000000000000000000000000000000000100000000000000000000000000000000000000000000000000000000000000046d6f6f6e00000000000000000000000000000000000000000000000000000000",
        "nonce": "0xb4",
        "chainId": "0xa5bf",
        "feeToken": null,
        "calls": [],
        "keyType": null,
        "keyData": null
      },
      "additionalContracts": [],
      "isFixedGasLimit": false
    },
    {
      "hash": "0xab7f66a025f0619836a93b27ee3b9be95a394aa6c916cb256d9a8d05bd4a5674",
      "transactionType": "CALL",
      "contractName": null,
      "contractAddress": "0x46bcae2625157b562c974bb5a912dfcb811a234a",
      "function": "setListing(bytes32,string,uint256,uint256,bool)",
      "arguments": [
        "0x8edf6f47e89d05c0e21320161fda1fd1fabd0081a66c959691ea17102e39fb27",
        "star",
        "100000000",
        "31536000",
        "true"
      ],
      "transaction": {
        "from": "0xc77ad4de7d179fffba417ca24c055d86af69f4bb",
        "to": "0x46bcae2625157b562c974bb5a912dfcb811a234a",
        "gas": "0xc1da8",
        "value": "0x0",
        "input": "0x2ea4dda98edf6f47e89d05c0e21320161fda1fd1fabd0081a66c959691ea17102e39fb2700000000000000000000000000000000000000000000000000000000000000a00000000000000000000000000000000000000000000000000000000005f5e1000000000000000000000000000000000000000000000000000000000001e13380000000000000000000000000000000000000000000000000000000000000000100000000000000000000000000000000000000000000000000000000000000047374617200000000000000000000000000000000000000000000000000000000",
        "nonce": "0xb5",
        "chainId": "0xa5bf",
        "feeToken": null,
        "calls": [],
        "keyType": null,
        "keyData": null
      },
      "additionalContracts": [],
      "isFixedGasLimit": false
    },
    {
      "hash": "0xe903d2bdbc26c290a40a4873d251fe67b643d1395743bba116123b17e25d87e0",
      "transactionType": "CALL",
      "contractName": null,
      "contractAddress": "0x46bcae2625157b562c974bb5a912dfcb811a234a",
      "function": "setListing(bytes32,string,uint256,uint256,bool)",
      "arguments": [
        "0x8edf6f47e89d05c0e21320161fda1fd1fabd0081a66c959691ea17102e39fb27",
        "angel",
        "100000000",
        "31536000",
        "true"
      ],
      "transaction": {
        "from": "0xc77ad4de7d179fffba417ca24c055d86af69f4bb",
        "to": "0x46bcae2625157b562c974bb5a912dfcb811a234a",
        "gas": "0xc1f01",
        "value": "0x0",
        "input": "0x2ea4dda98edf6f47e89d05c0e21320161fda1fd1fabd0081a66c959691ea17102e39fb2700000000000000000000000000000000000000000000000000000000000000a00000000000000000000000000000000000000000000000000000000005f5e1000000000000000000000000000000000000000000000000000000000001e1338000000000000000000000000000000000000000000000000000000000000000010000000000000000000000000000000000000000000000000000000000000005616e67656c000000000000000000000000000000000000000000000000000000",
        "nonce": "0xb6",
        "chainId": "0xa5bf",
        "feeToken": null,
        "calls": [],
        "keyType": null,
        "keyData": null
      },
      "additionalContracts": [],
      "isFixedGasLimit": false
    },
    {
      "hash": "0xf086c984d66d03ecc1c65ea357e1bf1b4e7d01bd5ded0c79a1a3eb16b708bd0a",
      "transactionType": "CALL",
      "contractName": null,
      "contractAddress": "0x46bcae2625157b562c974bb5a912dfcb811a234a",
      "function": "setListing(bytes32,string,uint256,uint256,bool)",
      "arguments": [
        "0x8edf6f47e89d05c0e21320161fda1fd1fabd0081a66c959691ea17102e39fb27",
        "ace",
        "25000000",
        "31536000",
        "true"
      ],
      "transaction": {
        "from": "0xc77ad4de7d179fffba417ca24c055d86af69f4bb",
        "to": "0x46bcae2625157b562c974bb5a912dfcb811a234a",
        "gas": "0xc1c5c",
        "value": "0x0",
        "input": "0x2ea4dda98edf6f47e89d05c0e21320161fda1fd1fabd0081a66c959691ea17102e39fb2700000000000000000000000000000000000000000000000000000000000000a000000000000000000000000000000000000000000000000000000000017d78400000000000000000000000000000000000000000000000000000000001e13380000000000000000000000000000000000000000000000000000000000000000100000000000000000000000000000000000000000000000000000000000000036163650000000000000000000000000000000000000000000000000000000000",
        "nonce": "0xb7",
        "chainId": "0xa5bf",
        "feeToken": null,
        "calls": [],
        "keyType": null,
        "keyData": null
      },
      "additionalContracts": [],
      "isFixedGasLimit": false
    },
    {
      "hash": "0xcc8094c60f6f6daa76fb580f20871b3708f251b306193c3aee21557225a4b986",
      "transactionType": "CALL",
      "contractName": null,
      "contractAddress": "0x46bcae2625157b562c974bb5a912dfcb811a234a",
      "function": "setListing(bytes32,string,uint256,uint256,bool)",
      "arguments": [
        "0x8edf6f47e89d05c0e21320161fda1fd1fabd0081a66c959691ea17102e39fb27",
        "zen",
        "25000000",
        "31536000",
        "true"
      ],
      "transaction": {
        "from": "0xc77ad4de7d179fffba417ca24c055d86af69f4bb",
        "to": "0x46bcae2625157b562c974bb5a912dfcb811a234a",
        "gas": "0xc1c5c",
        "value": "0x0",
        "input": "0x2ea4dda98edf6f47e89d05c0e21320161fda1fd1fabd0081a66c959691ea17102e39fb2700000000000000000000000000000000000000000000000000000000000000a000000000000000000000000000000000000000000000000000000000017d78400000000000000000000000000000000000000000000000000000000001e13380000000000000000000000000000000000000000000000000000000000000000100000000000000000000000000000000000000000000000000000000000000037a656e0000000000000000000000000000000000000000000000000000000000",
        "nonce": "0xb8",
        "chainId": "0xa5bf",
        "feeToken": null,
        "calls": [],
        "keyType": null,
        "keyData": null
      },
      "additionalContracts": [],
      "isFixedGasLimit": false
    },
    {
      "hash": "0x8a106d1eaf11ffc11898ca126867c69d4f0becbb21eccf2703e50d42668bd410",
      "transactionType": "CALL",
      "contractName": null,
      "contractAddress": "0x46bcae2625157b562c974bb5a912dfcb811a234a",
      "function": "setListing(bytes32,string,uint256,uint256,bool)",
      "arguments": [
        "0x8edf6f47e89d05c0e21320161fda1fd1fabd0081a66c959691ea17102e39fb27",
        "nova",
        "25000000",
        "31536000",
        "true"
      ],
      "transaction": {
        "from": "0xc77ad4de7d179fffba417ca24c055d86af69f4bb",
        "to": "0x46bcae2625157b562c974bb5a912dfcb811a234a",
        "gas": "0xc1db4",
        "value": "0x0",
        "input": "0x2ea4dda98edf6f47e89d05c0e21320161fda1fd1fabd0081a66c959691ea17102e39fb2700000000000000000000000000000000000000000000000000000000000000a000000000000000000000000000000000000000000000000000000000017d78400000000000000000000000000000000000000000000000000000000001e13380000000000000000000000000000000000000000000000000000000000000000100000000000000000000000000000000000000000000000000000000000000046e6f766100000000000000000000000000000000000000000000000000000000",
        "nonce": "0xb9",
        "chainId": "0xa5bf",
        "feeToken": null,
        "calls": [],
        "keyType": null,
        "keyData": null
      },
      "additionalContracts": [],
      "isFixedGasLimit": false
    },
    {
      "hash": "0x0924aef5a2923d21527b2bba4425444e69b673792938ad37517a98fdbd1a2ccd",
      "transactionType": "CALL",
      "contractName": null,
      "contractAddress": "0x46bcae2625157b562c974bb5a912dfcb811a234a",
      "function": "setListing(bytes32,string,uint256,uint256,bool)",
      "arguments": [
        "0x8edf6f47e89d05c0e21320161fda1fd1fabd0081a66c959691ea17102e39fb27",
        "wolf",
        "25000000",
        "31536000",
        "true"
      ],
      "transaction": {
        "from": "0xc77ad4de7d179fffba417ca24c055d86af69f4bb",
        "to": "0x46bcae2625157b562c974bb5a912dfcb811a234a",
        "gas": "0xc1db4",
        "value": "0x0",
        "input": "0x2ea4dda98edf6f47e89d05c0e21320161fda1fd1fabd0081a66c959691ea17102e39fb2700000000000000000000000000000000000000000000000000000000000000a000000000000000000000000000000000000000000000000000000000017d78400000000000000000000000000000000000000000000000000000000001e1338000000000000000000000000000000000000000000000000000000000000000010000000000000000000000000000000000000000000000000000000000000004776f6c6600000000000000000000000000000000000000000000000000000000",
        "nonce": "0xba",
        "chainId": "0xa5bf",
        "feeToken": null,
        "calls": [],
        "keyType": null,
        "keyData": null
      },
      "additionalContracts": [],
      "isFixedGasLimit": false
    },
    {
      "hash": "0xd1d5bb6c11f2ed65682898826c1be1666c302595a661c9ee6445fcc8c345a5d5",
      "transactionType": "CALL",
      "contractName": null,
      "contractAddress": "0x46bcae2625157b562c974bb5a912dfcb811a234a",
      "function": "setListing(bytes32,string,uint256,uint256,bool)",
      "arguments": [
        "0x8edf6f47e89d05c0e21320161fda1fd1fabd0081a66c959691ea17102e39fb27",
        "punk",
        "25000000",
        "31536000",
        "true"
      ],
      "transaction": {
        "from": "0xc77ad4de7d179fffba417ca24c055d86af69f4bb",
        "to": "0x46bcae2625157b562c974bb5a912dfcb811a234a",
        "gas": "0xc1db4",
        "value": "0x0",
        "input": "0x2ea4dda98edf6f47e89d05c0e21320161fda1fd1fabd0081a66c959691ea17102e39fb2700000000000000000000000000000000000000000000000000000000000000a000000000000000000000000000000000000000000000000000000000017d78400000000000000000000000000000000000000000000000000000000001e133800000000000000000000000000000000000000000000000000000000000000001000000000000000000000000000000000000000000000000000000000000000470756e6b00000000000000000000000000000000000000000000000000000000",
        "nonce": "0xbb",
        "chainId": "0xa5bf",
        "feeToken": null,
        "calls": [],
        "keyType": null,
        "keyData": null
      },
      "additionalContracts": [],
      "isFixedGasLimit": false
    },
    {
      "hash": "0x34b7ee26199141b00896ba6a1b3fd3398f95ccc13e1ea2dd3e18044237ae87f1",
      "transactionType": "CALL",
      "contractName": null,
      "contractAddress": "0x46bcae2625157b562c974bb5a912dfcb811a234a",
      "function": "setListing(bytes32,string,uint256,uint256,bool)",
      "arguments": [
        "0x8edf6f47e89d05c0e21320161fda1fd1fabd0081a66c959691ea17102e39fb27",
        "dope",
        "25000000",
        "31536000",
        "true"
      ],
      "transaction": {
        "from": "0xc77ad4de7d179fffba417ca24c055d86af69f4bb",
        "to": "0x46bcae2625157b562c974bb5a912dfcb811a234a",
        "gas": "0xc1db4",
        "value": "0x0",
        "input": "0x2ea4dda98edf6f47e89d05c0e21320161fda1fd1fabd0081a66c959691ea17102e39fb2700000000000000000000000000000000000000000000000000000000000000a000000000000000000000000000000000000000000000000000000000017d78400000000000000000000000000000000000000000000000000000000001e1338000000000000000000000000000000000000000000000000000000000000000010000000000000000000000000000000000000000000000000000000000000004646f706500000000000000000000000000000000000000000000000000000000",
        "nonce": "0xbc",
        "chainId": "0xa5bf",
        "feeToken": null,
        "calls": [],
        "keyType": null,
        "keyData": null
      },
      "additionalContracts": [],
      "isFixedGasLimit": false
    },
    {
      "hash": "0x5d59261d24c0128fd4dedc2b8eee4c0d5c3059efc123c06ce817c5314e171fb2",
      "transactionType": "CALL",
      "contractName": null,
      "contractAddress": "0x46bcae2625157b562c974bb5a912dfcb811a234a",
      "function": "setListing(bytes32,string,uint256,uint256,bool)",
      "arguments": [
        "0x8edf6f47e89d05c0e21320161fda1fd1fabd0081a66c959691ea17102e39fb27",
        "fire",
        "25000000",
        "31536000",
        "true"
      ],
      "transaction": {
        "from": "0xc77ad4de7d179fffba417ca24c055d86af69f4bb",
        "to": "0x46bcae2625157b562c974bb5a912dfcb811a234a",
        "gas": "0xc1db4",
        "value": "0x0",
        "input": "0x2ea4dda98edf6f47e89d05c0e21320161fda1fd1fabd0081a66c959691ea17102e39fb2700000000000000000000000000000000000000000000000000000000000000a000000000000000000000000000000000000000000000000000000000017d78400000000000000000000000000000000000000000000000000000000001e13380000000000000000000000000000000000000000000000000000000000000000100000000000000000000000000000000000000000000000000000000000000046669726500000000000000000000000000000000000000000000000000000000",
        "nonce": "0xbd",
        "chainId": "0xa5bf",
        "feeToken": null,
        "calls": [],
        "keyType": null,
        "keyData": null
      },
      "additionalContracts": [],
      "isFixedGasLimit": false
    },
    {
      "hash": "0xdc72a545867b672a6a37036592eb3df705f95a0d6cf1848d0c8fbe24ba4750bc",
      "transactionType": "CALL",
      "contractName": null,
      "contractAddress": "0x46bcae2625157b562c974bb5a912dfcb811a234a",
      "function": "setListing(bytes32,string,uint256,uint256,bool)",
      "arguments": [
        "0x8edf6f47e89d05c0e21320161fda1fd1fabd0081a66c959691ea17102e39fb27",
        "gold",
        "25000000",
        "31536000",
        "true"
      ],
      "transaction": {
        "from": "0xc77ad4de7d179fffba417ca24c055d86af69f4bb",
        "to": "0x46bcae2625157b562c974bb5a912dfcb811a234a",
        "gas": "0xc1db4",
        "value": "0x0",
        "input": "0x2ea4dda98edf6f47e89d05c0e21320161fda1fd1fabd0081a66c959691ea17102e39fb2700000000000000000000000000000000000000000000000000000000000000a000000000000000000000000000000000000000000000000000000000017d78400000000000000000000000000000000000000000000000000000000001e1338000000000000000000000000000000000000000000000000000000000000000010000000000000000000000000000000000000000000000000000000000000004676f6c6400000000000000000000000000000000000000000000000000000000",
        "nonce": "0xbe",
        "chainId": "0xa5bf",
        "feeToken": null,
        "calls": [],
        "keyType": null,
        "keyData": null
      },
      "additionalContracts": [],
      "isFixedGasLimit": false
    },
    {
      "hash": "0x8599bd6e2860e2aecf20fe83bd44052b1d8f3b354ce1c08385f300d11f1fc22e",
      "transactionType": "CALL",
      "contractName": null,
      "contractAddress": "0x46bcae2625157b562c974bb5a912dfcb811a234a",
      "function": "setListing(bytes32,string,uint256,uint256,bool)",
      "arguments": [
        "0x8edf6f47e89d05c0e21320161fda1fd1fabd0081a66c959691ea17102e39fb27",
        "jade",
        "25000000",
        "31536000",
        "true"
      ],
      "transaction": {
        "from": "0xc77ad4de7d179fffba417ca24c055d86af69f4bb",
        "to": "0x46bcae2625157b562c974bb5a912dfcb811a234a",
        "gas": "0xc1db4",
        "value": "0x0",
        "input": "0x2ea4dda98edf6f47e89d05c0e21320161fda1fd1fabd0081a66c959691ea17102e39fb2700000000000000000000000000000000000000000000000000000000000000a000000000000000000000000000000000000000000000000000000000017d78400000000000000000000000000000000000000000000000000000000001e13380000000000000000000000000000000000000000000000000000000000000000100000000000000000000000000000000000000000000000000000000000000046a61646500000000000000000000000000000000000000000000000000000000",
        "nonce": "0xbf",
        "chainId": "0xa5bf",
        "feeToken": null,
        "calls": [],
        "keyType": null,
        "keyData": null
      },
      "additionalContracts": [],
      "isFixedGasLimit": false
    },
    {
      "hash": "0xe6dcf6125b788d0fc028b48850bc37e1bdacfef838fb8ceecce1fbcd7ecd07c7",
      "transactionType": "CALL",
      "contractName": null,
      "contractAddress": "0x46bcae2625157b562c974bb5a912dfcb811a234a",
      "function": "setListing(bytes32,string,uint256,uint256,bool)",
      "arguments": [
        "0x8edf6f47e89d05c0e21320161fda1fd1fabd0081a66c959691ea17102e39fb27",
        "ruby",
        "25000000",
        "31536000",
        "true"
      ],
      "transaction": {
        "from": "0xc77ad4de7d179fffba417ca24c055d86af69f4bb",
        "to": "0x46bcae2625157b562c974bb5a912dfcb811a234a",
        "gas": "0xc1db4",
        "value": "0x0",
        "input": "0x2ea4dda98edf6f47e89d05c0e21320161fda1fd1fabd0081a66c959691ea17102e39fb2700000000000000000000000000000000000000000000000000000000000000a000000000000000000000000000000000000000000000000000000000017d78400000000000000000000000000000000000000000000000000000000001e13380000000000000000000000000000000000000000000000000000000000000000100000000000000000000000000000000000000000000000000000000000000047275627900000000000000000000000000000000000000000000000000000000",
        "nonce": "0xc0",
        "chainId": "0xa5bf",
        "feeToken": null,
        "calls": [],
        "keyType": null,
        "keyData": null
      },
      "additionalContracts": [],
      "isFixedGasLimit": false
    },
    {
      "hash": "0x15af924546924b0a52b4646c0881f6872f411de6192825b245acff5033f82db1",
      "transactionType": "CALL",
      "contractName": null,
      "contractAddress": "0x46bcae2625157b562c974bb5a912dfcb811a234a",
      "function": "setListing(bytes32,string,uint256,uint256,bool)",
      "arguments": [
        "0xace9c9c435cf933be3564cdbcf7b7e2faee63e4f39034849eacb82d13f32f02a",
        "king",
        "100000000",
        "31536000",
        "true"
      ],
      "transaction": {
        "from": "0xc77ad4de7d179fffba417ca24c055d86af69f4bb",
        "to": "0x46bcae2625157b562c974bb5a912dfcb811a234a",
        "gas": "0xc1db4",
        "value": "0x0",
        "input": "0x2ea4dda9ace9c9c435cf933be3564cdbcf7b7e2faee63e4f39034849eacb82d13f32f02a00000000000000000000000000000000000000000000000000000000000000a00000000000000000000000000000000000000000000000000000000005f5e1000000000000000000000000000000000000000000000000000000000001e13380000000000000000000000000000000000000000000000000000000000000000100000000000000000000000000000000000000000000000000000000000000046b696e6700000000000000000000000000000000000000000000000000000000",
        "nonce": "0xc1",
        "chainId": "0xa5bf",
        "feeToken": null,
        "calls": [],
        "keyType": null,
        "keyData": null
      },
      "additionalContracts": [],
      "isFixedGasLimit": false
    },
    {
      "hash": "0x41f26f88a140df6575bd54ca44ddd1255fa8e60f937b366c577b483752e2e02e",
      "transactionType": "CALL",
      "contractName": null,
      "contractAddress": "0x46bcae2625157b562c974bb5a912dfcb811a234a",
      "function": "setListing(bytes32,string,uint256,uint256,bool)",
      "arguments": [
        "0xace9c9c435cf933be3564cdbcf7b7e2faee63e4f39034849eacb82d13f32f02a",
        "queen",
        "100000000",
        "31536000",
        "true"
      ],
      "transaction": {
        "from": "0xc77ad4de7d179fffba417ca24c055d86af69f4bb",
        "to": "0x46bcae2625157b562c974bb5a912dfcb811a234a",
        "gas": "0xc1f0d",
        "value": "0x0",
        "input": "0x2ea4dda9ace9c9c435cf933be3564cdbcf7b7e2faee63e4f39034849eacb82d13f32f02a00000000000000000000000000000000000000000000000000000000000000a00000000000000000000000000000000000000000000000000000000005f5e1000000000000000000000000000000000000000000000000000000000001e1338000000000000000000000000000000000000000000000000000000000000000010000000000000000000000000000000000000000000000000000000000000005717565656e000000000000000000000000000000000000000000000000000000",
        "nonce": "0xc2",
        "chainId": "0xa5bf",
        "feeToken": null,
        "calls": [],
        "keyType": null,
        "keyData": null
      },
      "additionalContracts": [],
      "isFixedGasLimit": false
    },
    {
      "hash": "0x66f4bfd0c351da385e5686d384bc60c50d1bac7a7c6427a0199434bca3dbb1c8",
      "transactionType": "CALL",
      "contractName": null,
      "contractAddress": "0x46bcae2625157b562c974bb5a912dfcb811a234a",
      "function": "setListing(bytes32,string,uint256,uint256,bool)",
      "arguments": [
        "0xace9c9c435cf933be3564cdbcf7b7e2faee63e4f39034849eacb82d13f32f02a",
        "god",
        "100000000",
        "31536000",
        "true"
      ],
      "transaction": {
        "from": "0xc77ad4de7d179fffba417ca24c055d86af69f4bb",
        "to": "0x46bcae2625157b562c974bb5a912dfcb811a234a",
        "gas": "0xc1c5c",
        "value": "0x0",
        "input": "0x2ea4dda9ace9c9c435cf933be3564cdbcf7b7e2faee63e4f39034849eacb82d13f32f02a00000000000000000000000000000000000000000000000000000000000000a00000000000000000000000000000000000000000000000000000000005f5e1000000000000000000000000000000000000000000000000000000000001e1338000000000000000000000000000000000000000000000000000000000000000010000000000000000000000000000000000000000000000000000000000000003676f640000000000000000000000000000000000000000000000000000000000",
        "nonce": "0xc3",
        "chainId": "0xa5bf",
        "feeToken": null,
        "calls": [],
        "keyType": null,
        "keyData": null
      },
      "additionalContracts": [],
      "isFixedGasLimit": false
    },
    {
      "hash": "0xcaebdaa49fd2427f40da87c9e24a8a986431a3976b6cb6d68233eba6ba673cc5",
      "transactionType": "CALL",
      "contractName": null,
      "contractAddress": "0x46bcae2625157b562c974bb5a912dfcb811a234a",
      "function": "setListing(bytes32,string,uint256,uint256,bool)",
      "arguments": [
        "0xace9c9c435cf933be3564cdbcf7b7e2faee63e4f39034849eacb82d13f32f02a",
        "devil",
        "100000000",
        "31536000",
        "true"
      ],
      "transaction": {
        "from": "0xc77ad4de7d179fffba417ca24c055d86af69f4bb",
        "to": "0x46bcae2625157b562c974bb5a912dfcb811a234a",
        "gas": "0xc1f0d",
        "value": "0x0",
        "input": "0x2ea4dda9ace9c9c435cf933be3564cdbcf7b7e2faee63e4f39034849eacb82d13f32f02a00000000000000000000000000000000000000000000000000000000000000a00000000000000000000000000000000000000000000000000000000005f5e1000000000000000000000000000000000000000000000000000000000001e1338000000000000000000000000000000000000000000000000000000000000000010000000000000000000000000000000000000000000000000000000000000005646576696c000000000000000000000000000000000000000000000000000000",
        "nonce": "0xc4",
        "chainId": "0xa5bf",
        "feeToken": null,
        "calls": [],
        "keyType": null,
        "keyData": null
      },
      "additionalContracts": [],
      "isFixedGasLimit": false
    },
    {
      "hash": "0x89dbedcdd28b6907af2ccf1ca38182a3cd29cff0615885be826b705f97d3ae69",
      "transactionType": "CALL",
      "contractName": null,
      "contractAddress": "0x46bcae2625157b562c974bb5a912dfcb811a234a",
      "function": "setListing(bytes32,string,uint256,uint256,bool)",
      "arguments": [
        "0xace9c9c435cf933be3564cdbcf7b7e2faee63e4f39034849eacb82d13f32f02a",
        "pirate",
        "100000000",
        "31536000",
        "true"
      ],
      "transaction": {
        "from": "0xc77ad4de7d179fffba417ca24c055d86af69f4bb",
        "to": "0x46bcae2625157b562c974bb5a912dfcb811a234a",
        "gas": "0xc2066",
        "value": "0x0",
        "input": "0x2ea4dda9ace9c9c435cf933be3564cdbcf7b7e2faee63e4f39034849eacb82d13f32f02a00000000000000000000000000000000000000000000000000000000000000a00000000000000000000000000000000000000000000000000000000005f5e1000000000000000000000000000000000000000000000000000000000001e13380000000000000000000000000000000000000000000000000000000000000000100000000000000000000000000000000000000000000000000000000000000067069726174650000000000000000000000000000000000000000000000000000",
        "nonce": "0xc5",
        "chainId": "0xa5bf",
        "feeToken": null,
        "calls": [],
        "keyType": null,
        "keyData": null
      },
      "additionalContracts": [],
      "isFixedGasLimit": false
    },
    {
      "hash": "0x6b25a4af2715f7d4bfbdd180ce5fe4b458290237c9c02089bda8c4e5163b75e8",
      "transactionType": "CALL",
      "contractName": null,
      "contractAddress": "0x46bcae2625157b562c974bb5a912dfcb811a234a",
      "function": "setListing(bytes32,string,uint256,uint256,bool)",
      "arguments": [
        "0xace9c9c435cf933be3564cdbcf7b7e2faee63e4f39034849eacb82d13f32f02a",
        "heaven",
        "100000000",
        "31536000",
        "true"
      ],
      "transaction": {
        "from": "0xc77ad4de7d179fffba417ca24c055d86af69f4bb",
        "to": "0x46bcae2625157b562c974bb5a912dfcb811a234a",
        "gas": "0xc2066",
        "value": "0x0",
        "input": "0x2ea4dda9ace9c9c435cf933be3564cdbcf7b7e2faee63e4f39034849eacb82d13f32f02a00000000000000000000000000000000000000000000000000000000000000a00000000000000000000000000000000000000000000000000000000005f5e1000000000000000000000000000000000000000000000000000000000001e133800000000000000000000000000000000000000000000000000000000000000001000000000000000000000000000000000000000000000000000000000000000668656176656e0000000000000000000000000000000000000000000000000000",
        "nonce": "0xc6",
        "chainId": "0xa5bf",
        "feeToken": null,
        "calls": [],
        "keyType": null,
        "keyData": null
      },
      "additionalContracts": [],
      "isFixedGasLimit": false
    },
    {
      "hash": "0xdcba84d63194e55a914afea2ce0a8d52198da098c1a027d8a25a6a006a22797e",
      "transactionType": "CALL",
      "contractName": null,
      "contractAddress": "0x46bcae2625157b562c974bb5a912dfcb811a234a",
      "function": "setListing(bytes32,string,uint256,uint256,bool)",
      "arguments": [
        "0xace9c9c435cf933be3564cdbcf7b7e2faee63e4f39034849eacb82d13f32f02a",
        "love",
        "100000000",
        "31536000",
        "true"
      ],
      "transaction": {
        "from": "0xc77ad4de7d179fffba417ca24c055d86af69f4bb",
        "to": "0x46bcae2625157b562c974bb5a912dfcb811a234a",
        "gas": "0xc1db4",
        "value": "0x0",
        "input": "0x2ea4dda9ace9c9c435cf933be3564cdbcf7b7e2faee63e4f39034849eacb82d13f32f02a00000000000000000000000000000000000000000000000000000000000000a00000000000000000000000000000000000000000000000000000000005f5e1000000000000000000000000000000000000000000000000000000000001e13380000000000000000000000000000000000000000000000000000000000000000100000000000000000000000000000000000000000000000000000000000000046c6f766500000000000000000000000000000000000000000000000000000000",
        "nonce": "0xc7",
        "chainId": "0xa5bf",
        "feeToken": null,
        "calls": [],
        "keyType": null,
        "keyData": null
      },
      "additionalContracts": [],
      "isFixedGasLimit": false
    },
    {
      "hash": "0x32964d04b649568b4a1025aa0eeee686f72404e7bfa6c700b89b3e3824b0dd89",
      "transactionType": "CALL",
      "contractName": null,
      "contractAddress": "0x46bcae2625157b562c974bb5a912dfcb811a234a",
      "function": "setListing(bytes32,string,uint256,uint256,bool)",
      "arguments": [
        "0xace9c9c435cf933be3564cdbcf7b7e2faee63e4f39034849eacb82d13f32f02a",
        "moon",
        "100000000",
        "31536000",
        "true"
      ],
      "transaction": {
        "from": "0xc77ad4de7d179fffba417ca24c055d86af69f4bb",
        "to": "0x46bcae2625157b562c974bb5a912dfcb811a234a",
        "gas": "0xc1db4",
        "value": "0x0",
        "input": "0x2ea4dda9ace9c9c435cf933be3564cdbcf7b7e2faee63e4f39034849eacb82d13f32f02a00000000000000000000000000000000000000000000000000000000000000a00000000000000000000000000000000000000000000000000000000005f5e1000000000000000000000000000000000000000000000000000000000001e13380000000000000000000000000000000000000000000000000000000000000000100000000000000000000000000000000000000000000000000000000000000046d6f6f6e00000000000000000000000000000000000000000000000000000000",
        "nonce": "0xc8",
        "chainId": "0xa5bf",
        "feeToken": null,
        "calls": [],
        "keyType": null,
        "keyData": null
      },
      "additionalContracts": [],
      "isFixedGasLimit": false
    },
    {
      "hash": "0x6f83d4ab8c87f7b85e15110af0401cd25049873a03e35a80a49ff46779787ea0",
      "transactionType": "CALL",
      "contractName": null,
      "contractAddress": "0x46bcae2625157b562c974bb5a912dfcb811a234a",
      "function": "setListing(bytes32,string,uint256,uint256,bool)",
      "arguments": [
        "0xace9c9c435cf933be3564cdbcf7b7e2faee63e4f39034849eacb82d13f32f02a",
        "star",
        "100000000",
        "31536000",
        "true"
      ],
      "transaction": {
        "from": "0xc77ad4de7d179fffba417ca24c055d86af69f4bb",
        "to": "0x46bcae2625157b562c974bb5a912dfcb811a234a",
        "gas": "0xc1db4",
        "value": "0x0",
        "input": "0x2ea4dda9ace9c9c435cf933be3564cdbcf7b7e2faee63e4f39034849eacb82d13f32f02a00000000000000000000000000000000000000000000000000000000000000a00000000000000000000000000000000000000000000000000000000005f5e1000000000000000000000000000000000000000000000000000000000001e13380000000000000000000000000000000000000000000000000000000000000000100000000000000000000000000000000000000000000000000000000000000047374617200000000000000000000000000000000000000000000000000000000",
        "nonce": "0xc9",
        "chainId": "0xa5bf",
        "feeToken": null,
        "calls": [],
        "keyType": null,
        "keyData": null
      },
      "additionalContracts": [],
      "isFixedGasLimit": false
    },
    {
      "hash": "0x3c8d084c970e2ddd412a9305c3d28432d94ec8d16ef58943b19dbbd1f8c8c1ab",
      "transactionType": "CALL",
      "contractName": null,
      "contractAddress": "0x46bcae2625157b562c974bb5a912dfcb811a234a",
      "function": "setListing(bytes32,string,uint256,uint256,bool)",
      "arguments": [
        "0xace9c9c435cf933be3564cdbcf7b7e2faee63e4f39034849eacb82d13f32f02a",
        "angel",
        "100000000",
        "31536000",
        "true"
      ],
      "transaction": {
        "from": "0xc77ad4de7d179fffba417ca24c055d86af69f4bb",
        "to": "0x46bcae2625157b562c974bb5a912dfcb811a234a",
        "gas": "0xc1f0d",
        "value": "0x0",
        "input": "0x2ea4dda9ace9c9c435cf933be3564cdbcf7b7e2faee63e4f39034849eacb82d13f32f02a00000000000000000000000000000000000000000000000000000000000000a00000000000000000000000000000000000000000000000000000000005f5e1000000000000000000000000000000000000000000000000000000000001e1338000000000000000000000000000000000000000000000000000000000000000010000000000000000000000000000000000000000000000000000000000000005616e67656c000000000000000000000000000000000000000000000000000000",
        "nonce": "0xca",
        "chainId": "0xa5bf",
        "feeToken": null,
        "calls": [],
        "keyType": null,
        "keyData": null
      },
      "additionalContracts": [],
      "isFixedGasLimit": false
    },
    {
      "hash": "0x818057e4a4e386c518060a1a5b5a9a969168097e22f0e3f8ba0cf16308f3561b",
      "transactionType": "CALL",
      "contractName": null,
      "contractAddress": "0x46bcae2625157b562c974bb5a912dfcb811a234a",
      "function": "setListing(bytes32,string,uint256,uint256,bool)",
      "arguments": [
        "0xace9c9c435cf933be3564cdbcf7b7e2faee63e4f39034849eacb82d13f32f02a",
        "ace",
        "25000000",
        "31536000",
        "true"
      ],
      "transaction": {
        "from": "0xc77ad4de7d179fffba417ca24c055d86af69f4bb",
        "to": "0x46bcae2625157b562c974bb5a912dfcb811a234a",
        "gas": "0xc1c68",
        "value": "0x0",
        "input": "0x2ea4dda9ace9c9c435cf933be3564cdbcf7b7e2faee63e4f39034849eacb82d13f32f02a00000000000000000000000000000000000000000000000000000000000000a000000000000000000000000000000000000000000000000000000000017d78400000000000000000000000000000000000000000000000000000000001e13380000000000000000000000000000000000000000000000000000000000000000100000000000000000000000000000000000000000000000000000000000000036163650000000000000000000000000000000000000000000000000000000000",
        "nonce": "0xcb",
        "chainId": "0xa5bf",
        "feeToken": null,
        "calls": [],
        "keyType": null,
        "keyData": null
      },
      "additionalContracts": [],
      "isFixedGasLimit": false
    },
    {
      "hash": "0x32393c1aa0fa53b28754d0470004827fdb3801fe72a5ae797c55e203add14722",
      "transactionType": "CALL",
      "contractName": null,
      "contractAddress": "0x46bcae2625157b562c974bb5a912dfcb811a234a",
      "function": "setListing(bytes32,string,uint256,uint256,bool)",
      "arguments": [
        "0xace9c9c435cf933be3564cdbcf7b7e2faee63e4f39034849eacb82d13f32f02a",
        "zen",
        "25000000",
        "31536000",
        "true"
      ],
      "transaction": {
        "from": "0xc77ad4de7d179fffba417ca24c055d86af69f4bb",
        "to": "0x46bcae2625157b562c974bb5a912dfcb811a234a",
        "gas": "0xc1c68",
        "value": "0x0",
        "input": "0x2ea4dda9ace9c9c435cf933be3564cdbcf7b7e2faee63e4f39034849eacb82d13f32f02a00000000000000000000000000000000000000000000000000000000000000a000000000000000000000000000000000000000000000000000000000017d78400000000000000000000000000000000000000000000000000000000001e13380000000000000000000000000000000000000000000000000000000000000000100000000000000000000000000000000000000000000000000000000000000037a656e0000000000000000000000000000000000000000000000000000000000",
        "nonce": "0xcc",
        "chainId": "0xa5bf",
        "feeToken": null,
        "calls": [],
        "keyType": null,
        "keyData": null
      },
      "additionalContracts": [],
      "isFixedGasLimit": false
    },
    {
      "hash": "0xb7e81cdd24ca812b3acf1d30fb42d71a1d66afd1715c9cce97d393f2f05ab70c",
      "transactionType": "CALL",
      "contractName": null,
      "contractAddress": "0x46bcae2625157b562c974bb5a912dfcb811a234a",
      "function": "setListing(bytes32,string,uint256,uint256,bool)",
      "arguments": [
        "0xace9c9c435cf933be3564cdbcf7b7e2faee63e4f39034849eacb82d13f32f02a",
        "nova",
        "25000000",
        "31536000",
        "true"
      ],
      "transaction": {
        "from": "0xc77ad4de7d179fffba417ca24c055d86af69f4bb",
        "to": "0x46bcae2625157b562c974bb5a912dfcb811a234a",
        "gas": "0xc1dc0",
        "value": "0x0",
        "input": "0x2ea4dda9ace9c9c435cf933be3564cdbcf7b7e2faee63e4f39034849eacb82d13f32f02a00000000000000000000000000000000000000000000000000000000000000a000000000000000000000000000000000000000000000000000000000017d78400000000000000000000000000000000000000000000000000000000001e13380000000000000000000000000000000000000000000000000000000000000000100000000000000000000000000000000000000000000000000000000000000046e6f766100000000000000000000000000000000000000000000000000000000",
        "nonce": "0xcd",
        "chainId": "0xa5bf",
        "feeToken": null,
        "calls": [],
        "keyType": null,
        "keyData": null
      },
      "additionalContracts": [],
      "isFixedGasLimit": false
    },
    {
      "hash": "0x1e362e6e15647b3a9b3ad96d505264fe9d3c98070c5ea572d9396e501f16713f",
      "transactionType": "CALL",
      "contractName": null,
      "contractAddress": "0x46bcae2625157b562c974bb5a912dfcb811a234a",
      "function": "setListing(bytes32,string,uint256,uint256,bool)",
      "arguments": [
        "0xace9c9c435cf933be3564cdbcf7b7e2faee63e4f39034849eacb82d13f32f02a",
        "wolf",
        "25000000",
        "31536000",
        "true"
      ],
      "transaction": {
        "from": "0xc77ad4de7d179fffba417ca24c055d86af69f4bb",
        "to": "0x46bcae2625157b562c974bb5a912dfcb811a234a",
        "gas": "0xc1dc0",
        "value": "0x0",
        "input": "0x2ea4dda9ace9c9c435cf933be3564cdbcf7b7e2faee63e4f39034849eacb82d13f32f02a00000000000000000000000000000000000000000000000000000000000000a000000000000000000000000000000000000000000000000000000000017d78400000000000000000000000000000000000000000000000000000000001e1338000000000000000000000000000000000000000000000000000000000000000010000000000000000000000000000000000000000000000000000000000000004776f6c6600000000000000000000000000000000000000000000000000000000",
        "nonce": "0xce",
        "chainId": "0xa5bf",
        "feeToken": null,
        "calls": [],
        "keyType": null,
        "keyData": null
      },
      "additionalContracts": [],
      "isFixedGasLimit": false
    },
    {
      "hash": "0x0b6e1eee16a97a6e02afe43e7cd4a6aac71920b659f79edbf4a6a272304f7abe",
      "transactionType": "CALL",
      "contractName": null,
      "contractAddress": "0x46bcae2625157b562c974bb5a912dfcb811a234a",
      "function": "setListing(bytes32,string,uint256,uint256,bool)",
      "arguments": [
        "0xace9c9c435cf933be3564cdbcf7b7e2faee63e4f39034849eacb82d13f32f02a",
        "punk",
        "25000000",
        "31536000",
        "true"
      ],
      "transaction": {
        "from": "0xc77ad4de7d179fffba417ca24c055d86af69f4bb",
        "to": "0x46bcae2625157b562c974bb5a912dfcb811a234a",
        "gas": "0xc1dc0",
        "value": "0x0",
        "input": "0x2ea4dda9ace9c9c435cf933be3564cdbcf7b7e2faee63e4f39034849eacb82d13f32f02a00000000000000000000000000000000000000000000000000000000000000a000000000000000000000000000000000000000000000000000000000017d78400000000000000000000000000000000000000000000000000000000001e133800000000000000000000000000000000000000000000000000000000000000001000000000000000000000000000000000000000000000000000000000000000470756e6b00000000000000000000000000000000000000000000000000000000",
        "nonce": "0xcf",
        "chainId": "0xa5bf",
        "feeToken": null,
        "calls": [],
        "keyType": null,
        "keyData": null
      },
      "additionalContracts": [],
      "isFixedGasLimit": false
    },
    {
      "hash": "0x734df4d0b1dd960b856ca972585addeb04c426d5444d49f05cba664dcd6555a7",
      "transactionType": "CALL",
      "contractName": null,
      "contractAddress": "0x46bcae2625157b562c974bb5a912dfcb811a234a",
      "function": "setListing(bytes32,string,uint256,uint256,bool)",
      "arguments": [
        "0xace9c9c435cf933be3564cdbcf7b7e2faee63e4f39034849eacb82d13f32f02a",
        "dope",
        "25000000",
        "31536000",
        "true"
      ],
      "transaction": {
        "from": "0xc77ad4de7d179fffba417ca24c055d86af69f4bb",
        "to": "0x46bcae2625157b562c974bb5a912dfcb811a234a",
        "gas": "0xc1dc0",
        "value": "0x0",
        "input": "0x2ea4dda9ace9c9c435cf933be3564cdbcf7b7e2faee63e4f39034849eacb82d13f32f02a00000000000000000000000000000000000000000000000000000000000000a000000000000000000000000000000000000000000000000000000000017d78400000000000000000000000000000000000000000000000000000000001e1338000000000000000000000000000000000000000000000000000000000000000010000000000000000000000000000000000000000000000000000000000000004646f706500000000000000000000000000000000000000000000000000000000",
        "nonce": "0xd0",
        "chainId": "0xa5bf",
        "feeToken": null,
        "calls": [],
        "keyType": null,
        "keyData": null
      },
      "additionalContracts": [],
      "isFixedGasLimit": false
    },
    {
      "hash": "0xff929ee8f23fce65ebf82669be6cd30e40e5e85237887198299e70fea39c43ee",
      "transactionType": "CALL",
      "contractName": null,
      "contractAddress": "0x46bcae2625157b562c974bb5a912dfcb811a234a",
      "function": "setListing(bytes32,string,uint256,uint256,bool)",
      "arguments": [
        "0xace9c9c435cf933be3564cdbcf7b7e2faee63e4f39034849eacb82d13f32f02a",
        "fire",
        "25000000",
        "31536000",
        "true"
      ],
      "transaction": {
        "from": "0xc77ad4de7d179fffba417ca24c055d86af69f4bb",
        "to": "0x46bcae2625157b562c974bb5a912dfcb811a234a",
        "gas": "0xc1dc0",
        "value": "0x0",
        "input": "0x2ea4dda9ace9c9c435cf933be3564cdbcf7b7e2faee63e4f39034849eacb82d13f32f02a00000000000000000000000000000000000000000000000000000000000000a000000000000000000000000000000000000000000000000000000000017d78400000000000000000000000000000000000000000000000000000000001e13380000000000000000000000000000000000000000000000000000000000000000100000000000000000000000000000000000000000000000000000000000000046669726500000000000000000000000000000000000000000000000000000000",
        "nonce": "0xd1",
        "chainId": "0xa5bf",
        "feeToken": null,
        "calls": [],
        "keyType": null,
        "keyData": null
      },
      "additionalContracts": [],
      "isFixedGasLimit": false
    },
    {
      "hash": "0x47c6735ae6178f89d08e4161c15f7f75fc69c1787c1c349531acb462f4cab999",
      "transactionType": "CALL",
      "contractName": null,
      "contractAddress": "0x46bcae2625157b562c974bb5a912dfcb811a234a",
      "function": "setListing(bytes32,string,uint256,uint256,bool)",
      "arguments": [
        "0xace9c9c435cf933be3564cdbcf7b7e2faee63e4f39034849eacb82d13f32f02a",
        "gold",
        "25000000",
        "31536000",
        "true"
      ],
      "transaction": {
        "from": "0xc77ad4de7d179fffba417ca24c055d86af69f4bb",
        "to": "0x46bcae2625157b562c974bb5a912dfcb811a234a",
        "gas": "0xc1dc0",
        "value": "0x0",
        "input": "0x2ea4dda9ace9c9c435cf933be3564cdbcf7b7e2faee63e4f39034849eacb82d13f32f02a00000000000000000000000000000000000000000000000000000000000000a000000000000000000000000000000000000000000000000000000000017d78400000000000000000000000000000000000000000000000000000000001e1338000000000000000000000000000000000000000000000000000000000000000010000000000000000000000000000000000000000000000000000000000000004676f6c6400000000000000000000000000000000000000000000000000000000",
        "nonce": "0xd2",
        "chainId": "0xa5bf",
        "feeToken": null,
        "calls": [],
        "keyType": null,
        "keyData": null
      },
      "additionalContracts": [],
      "isFixedGasLimit": false
    },
    {
      "hash": "0xce7d7743d2a7be769063e3047ed5a10008c801345182854cd11031d150976650",
      "transactionType": "CALL",
      "contractName": null,
      "contractAddress": "0x46bcae2625157b562c974bb5a912dfcb811a234a",
      "function": "setListing(bytes32,string,uint256,uint256,bool)",
      "arguments": [
        "0xace9c9c435cf933be3564cdbcf7b7e2faee63e4f39034849eacb82d13f32f02a",
        "jade",
        "25000000",
        "31536000",
        "true"
      ],
      "transaction": {
        "from": "0xc77ad4de7d179fffba417ca24c055d86af69f4bb",
        "to": "0x46bcae2625157b562c974bb5a912dfcb811a234a",
        "gas": "0xc1dc0",
        "value": "0x0",
        "input": "0x2ea4dda9ace9c9c435cf933be3564cdbcf7b7e2faee63e4f39034849eacb82d13f32f02a00000000000000000000000000000000000000000000000000000000000000a000000000000000000000000000000000000000000000000000000000017d78400000000000000000000000000000000000000000000000000000000001e13380000000000000000000000000000000000000000000000000000000000000000100000000000000000000000000000000000000000000000000000000000000046a61646500000000000000000000000000000000000000000000000000000000",
        "nonce": "0xd3",
        "chainId": "0xa5bf",
        "feeToken": null,
        "calls": [],
        "keyType": null,
        "keyData": null
      },
      "additionalContracts": [],
      "isFixedGasLimit": false
    },
    {
      "hash": "0xbb60a4e25550dfdda655560faaf767897dd71e708353e843181bba53f0ee7a73",
      "transactionType": "CALL",
      "contractName": null,
      "contractAddress": "0x46bcae2625157b562c974bb5a912dfcb811a234a",
      "function": "setListing(bytes32,string,uint256,uint256,bool)",
      "arguments": [
        "0xace9c9c435cf933be3564cdbcf7b7e2faee63e4f39034849eacb82d13f32f02a",
        "ruby",
        "25000000",
        "31536000",
        "true"
      ],
      "transaction": {
        "from": "0xc77ad4de7d179fffba417ca24c055d86af69f4bb",
        "to": "0x46bcae2625157b562c974bb5a912dfcb811a234a",
        "gas": "0xc1dc0",
        "value": "0x0",
        "input": "0x2ea4dda9ace9c9c435cf933be3564cdbcf7b7e2faee63e4f39034849eacb82d13f32f02a00000000000000000000000000000000000000000000000000000000000000a000000000000000000000000000000000000000000000000000000000017d78400000000000000000000000000000000000000000000000000000000001e13380000000000000000000000000000000000000000000000000000000000000000100000000000000000000000000000000000000000000000000000000000000047275627900000000000000000000000000000000000000000000000000000000",
        "nonce": "0xd4",
        "chainId": "0xa5bf",
        "feeToken": null,
        "calls": [],
        "keyType": null,
        "keyData": null
      },
      "additionalContracts": [],
      "isFixedGasLimit": false
    }
  ],
  "receipts": [
    {
      "type": "0x2",
      "status": "0x1",
      "cumulativeGasUsed": "0x1238f8c",
      "logs": [
        {
          "address": "0x46bcae2625157b562c974bb5a912dfcb811a234a",
          "topics": [
            "0x9e0fd7b7de37ad5d7110476296cb5fb624ca41122ef85cb019eef238259b27ec",
            "0x8edf6f47e89d05c0e21320161fda1fd1fabd0081a66c959691ea17102e39fb27",
            "0x8f77c8c6fd421d301c5f91568d08c991f5a87c5f04cc3f0a4176f9e9b14c3854"
          ],
          "data": "0x0000000000000000000000000000000000000000000000000000000005f5e1000000000000000000000000000000000000000000000000000000000001e133800000000000000000000000000000000000000000000000000000000000000001",
          "blockHash": "0x2827cab9f7eecb818e27a8f8d1f3c5cf3104901baa9f086d47108c82973c7277",
          "blockNumber": "0x54d4fa",
          "blockTimestamp": "0x69971945",
          "transactionHash": "0x0f40602aee120ab03b05eceb82f16a89a36bb41ede21103300e8bd7a36155158",
          "transactionIndex": "0x48",
          "logIndex": "0x91",
          "removed": false
        },
        {
          "address": "0x20c0000000000000000000000000000000000000",
          "topics": [
            "0xddf252ad1be2c89b69c2b068fc378daa952ba7f163c4a11628f55a4df523b3ef",
            "0x000000000000000000000000c77ad4de7d179fffba417ca24c055d86af69f4bb",
            "0x000000000000000000000000feec000000000000000000000000000000000000"
          ],
          "data": "0x0000000000000000000000000000000000000000000000000000000000003d75",
          "blockHash": "0x2827cab9f7eecb818e27a8f8d1f3c5cf3104901baa9f086d47108c82973c7277",
          "blockNumber": "0x54d4fa",
          "blockTimestamp": "0x69971945",
          "transactionHash": "0x0f40602aee120ab03b05eceb82f16a89a36bb41ede21103300e8bd7a36155158",
          "transactionIndex": "0x48",
          "logIndex": "0x92",
          "removed": false
        }
      ],
      "logsBloom": "0x00000800000000000000000020002000000000000000000000000000000000400000000000000000000000000108000000000800000000000000000000000000000004000000000000000008000000000000000000000000000000020400000000000000040000000000001000000000000000000000000000000010000000000000000000000000000000000020000000000000800000000000000000000080000020000000000000000000000000000000000000000000000000000000000000100002000000000000000000000000004000000000000000000000000000000000000004000000000000000000000000000040000000000020000000000000",
      "transactionHash": "0x0f40602aee120ab03b05eceb82f16a89a36bb41ede21103300e8bd7a36155158",
      "transactionIndex": "0x48",
      "blockHash": "0x2827cab9f7eecb818e27a8f8d1f3c5cf3104901baa9f086d47108c82973c7277",
      "blockNumber": "0x54d4fa",
      "gasUsed": "0xc00b6",
      "effectiveGasPrice": "0x4a817c802",
      "from": "0xc77ad4de7d179fffba417ca24c055d86af69f4bb",
      "to": "0x46bcae2625157b562c974bb5a912dfcb811a234a",
      "contractAddress": null,
      "feeToken": "0x20c0000000000000000000000000000000000000",
      "feePayer": "0xc77ad4de7d179fffba417ca24c055d86af69f4bb"
    },
    {
      "type": "0x2",
      "status": "0x1",
      "cumulativeGasUsed": "0x17ad656",
      "logs": [
        {
          "address": "0x46bcae2625157b562c974bb5a912dfcb811a234a",
          "topics": [
            "0x9e0fd7b7de37ad5d7110476296cb5fb624ca41122ef85cb019eef238259b27ec",
            "0x8edf6f47e89d05c0e21320161fda1fd1fabd0081a66c959691ea17102e39fb27",
            "0xf6a2574f8130a5385a107da69d90fd5f193de1a157d8c2a8da98cb1ea42522c3"
          ],
          "data": "0x0000000000000000000000000000000000000000000000000000000005f5e1000000000000000000000000000000000000000000000000000000000001e133800000000000000000000000000000000000000000000000000000000000000001",
          "blockHash": "0x6123f81e1d368b966738ffdf63ce99ceb1572a23a51fb2b86c85bebc537a4f9f",
          "blockNumber": "0x54d4fc",
          "blockTimestamp": "0x69971947",
          "transactionHash": "0x09d4dd8ce6b951d26e3caae1756f175a76288f27f266815b75e04b8231854176",
          "transactionIndex": "0x47",
          "logIndex": "0x98",
          "removed": false
        },
        {
          "address": "0x20c0000000000000000000000000000000000000",
          "topics": [
            "0xddf252ad1be2c89b69c2b068fc378daa952ba7f163c4a11628f55a4df523b3ef",
            "0x000000000000000000000000c77ad4de7d179fffba417ca24c055d86af69f4bb",
            "0x000000000000000000000000feec000000000000000000000000000000000000"
          ],
          "data": "0x0000000000000000000000000000000000000000000000000000000000003d7c",
          "blockHash": "0x6123f81e1d368b966738ffdf63ce99ceb1572a23a51fb2b86c85bebc537a4f9f",
          "blockNumber": "0x54d4fc",
          "blockTimestamp": "0x69971947",
          "transactionHash": "0x09d4dd8ce6b951d26e3caae1756f175a76288f27f266815b75e04b8231854176",
          "transactionIndex": "0x47",
          "logIndex": "0x99",
          "removed": false
        }
      ],
      "logsBloom": "0x00000800000000000000000020002000000000000000000000000000000000400000000000000000000000400100000000000800000800000000000000000000000004000000000000000008000000000000000000000000000000020400000000000000040000000000000000000000000000000000000000000010000000000000000000000000000000000020000000000000800000000000000000000000000020000000000000000000000000000000000000000000000000000000000000140002000000000000000000000000004000000000000000000000000000000000000004000000000000000000000000000040000000000020000000000000",
      "transactionHash": "0x09d4dd8ce6b951d26e3caae1756f175a76288f27f266815b75e04b8231854176",
      "transactionIndex": "0x47",
      "blockHash": "0x6123f81e1d368b966738ffdf63ce99ceb1572a23a51fb2b86c85bebc537a4f9f",
      "blockNumber": "0x54d4fc",
      "gasUsed": "0xc020c",
      "effectiveGasPrice": "0x4a817c802",
      "from": "0xc77ad4de7d179fffba417ca24c055d86af69f4bb",
      "to": "0x46bcae2625157b562c974bb5a912dfcb811a234a",
      "contractAddress": null,
      "feeToken": "0x20c0000000000000000000000000000000000000",
      "feePayer": "0xc77ad4de7d179fffba417ca24c055d86af69f4bb"
    },
    {
      "type": "0x2",
      "status": "0x1",
      "cumulativeGasUsed": "0x24fbcb4",
      "logs": [
        {
          "address": "0x46bcae2625157b562c974bb5a912dfcb811a234a",
          "topics": [
            "0x9e0fd7b7de37ad5d7110476296cb5fb624ca41122ef85cb019eef238259b27ec",
            "0x8edf6f47e89d05c0e21320161fda1fd1fabd0081a66c959691ea17102e39fb27",
            "0x536861bd889e384b0b0b95235b722d4faa778a260da1033ca00f620dbbb1709a"
          ],
          "data": "0x0000000000000000000000000000000000000000000000000000000005f5e1000000000000000000000000000000000000000000000000000000000001e133800000000000000000000000000000000000000000000000000000000000000001",
          "blockHash": "0xae72ca4b1ff74d233a4849c251f1cb37596868a91fcca373071f94c7062cbe51",
          "blockNumber": "0x54d4fe",
          "blockTimestamp": "0x69971948",
          "transactionHash": "0x4f870edb2e29cac2ee6bab01a86ab096f8fd71d9c4302925099b3577a1247a9d",
          "transactionIndex": "0x8c",
          "logIndex": "0x121",
          "removed": false
        },
        {
          "address": "0x20c0000000000000000000000000000000000000",
          "topics": [
            "0xddf252ad1be2c89b69c2b068fc378daa952ba7f163c4a11628f55a4df523b3ef",
            "0x000000000000000000000000c77ad4de7d179fffba417ca24c055d86af69f4bb",
            "0x000000000000000000000000feec000000000000000000000000000000000000"
          ],
          "data": "0x0000000000000000000000000000000000000000000000000000000000003d6e",
          "blockHash": "0xae72ca4b1ff74d233a4849c251f1cb37596868a91fcca373071f94c7062cbe51",
          "blockNumber": "0x54d4fe",
          "blockTimestamp": "0x69971948",
          "transactionHash": "0x4f870edb2e29cac2ee6bab01a86ab096f8fd71d9c4302925099b3577a1247a9d",
          "transactionIndex": "0x8c",
          "logIndex": "0x122",
          "removed": false
        }
      ],
      "logsBloom": "0x00080800000000000000000020002000000000000000000000000000000000400000000000000000000000000100000000000800000000000000000000000000000004000000000000000008000000000000000000000000000000020400000000000000040000000000000000000000000800000000000000000010000000000000000000000000000000000020000000000000800000000000000000000000000020000000000000000000000000000000000000000000000000000000000000100002000000000000000000000000004000000000000000000000000000000000000004000000000000000000000000000040000000000020000020000000",
      "transactionHash": "0x4f870edb2e29cac2ee6bab01a86ab096f8fd71d9c4302925099b3577a1247a9d",
      "transactionIndex": "0x8c",
      "blockHash": "0xae72ca4b1ff74d233a4849c251f1cb37596868a91fcca373071f94c7062cbe51",
      "blockNumber": "0x54d4fe",
      "gasUsed": "0xbff60",
      "effectiveGasPrice": "0x4a817c802",
      "from": "0xc77ad4de7d179fffba417ca24c055d86af69f4bb",
      "to": "0x46bcae2625157b562c974bb5a912dfcb811a234a",
      "contractAddress": null,
      "feeToken": "0x20c0000000000000000000000000000000000000",
      "feePayer": "0xc77ad4de7d179fffba417ca24c055d86af69f4bb"
    },
    {
      "type": "0x2",
      "status": "0x1",
      "cumulativeGasUsed": "0xef7830",
      "logs": [
        {
          "address": "0x46bcae2625157b562c974bb5a912dfcb811a234a",
          "topics": [
            "0x9e0fd7b7de37ad5d7110476296cb5fb624ca41122ef85cb019eef238259b27ec",
            "0x8edf6f47e89d05c0e21320161fda1fd1fabd0081a66c959691ea17102e39fb27",
            "0xcd3a10258f4c15d033b6373f725da8d1215be02f83656e11f550b3374fbe2bb5"
          ],
          "data": "0x0000000000000000000000000000000000000000000000000000000005f5e1000000000000000000000000000000000000000000000000000000000001e133800000000000000000000000000000000000000000000000000000000000000001",
          "blockHash": "0x91365f3c53e462e996ea2b383f9e4e33769c02287c3d90ff3685f68171b09bdf",
          "blockNumber": "0x54d505",
          "blockTimestamp": "0x6997194d",
          "transactionHash": "0xae383fa5c74317491d7926005cceb0dd1a413d35ae031d3cde7746b0ffda6056",
          "transactionIndex": "0x47",
          "logIndex": "0x98",
          "removed": false
        },
        {
          "address": "0x20c0000000000000000000000000000000000000",
          "topics": [
            "0xddf252ad1be2c89b69c2b068fc378daa952ba7f163c4a11628f55a4df523b3ef",
            "0x000000000000000000000000c77ad4de7d179fffba417ca24c055d86af69f4bb",
            "0x000000000000000000000000feec000000000000000000000000000000000000"
          ],
          "data": "0x0000000000000000000000000000000000000000000000000000000000003d7c",
          "blockHash": "0x91365f3c53e462e996ea2b383f9e4e33769c02287c3d90ff3685f68171b09bdf",
          "blockNumber": "0x54d505",
          "blockTimestamp": "0x6997194d",
          "transactionHash": "0xae383fa5c74317491d7926005cceb0dd1a413d35ae031d3cde7746b0ffda6056",
          "transactionIndex": "0x47",
          "logIndex": "0x99",
          "removed": false
        }
      ],
      "logsBloom": "0x00000800000000000000000020002000000000000000000000000000000000400000000000000000000000000100000000000800000800000000100000000000000004000000000000000008000000000000000000000000000000020400008000000000040000000000000000000000000000000000000000000010000000000000000000000000000000000020000000000000800000000000000000000000000020000000000000000000000000000000000000000000000000000000000000100002000000000000000000000000004000000000000000000000000000000000000004000000000000000000000000000040000000000020000000000000",
      "transactionHash": "0xae383fa5c74317491d7926005cceb0dd1a413d35ae031d3cde7746b0ffda6056",
      "transactionIndex": "0x47",
      "blockHash": "0x91365f3c53e462e996ea2b383f9e4e33769c02287c3d90ff3685f68171b09bdf",
      "blockNumber": "0x54d505",
      "gasUsed": "0xc020c",
      "effectiveGasPrice": "0x4a817c802",
      "from": "0xc77ad4de7d179fffba417ca24c055d86af69f4bb",
      "to": "0x46bcae2625157b562c974bb5a912dfcb811a234a",
      "contractAddress": null,
      "feeToken": "0x20c0000000000000000000000000000000000000",
      "feePayer": "0xc77ad4de7d179fffba417ca24c055d86af69f4bb"
    },
    {
      "type": "0x2",
      "status": "0x1",
      "cumulativeGasUsed": "0x53dd52",
      "logs": [
        {
          "address": "0x46bcae2625157b562c974bb5a912dfcb811a234a",
          "topics": [
            "0x9e0fd7b7de37ad5d7110476296cb5fb624ca41122ef85cb019eef238259b27ec",
            "0x8edf6f47e89d05c0e21320161fda1fd1fabd0081a66c959691ea17102e39fb27",
            "0x0c3fd321f4034b150c9566252db6f2e0394944320559ea8b2cf14a3e1e873024"
          ],
          "data": "0x0000000000000000000000000000000000000000000000000000000005f5e1000000000000000000000000000000000000000000000000000000000001e133800000000000000000000000000000000000000000000000000000000000000001",
          "blockHash": "0xc3efa7e35c5517f90028449a9f1b1a18be584182d50254444d74d5efd23981db",
          "blockNumber": "0x54d508",
          "blockTimestamp": "0x6997194f",
          "transactionHash": "0x3ee8a9730312b07ecf519f445e8710b0d7a9bd7503ba9866693c4eb5d8eefada",
          "transactionIndex": "0x25",
          "logIndex": "0x4c",
          "removed": false
        },
        {
          "address": "0x20c0000000000000000000000000000000000000",
          "topics": [
            "0xddf252ad1be2c89b69c2b068fc378daa952ba7f163c4a11628f55a4df523b3ef",
            "0x000000000000000000000000c77ad4de7d179fffba417ca24c055d86af69f4bb",
            "0x000000000000000000000000feec000000000000000000000000000000000000"
          ],
          "data": "0x0000000000000000000000000000000000000000000000000000000000003d82",
          "blockHash": "0xc3efa7e35c5517f90028449a9f1b1a18be584182d50254444d74d5efd23981db",
          "blockNumber": "0x54d508",
          "blockTimestamp": "0x6997194f",
          "transactionHash": "0x3ee8a9730312b07ecf519f445e8710b0d7a9bd7503ba9866693c4eb5d8eefada",
          "transactionIndex": "0x25",
          "logIndex": "0x4d",
          "removed": false
        }
      ],
      "logsBloom": "0x00000800000000000000000020002000000000000000000000000000000000400200000000000000000000000100000000000800000000000000000040000000000004000000000000000008000000000000000000000000000000020400000000000000040000000000000000000000000000000000000000000010000000000000000000000000000000000020000000000000800000000000000000000000000020000000000000000000000000000000000000000000000000000000000000100002000000000000000000000000004000000000000000000000000000000000000004000000000000000000100000000040000000000020000000000000",
      "transactionHash": "0x3ee8a9730312b07ecf519f445e8710b0d7a9bd7503ba9866693c4eb5d8eefada",
      "transactionIndex": "0x25",
      "blockHash": "0xc3efa7e35c5517f90028449a9f1b1a18be584182d50254444d74d5efd23981db",
      "blockNumber": "0x54d508",
      "gasUsed": "0xc0362",
      "effectiveGasPrice": "0x4a817c802",
      "from": "0xc77ad4de7d179fffba417ca24c055d86af69f4bb",
      "to": "0x46bcae2625157b562c974bb5a912dfcb811a234a",
      "contractAddress": null,
      "feeToken": "0x20c0000000000000000000000000000000000000",
      "feePayer": "0xc77ad4de7d179fffba417ca24c055d86af69f4bb"
    },
    {
      "type": "0x2",
      "status": "0x1",
      "cumulativeGasUsed": "0xe89945",
      "logs": [
        {
          "address": "0x46bcae2625157b562c974bb5a912dfcb811a234a",
          "topics": [
            "0x9e0fd7b7de37ad5d7110476296cb5fb624ca41122ef85cb019eef238259b27ec",
            "0x8edf6f47e89d05c0e21320161fda1fd1fabd0081a66c959691ea17102e39fb27",
            "0x6d9ef456bf9817b37be2dccf1f8c6fefd89f6a4a7a8e0f226001466eac0023be"
          ],
          "data": "0x0000000000000000000000000000000000000000000000000000000005f5e1000000000000000000000000000000000000000000000000000000000001e133800000000000000000000000000000000000000000000000000000000000000001",
          "blockHash": "0x27e50ed9a496d0b126436cc87075f432f9ee6fbd9984e9332bab8ef81f899b85",
          "blockNumber": "0x54d50c",
          "blockTimestamp": "0x69971952",
          "transactionHash": "0xda57dd04380be48a253ddfcbe090edbbcaaae928a54e96cc5e922e799b7ab27b",
          "transactionIndex": "0x4c",
          "logIndex": "0x8c",
          "removed": false
        },
        {
          "address": "0x20c0000000000000000000000000000000000000",
          "topics": [
            "0xddf252ad1be2c89b69c2b068fc378daa952ba7f163c4a11628f55a4df523b3ef",
            "0x000000000000000000000000c77ad4de7d179fffba417ca24c055d86af69f4bb",
            "0x000000000000000000000000feec000000000000000000000000000000000000"
          ],
          "data": "0x0000000000000000000000000000000000000000000000000000000000003d82",
          "blockHash": "0x27e50ed9a496d0b126436cc87075f432f9ee6fbd9984e9332bab8ef81f899b85",
          "blockNumber": "0x54d50c",
          "blockTimestamp": "0x69971952",
          "transactionHash": "0xda57dd04380be48a253ddfcbe090edbbcaaae928a54e96cc5e922e799b7ab27b",
          "transactionIndex": "0x4c",
          "logIndex": "0x8d",
          "removed": false
        }
      ],
      "logsBloom": "0x00000800000000000000000020002000000000000000000000000000000000400000000000000000000000000100000000000800000000000000000000000000000004000000000000000008000000000000000000000000000000020400000000000000040000000000000000000000000000000000000000000011000000000000000000000000000000000020000000000000800000000000000000000000000020000000000000000000000000000000000000000000000000000000000000100002000000000000000000000000004000000000000000000000000000000000000004000000000002000000800000000040000000000020000000000000",
      "transactionHash": "0xda57dd04380be48a253ddfcbe090edbbcaaae928a54e96cc5e922e799b7ab27b",
      "transactionIndex": "0x4c",
      "blockHash": "0x27e50ed9a496d0b126436cc87075f432f9ee6fbd9984e9332bab8ef81f899b85",
      "blockNumber": "0x54d50c",
      "gasUsed": "0xc0362",
      "effectiveGasPrice": "0x4a817c802",
      "from": "0xc77ad4de7d179fffba417ca24c055d86af69f4bb",
      "to": "0x46bcae2625157b562c974bb5a912dfcb811a234a",
      "contractAddress": null,
      "feeToken": "0x20c0000000000000000000000000000000000000",
      "feePayer": "0xc77ad4de7d179fffba417ca24c055d86af69f4bb"
    },
    {
      "type": "0x2",
      "status": "0x1",
      "cumulativeGasUsed": "0xf281c4",
      "logs": [
        {
          "address": "0x46bcae2625157b562c974bb5a912dfcb811a234a",
          "topics": [
            "0x9e0fd7b7de37ad5d7110476296cb5fb624ca41122ef85cb019eef238259b27ec",
            "0x8edf6f47e89d05c0e21320161fda1fd1fabd0081a66c959691ea17102e39fb27",
            "0xd952fe0740d9d14011fc8ead3ab7de3c739d3aa93ce9254c10b0134d80d26a30"
          ],
          "data": "0x0000000000000000000000000000000000000000000000000000000005f5e1000000000000000000000000000000000000000000000000000000000001e133800000000000000000000000000000000000000000000000000000000000000001",
          "blockHash": "0x83227a3098c2af3fe02b0d8707f8584bedaa3104da577f1c7c5a502f4fbd2f6c",
          "blockNumber": "0x54d513",
          "blockTimestamp": "0x69971957",
          "transactionHash": "0xe2b3468823131ab228a40a5f85d726fbc854bf085cee115d81ca7fb1342f96b2",
          "transactionIndex": "0x33",
          "logIndex": "0x71",
          "removed": false
        },
        {
          "address": "0x20c0000000000000000000000000000000000000",
          "topics": [
            "0xddf252ad1be2c89b69c2b068fc378daa952ba7f163c4a11628f55a4df523b3ef",
            "0x000000000000000000000000c77ad4de7d179fffba417ca24c055d86af69f4bb",
            "0x000000000000000000000000feec000000000000000000000000000000000000"
          ],
          "data": "0x0000000000000000000000000000000000000000000000000000000000003d75",
          "blockHash": "0x83227a3098c2af3fe02b0d8707f8584bedaa3104da577f1c7c5a502f4fbd2f6c",
          "blockNumber": "0x54d513",
          "blockTimestamp": "0x69971957",
          "transactionHash": "0xe2b3468823131ab228a40a5f85d726fbc854bf085cee115d81ca7fb1342f96b2",
          "transactionIndex": "0x33",
          "logIndex": "0x72",
          "removed": false
        }
      ],
      "logsBloom": "0x00000800000000000000000020002000000000000000000000000000000000400000000000000000000000000100000000000800000000000000000000000000000004000000000000000008000000000000800000000000000000020400000000000000040000000000000000000000000000000000000000000010000000000000000000000000000000000120000000000000800000000000000000000000000020000000000000000000000000000000000000000000000000000000000000100002000000000000000000000000004000000000000000000000000000000000000004000000000000000000000000000040000080000020000000000000",
      "transactionHash": "0xe2b3468823131ab228a40a5f85d726fbc854bf085cee115d81ca7fb1342f96b2",
      "transactionIndex": "0x33",
      "blockHash": "0x83227a3098c2af3fe02b0d8707f8584bedaa3104da577f1c7c5a502f4fbd2f6c",
      "blockNumber": "0x54d513",
      "gasUsed": "0xc00b6",
      "effectiveGasPrice": "0x4a817c802",
      "from": "0xc77ad4de7d179fffba417ca24c055d86af69f4bb",
      "to": "0x46bcae2625157b562c974bb5a912dfcb811a234a",
      "contractAddress": null,
      "feeToken": "0x20c0000000000000000000000000000000000000",
      "feePayer": "0xc77ad4de7d179fffba417ca24c055d86af69f4bb"
    },
    {
      "type": "0x2",
      "status": "0x1",
      "cumulativeGasUsed": "0x586aef",
      "logs": [
        {
          "address": "0x46bcae2625157b562c974bb5a912dfcb811a234a",
          "topics": [
            "0x9e0fd7b7de37ad5d7110476296cb5fb624ca41122ef85cb019eef238259b27ec",
            "0x8edf6f47e89d05c0e21320161fda1fd1fabd0081a66c959691ea17102e39fb27",
            "0x6bd5921979df8775e28d201d8f84d011f187d53c9ef8172ca1c37c59d422bff2"
          ],
          "data": "0x0000000000000000000000000000000000000000000000000000000005f5e1000000000000000000000000000000000000000000000000000000000001e133800000000000000000000000000000000000000000000000000000000000000001",
          "blockHash": "0xa471cf8b583151130decbd3cfdbf5a88b7ff542bcb188f28894ff576b9e683e0",
          "blockNumber": "0x54d518",
          "blockTimestamp": "0x6997195a",
          "transactionHash": "0xf5a2bbd5e384e0e2aba4f2036e3a6cce2bf935808a0671c5685906feba13125b",
          "transactionIndex": "0x35",
          "logIndex": "0x59",
          "removed": false
        },
        {
          "address": "0x20c0000000000000000000000000000000000000",
          "topics": [
            "0xddf252ad1be2c89b69c2b068fc378daa952ba7f163c4a11628f55a4df523b3ef",
            "0x000000000000000000000000c77ad4de7d179fffba417ca24c055d86af69f4bb",
            "0x000000000000000000000000feec000000000000000000000000000000000000"
          ],
          "data": "0x0000000000000000000000000000000000000000000000000000000000003d75",
          "blockHash": "0xa471cf8b583151130decbd3cfdbf5a88b7ff542bcb188f28894ff576b9e683e0",
          "blockNumber": "0x54d518",
          "blockTimestamp": "0x6997195a",
          "transactionHash": "0xf5a2bbd5e384e0e2aba4f2036e3a6cce2bf935808a0671c5685906feba13125b",
          "transactionIndex": "0x35",
          "logIndex": "0x5a",
          "removed": false
        }
      ],
      "logsBloom": "0x00000800000000000000000020002000000000000000000000000000000000400000000000000000000000004100000000000800000000000000000000000000000004000000000000000008000000000000000000000000000000020400000000000000040000000000000000000000000000000000000000000010000000000000000000000000000000000020000000000000800001000000000000000000000020000000000000000000000000000000000000000200000000000000000000100002000000000000000000000000004000000000000000000000000000000000000004000000000000000000000000000040000000000020000000000000",
      "transactionHash": "0xf5a2bbd5e384e0e2aba4f2036e3a6cce2bf935808a0671c5685906feba13125b",
      "transactionIndex": "0x35",
      "blockHash": "0xa471cf8b583151130decbd3cfdbf5a88b7ff542bcb188f28894ff576b9e683e0",
      "blockNumber": "0x54d518",
      "gasUsed": "0xc00b6",
      "effectiveGasPrice": "0x4a817c802",
      "from": "0xc77ad4de7d179fffba417ca24c055d86af69f4bb",
      "to": "0x46bcae2625157b562c974bb5a912dfcb811a234a",
      "contractAddress": null,
      "feeToken": "0x20c0000000000000000000000000000000000000",
      "feePayer": "0xc77ad4de7d179fffba417ca24c055d86af69f4bb"
    },
    {
      "type": "0x2",
      "status": "0x1",
      "cumulativeGasUsed": "0x78f037",
      "logs": [
        {
          "address": "0x46bcae2625157b562c974bb5a912dfcb811a234a",
          "topics": [
            "0x9e0fd7b7de37ad5d7110476296cb5fb624ca41122ef85cb019eef238259b27ec",
            "0x8edf6f47e89d05c0e21320161fda1fd1fabd0081a66c959691ea17102e39fb27",
            "0x2632c52c2eb190dc088fe4ce54053b1ccbff2c3c5988f7480ef74b97394dbd9a"
          ],
          "data": "0x0000000000000000000000000000000000000000000000000000000005f5e1000000000000000000000000000000000000000000000000000000000001e133800000000000000000000000000000000000000000000000000000000000000001",
          "blockHash": "0x41dc6b0c4a56e20c1ad4540c89e799384bad94a4140d0df37305a7ea364af09c",
          "blockNumber": "0x54d51c",
          "blockTimestamp": "0x6997195d",
          "transactionHash": "0xab7f66a025f0619836a93b27ee3b9be95a394aa6c916cb256d9a8d05bd4a5674",
          "transactionIndex": "0x32",
          "logIndex": "0x57",
          "removed": false
        },
        {
          "address": "0x20c0000000000000000000000000000000000000",
          "topics": [
            "0xddf252ad1be2c89b69c2b068fc378daa952ba7f163c4a11628f55a4df523b3ef",
            "0x000000000000000000000000c77ad4de7d179fffba417ca24c055d86af69f4bb",
            "0x000000000000000000000000feec000000000000000000000000000000000000"
          ],
          "data": "0x0000000000000000000000000000000000000000000000000000000000003d75",
          "blockHash": "0x41dc6b0c4a56e20c1ad4540c89e799384bad94a4140d0df37305a7ea364af09c",
          "blockNumber": "0x54d51c",
          "blockTimestamp": "0x6997195d",
          "transactionHash": "0xab7f66a025f0619836a93b27ee3b9be95a394aa6c916cb256d9a8d05bd4a5674",
          "transactionIndex": "0x32",
          "logIndex": "0x58",
          "removed": false
        }
      ],
      "logsBloom": "0x00000800000000000000000020002000000000000000000000000000000000400000000080000000004000000100000000000800000000000000000000000000000004000000000000000008000000000000000000000000000000020400000000000000040000000000000000000000000000000000000000000010000000000000000000000000000000000020000000000000800000000000000000000000000020000000000000000000000000000000000000000000000000000001000000100002000000000000000000000000004000000000000000000000000000000000000004000000000000000000000000000040000000000020000000000000",
      "transactionHash": "0xab7f66a025f0619836a93b27ee3b9be95a394aa6c916cb256d9a8d05bd4a5674",
      "transactionIndex": "0x32",
      "blockHash": "0x41dc6b0c4a56e20c1ad4540c89e799384bad94a4140d0df37305a7ea364af09c",
      "blockNumber": "0x54d51c",
      "gasUsed": "0xc00b6",
      "effectiveGasPrice": "0x4a817c802",
      "from": "0xc77ad4de7d179fffba417ca24c055d86af69f4bb",
      "to": "0x46bcae2625157b562c974bb5a912dfcb811a234a",
      "contractAddress": null,
      "feeToken": "0x20c0000000000000000000000000000000000000",
      "feePayer": "0xc77ad4de7d179fffba417ca24c055d86af69f4bb"
    },
    {
      "type": "0x2",
      "status": "0x1",
      "cumulativeGasUsed": "0x1223eaa",
      "logs": [
        {
          "address": "0x46bcae2625157b562c974bb5a912dfcb811a234a",
          "topics": [
            "0x9e0fd7b7de37ad5d7110476296cb5fb624ca41122ef85cb019eef238259b27ec",
            "0x8edf6f47e89d05c0e21320161fda1fd1fabd0081a66c959691ea17102e39fb27",
            "0xd860e3f5f752dd317289a914ceea5886a841192a7f2f9fcdd3a0f662c070e91a"
          ],
          "data": "0x0000000000000000000000000000000000000000000000000000000005f5e1000000000000000000000000000000000000000000000000000000000001e133800000000000000000000000000000000000000000000000000000000000000001",
          "blockHash": "0xb7203e0f6ea0ea4ef9b2e700b87e06ea5a54617f2bffd82392afd2209ca5849a",
          "blockNumber": "0x54d51f",
          "blockTimestamp": "0x6997195f",
          "transactionHash": "0xe903d2bdbc26c290a40a4873d251fe67b643d1395743bba116123b17e25d87e0",
          "transactionIndex": "0x44",
          "logIndex": "0x91",
          "removed": false
        },
        {
          "address": "0x20c0000000000000000000000000000000000000",
          "topics": [
            "0xddf252ad1be2c89b69c2b068fc378daa952ba7f163c4a11628f55a4df523b3ef",
            "0x000000000000000000000000c77ad4de7d179fffba417ca24c055d86af69f4bb",
            "0x000000000000000000000000feec000000000000000000000000000000000000"
          ],
          "data": "0x0000000000000000000000000000000000000000000000000000000000003d7c",
          "blockHash": "0xb7203e0f6ea0ea4ef9b2e700b87e06ea5a54617f2bffd82392afd2209ca5849a",
          "blockNumber": "0x54d51f",
          "blockTimestamp": "0x6997195f",
          "transactionHash": "0xe903d2bdbc26c290a40a4873d251fe67b643d1395743bba116123b17e25d87e0",
          "transactionIndex": "0x44",
          "logIndex": "0x92",
          "removed": false
        }
      ],
      "logsBloom": "0x00000800000000000000000020002000000000000000000000000000000010400000000000000000000000000100000000000800000000000000000000000000000004000000000000000008000000000000000000000000000000020400000000000000040000000000000000000000000000000000000000000010000000000000000400000000000000000020000000000000800000000000000000000000000020000000000000000000000000000000000000000000000004000000000000100002000000000000000000000000004000000000000000000000000000000000000004000000000000000000000000000040000000000020000000000000",
      "transactionHash": "0xe903d2bdbc26c290a40a4873d251fe67b643d1395743bba116123b17e25d87e0",
      "transactionIndex": "0x44",
      "blockHash": "0xb7203e0f6ea0ea4ef9b2e700b87e06ea5a54617f2bffd82392afd2209ca5849a",
      "blockNumber": "0x54d51f",
      "gasUsed": "0xc020c",
      "effectiveGasPrice": "0x4a817c802",
      "from": "0xc77ad4de7d179fffba417ca24c055d86af69f4bb",
      "to": "0x46bcae2625157b562c974bb5a912dfcb811a234a",
      "contractAddress": null,
      "feeToken": "0x20c0000000000000000000000000000000000000",
      "feePayer": "0xc77ad4de7d179fffba417ca24c055d86af69f4bb"
    },
    {
      "type": "0x2",
      "status": "0x1",
      "cumulativeGasUsed": "0x140083a",
      "logs": [
        {
          "address": "0x46bcae2625157b562c974bb5a912dfcb811a234a",
          "topics": [
            "0x9e0fd7b7de37ad5d7110476296cb5fb624ca41122ef85cb019eef238259b27ec",
            "0x8edf6f47e89d05c0e21320161fda1fd1fabd0081a66c959691ea17102e39fb27",
            "0xec08d0974e93cdef3f47cd5c5a287a626489bcf52960b0af6a2544794055c85b"
          ],
          "data": "0x00000000000000000000000000000000000000000000000000000000017d78400000000000000000000000000000000000000000000000000000000001e133800000000000000000000000000000000000000000000000000000000000000001",
          "blockHash": "0xa83e866e6a741ebbb2a9dad88c27e4717d524949cf8bc34e4a1748dede506881",
          "blockNumber": "0x54d521",
          "blockTimestamp": "0x69971960",
          "transactionHash": "0xf086c984d66d03ecc1c65ea357e1bf1b4e7d01bd5ded0c79a1a3eb16b708bd0a",
          "transactionIndex": "0x48",
          "logIndex": "0x95",
          "removed": false
        },
        {
          "address": "0x20c0000000000000000000000000000000000000",
          "topics": [
            "0xddf252ad1be2c89b69c2b068fc378daa952ba7f163c4a11628f55a4df523b3ef",
            "0x000000000000000000000000c77ad4de7d179fffba417ca24c055d86af69f4bb",
            "0x000000000000000000000000feec000000000000000000000000000000000000"
          ],
          "data": "0x0000000000000000000000000000000000000000000000000000000000003d6e",
          "blockHash": "0xa83e866e6a741ebbb2a9dad88c27e4717d524949cf8bc34e4a1748dede506881",
          "blockNumber": "0x54d521",
          "blockTimestamp": "0x69971960",
          "transactionHash": "0xf086c984d66d03ecc1c65ea357e1bf1b4e7d01bd5ded0c79a1a3eb16b708bd0a",
          "transactionIndex": "0x48",
          "logIndex": "0x96",
          "removed": false
        }
      ],
      "logsBloom": "0x00000800000000000000000020002000000000000000000000000000000000400000000000000000000000000100000000000800000000000000001000000000000004000000000000000008000000000000000000000000000000020400000000000000040000000000000000000000000000000000000000000010000000000000000000000000000000000020000004000000800000000000000000000000000020000000000000000000000000000000000000000000000000000000000000100002000000000000000000000000004000000000000000000000000000000000100004000000000000000000000000000040000000000020000000000000",
      "transactionHash": "0xf086c984d66d03ecc1c65ea357e1bf1b4e7d01bd5ded0c79a1a3eb16b708bd0a",
      "transactionIndex": "0x48",
      "blockHash": "0xa83e866e6a741ebbb2a9dad88c27e4717d524949cf8bc34e4a1748dede506881",
      "blockNumber": "0x54d521",
      "gasUsed": "0xbff6c",
      "effectiveGasPrice": "0x4a817c802",
      "from": "0xc77ad4de7d179fffba417ca24c055d86af69f4bb",
      "to": "0x46bcae2625157b562c974bb5a912dfcb811a234a",
      "contractAddress": null,
      "feeToken": "0x20c0000000000000000000000000000000000000",
      "feePayer": "0xc77ad4de7d179fffba417ca24c055d86af69f4bb"
    },
    {
      "type": "0x2",
      "status": "0x1",
      "cumulativeGasUsed": "0xe9a41f",
      "logs": [
        {
          "address": "0x46bcae2625157b562c974bb5a912dfcb811a234a",
          "topics": [
            "0x9e0fd7b7de37ad5d7110476296cb5fb624ca41122ef85cb019eef238259b27ec",
            "0x8edf6f47e89d05c0e21320161fda1fd1fabd0081a66c959691ea17102e39fb27",
            "0x934224c6bd94d513bbffb24896491c7e64cce714cd6504d94caccb3208c60f65"
          ],
          "data": "0x00000000000000000000000000000000000000000000000000000000017d78400000000000000000000000000000000000000000000000000000000001e133800000000000000000000000000000000000000000000000000000000000000001",
          "blockHash": "0x3cd5c453c4cf8ce3cea4837e9ea23f7a8d55281c18320530905c40fea9bb24d0",
          "blockNumber": "0x54d523",
          "blockTimestamp": "0x69971962",
          "transactionHash": "0xcc8094c60f6f6daa76fb580f20871b3708f251b306193c3aee21557225a4b986",
          "transactionIndex": "0x50",
          "logIndex": "0x9e",
          "removed": false
        },
        {
          "address": "0x20c0000000000000000000000000000000000000",
          "topics": [
            "0xddf252ad1be2c89b69c2b068fc378daa952ba7f163c4a11628f55a4df523b3ef",
            "0x000000000000000000000000c77ad4de7d179fffba417ca24c055d86af69f4bb",
            "0x000000000000000000000000feec000000000000000000000000000000000000"
          ],
          "data": "0x0000000000000000000000000000000000000000000000000000000000003d6e",
          "blockHash": "0x3cd5c453c4cf8ce3cea4837e9ea23f7a8d55281c18320530905c40fea9bb24d0",
          "blockNumber": "0x54d523",
          "blockTimestamp": "0x69971962",
          "transactionHash": "0xcc8094c60f6f6daa76fb580f20871b3708f251b306193c3aee21557225a4b986",
          "transactionIndex": "0x50",
          "logIndex": "0x9f",
          "removed": false
        }
      ],
      "logsBloom": "0x00000800000000000000000020002000000000000000000000000000000000400000000000000000000000000100000000000800000000000000000000000000000004000000000000000008000000000000000000000000000000020400000000000000040000000010000000000000000000000000000000000010000000000000000000000000000000000020000000004000800000000000000000000000000020000000000000000000000000000000000000000000000000000000000000100002080000000000000000000000004000000000000000000000000000000000000004000000000000000000000000000040000000000020000000000000",
      "transactionHash": "0xcc8094c60f6f6daa76fb580f20871b3708f251b306193c3aee21557225a4b986",
      "transactionIndex": "0x50",
      "blockHash": "0x3cd5c453c4cf8ce3cea4837e9ea23f7a8d55281c18320530905c40fea9bb24d0",
      "blockNumber": "0x54d523",
      "gasUsed": "0xbff6c",
      "effectiveGasPrice": "0x4a817c802",
      "from": "0xc77ad4de7d179fffba417ca24c055d86af69f4bb",
      "to": "0x46bcae2625157b562c974bb5a912dfcb811a234a",
      "contractAddress": null,
      "feeToken": "0x20c0000000000000000000000000000000000000",
      "feePayer": "0xc77ad4de7d179fffba417ca24c055d86af69f4bb"
    },
    {
      "type": "0x2",
      "status": "0x1",
      "cumulativeGasUsed": "0x562210",
      "logs": [
        {
          "address": "0x46bcae2625157b562c974bb5a912dfcb811a234a",
          "topics": [
            "0x9e0fd7b7de37ad5d7110476296cb5fb624ca41122ef85cb019eef238259b27ec",
            "0x8edf6f47e89d05c0e21320161fda1fd1fabd0081a66c959691ea17102e39fb27",
            "0xc90e7e9184dce6e0d7fff2e19e72ffa35430aca54bd634ada091bef2d2bb0635"
          ],
          "data": "0x00000000000000000000000000000000000000000000000000000000017d78400000000000000000000000000000000000000000000000000000000001e133800000000000000000000000000000000000000000000000000000000000000001",
          "blockHash": "0x55fd5a3d45ab621d9b1f1be34ff94537d5c553796fa4eb07f61151ab153665d6",
          "blockNumber": "0x54d529",
          "blockTimestamp": "0x69971966",
          "transactionHash": "0x8a106d1eaf11ffc11898ca126867c69d4f0becbb21eccf2703e50d42668bd410",
          "transactionIndex": "0x24",
          "logIndex": "0x40",
          "removed": false
        },
        {
          "address": "0x20c0000000000000000000000000000000000000",
          "topics": [
            "0xddf252ad1be2c89b69c2b068fc378daa952ba7f163c4a11628f55a4df523b3ef",
            "0x000000000000000000000000c77ad4de7d179fffba417ca24c055d86af69f4bb",
            "0x000000000000000000000000feec000000000000000000000000000000000000"
          ],
          "data": "0x0000000000000000000000000000000000000000000000000000000000003d75",
          "blockHash": "0x55fd5a3d45ab621d9b1f1be34ff94537d5c553796fa4eb07f61151ab153665d6",
          "blockNumber": "0x54d529",
          "blockTimestamp": "0x69971966",
          "transactionHash": "0x8a106d1eaf11ffc11898ca126867c69d4f0becbb21eccf2703e50d42668bd410",
          "transactionIndex": "0x24",
          "logIndex": "0x41",
          "removed": false
        }
      ],
      "logsBloom": "0x00000800000000000000000020002000000000000100000000000000000000400000000000000000000000000100000000000800000000000000000000000000000004000000000000000008000000000000000000000000000000020400000000000000040000000000004000000000000000000000000000000010000000000000000000000000000000000020000000000000800000000000000000000000000020000000000000000000000000000000000000000000000000000000000000100002000000000000000000000000004000000000000000000400000000000000000004000000000000000000000000000040000000000020000000000000",
      "transactionHash": "0x8a106d1eaf11ffc11898ca126867c69d4f0becbb21eccf2703e50d42668bd410",
      "transactionIndex": "0x24",
      "blockHash": "0x55fd5a3d45ab621d9b1f1be34ff94537d5c553796fa4eb07f61151ab153665d6",
      "blockNumber": "0x54d529",
      "gasUsed": "0xc00c2",
      "effectiveGasPrice": "0x4a817c802",
      "from": "0xc77ad4de7d179fffba417ca24c055d86af69f4bb",
      "to": "0x46bcae2625157b562c974bb5a912dfcb811a234a",
      "contractAddress": null,
      "feeToken": "0x20c0000000000000000000000000000000000000",
      "feePayer": "0xc77ad4de7d179fffba417ca24c055d86af69f4bb"
    },
    {
      "type": "0x2",
      "status": "0x1",
      "cumulativeGasUsed": "0x83ad2d",
      "logs": [
        {
          "address": "0x46bcae2625157b562c974bb5a912dfcb811a234a",
          "topics": [
            "0x9e0fd7b7de37ad5d7110476296cb5fb624ca41122ef85cb019eef238259b27ec",
            "0x8edf6f47e89d05c0e21320161fda1fd1fabd0081a66c959691ea17102e39fb27",
            "0x0a24b3696fc1b44815c836b1f503c906711422771b26bccb4db6dd315f759b2e"
          ],
          "data": "0x00000000000000000000000000000000000000000000000000000000017d78400000000000000000000000000000000000000000000000000000000001e133800000000000000000000000000000000000000000000000000000000000000001",
          "blockHash": "0x520aa20dad7d37dc03fec9cf5622e2817de79ca9fdfb5acf7db8accbd4ba2196",
          "blockNumber": "0x54d52e",
          "blockTimestamp": "0x69971969",
          "transactionHash": "0x0924aef5a2923d21527b2bba4425444e69b673792938ad37517a98fdbd1a2ccd",
          "transactionIndex": "0x42",
          "logIndex": "0x7c",
          "removed": false
        },
        {
          "address": "0x20c0000000000000000000000000000000000000",
          "topics": [
            "0xddf252ad1be2c89b69c2b068fc378daa952ba7f163c4a11628f55a4df523b3ef",
            "0x000000000000000000000000c77ad4de7d179fffba417ca24c055d86af69f4bb",
            "0x000000000000000000000000feec000000000000000000000000000000000000"
          ],
          "data": "0x0000000000000000000000000000000000000000000000000000000000003d75",
          "blockHash": "0x520aa20dad7d37dc03fec9cf5622e2817de79ca9fdfb5acf7db8accbd4ba2196",
          "blockNumber": "0x54d52e",
          "blockTimestamp": "0x69971969",
          "transactionHash": "0x0924aef5a2923d21527b2bba4425444e69b673792938ad37517a98fdbd1a2ccd",
          "transactionIndex": "0x42",
          "logIndex": "0x7d",
          "removed": false
        }
      ],
      "logsBloom": "0x00000800000000000000000020002000000000000000000000000000000000400000000000000000000000000100000000000800000000000000000000000000000004000000000000000008000000000000000000000000000000020400000000000000040000008000000000000000000000000000000000000012000000000000000000000000000000000020000000000000800000000000000000000000000020010000000000000000000000000000000000000000000000000000000000100002000000000000000000000000004000000000000000000000000000000000000004000000000000000000000000000040000000000020000000000000",
      "transactionHash": "0x0924aef5a2923d21527b2bba4425444e69b673792938ad37517a98fdbd1a2ccd",
      "transactionIndex": "0x42",
      "blockHash": "0x520aa20dad7d37dc03fec9cf5622e2817de79ca9fdfb5acf7db8accbd4ba2196",
      "blockNumber": "0x54d52e",
      "gasUsed": "0xc00c2",
      "effectiveGasPrice": "0x4a817c802",
      "from": "0xc77ad4de7d179fffba417ca24c055d86af69f4bb",
      "to": "0x46bcae2625157b562c974bb5a912dfcb811a234a",
      "contractAddress": null,
      "feeToken": "0x20c0000000000000000000000000000000000000",
      "feePayer": "0xc77ad4de7d179fffba417ca24c055d86af69f4bb"
    },
    {
      "type": "0x2",
      "status": "0x1",
      "cumulativeGasUsed": "0xcf57cd",
      "logs": [
        {
          "address": "0x46bcae2625157b562c974bb5a912dfcb811a234a",
          "topics": [
            "0x9e0fd7b7de37ad5d7110476296cb5fb624ca41122ef85cb019eef238259b27ec",
            "0x8edf6f47e89d05c0e21320161fda1fd1fabd0081a66c959691ea17102e39fb27",
            "0x4c71ce6ba2ee0cfaa5acee977e8e67e2cd9b456dcdf1ab291519d32de27f4ece"
          ],
          "data": "0x00000000000000000000000000000000000000000000000000000000017d78400000000000000000000000000000000000000000000000000000000001e133800000000000000000000000000000000000000000000000000000000000000001",
          "blockHash": "0xcf89ea9f6d9624129627c5c0e97c675df9e5b2934549515668766c60a354c9f5",
          "blockNumber": "0x54d532",
          "blockTimestamp": "0x6997196c",
          "transactionHash": "0xd1d5bb6c11f2ed65682898826c1be1666c302595a661c9ee6445fcc8c345a5d5",
          "transactionIndex": "0x2b",
          "logIndex": "0x59",
          "removed": false
        },
        {
          "address": "0x20c0000000000000000000000000000000000000",
          "topics": [
            "0xddf252ad1be2c89b69c2b068fc378daa952ba7f163c4a11628f55a4df523b3ef",
            "0x000000000000000000000000c77ad4de7d179fffba417ca24c055d86af69f4bb",
            "0x000000000000000000000000feec000000000000000000000000000000000000"
          ],
          "data": "0x0000000000000000000000000000000000000000000000000000000000003d75",
          "blockHash": "0xcf89ea9f6d9624129627c5c0e97c675df9e5b2934549515668766c60a354c9f5",
          "blockNumber": "0x54d532",
          "blockTimestamp": "0x6997196c",
          "transactionHash": "0xd1d5bb6c11f2ed65682898826c1be1666c302595a661c9ee6445fcc8c345a5d5",
          "transactionIndex": "0x2b",
          "logIndex": "0x5a",
          "removed": false
        }
      ],
      "logsBloom": "0x00000800000000000000000020002000000000002000000000000000000000400000000000000000000000000100000000000800000000000000000000000000000004000000000000000008000000000000000000000000000000020400000000000000040000000000000000000000000000000000000000000010000000000000000000000000040000000020000000000000800000000000000000000000000020000000000000000000000000000000000000000000000000000000000000100002000000000000000000000000004000000000000000000000000010000000000004000000000000000000000000000040000000000020000000000000",
      "transactionHash": "0xd1d5bb6c11f2ed65682898826c1be1666c302595a661c9ee6445fcc8c345a5d5",
      "transactionIndex": "0x2b",
      "blockHash": "0xcf89ea9f6d9624129627c5c0e97c675df9e5b2934549515668766c60a354c9f5",
      "blockNumber": "0x54d532",
      "gasUsed": "0xc00c2",
      "effectiveGasPrice": "0x4a817c802",
      "from": "0xc77ad4de7d179fffba417ca24c055d86af69f4bb",
      "to": "0x46bcae2625157b562c974bb5a912dfcb811a234a",
      "contractAddress": null,
      "feeToken": "0x20c0000000000000000000000000000000000000",
      "feePayer": "0xc77ad4de7d179fffba417ca24c055d86af69f4bb"
    },
    {
      "type": "0x2",
      "status": "0x1",
      "cumulativeGasUsed": "0x9a9abc",
      "logs": [
        {
          "address": "0x46bcae2625157b562c974bb5a912dfcb811a234a",
          "topics": [
            "0x9e0fd7b7de37ad5d7110476296cb5fb624ca41122ef85cb019eef238259b27ec",
            "0x8edf6f47e89d05c0e21320161fda1fd1fabd0081a66c959691ea17102e39fb27",
            "0x1e39b0d04949e939b238bdc2c38f5acb52d2d9b05d8de70f345245e398e6f171"
          ],
          "data": "0x00000000000000000000000000000000000000000000000000000000017d78400000000000000000000000000000000000000000000000000000000001e133800000000000000000000000000000000000000000000000000000000000000001",
          "blockHash": "0x2f46a3268e5684cb5be527ad387b7342a9d00b86a874dd55dac571f983e6518f",
          "blockNumber": "0x54d537",
          "blockTimestamp": "0x6997196f",
          "transactionHash": "0x34b7ee26199141b00896ba6a1b3fd3398f95ccc13e1ea2dd3e18044237ae87f1",
          "transactionIndex": "0x3b",
          "logIndex": "0x69",
          "removed": false
        },
        {
          "address": "0x20c0000000000000000000000000000000000000",
          "topics": [
            "0xddf252ad1be2c89b69c2b068fc378daa952ba7f163c4a11628f55a4df523b3ef",
            "0x000000000000000000000000c77ad4de7d179fffba417ca24c055d86af69f4bb",
            "0x000000000000000000000000feec000000000000000000000000000000000000"
          ],
          "data": "0x0000000000000000000000000000000000000000000000000000000000003d75",
          "blockHash": "0x2f46a3268e5684cb5be527ad387b7342a9d00b86a874dd55dac571f983e6518f",
          "blockNumber": "0x54d537",
          "blockTimestamp": "0x6997196f",
          "transactionHash": "0x34b7ee26199141b00896ba6a1b3fd3398f95ccc13e1ea2dd3e18044237ae87f1",
          "transactionIndex": "0x3b",
          "logIndex": "0x6a",
          "removed": false
        }
      ],
      "logsBloom": "0x00000800000000000000000020002000000000000000000000000000000000400000000000000000000000000100000000000800000000000000000000000000000004000000000000000008000000000000000000000000000000020400000000000000040000000000000000000000000000000000000000000010000000000000000000000000000000000020000000000000800000000000000000000000000020000000000000000000000000000000000000000000000000000000000000100002004000000000000000000000004000000040000000000000000000000000000004000010000000000000000000000040000000000020000000000000",
      "transactionHash": "0x34b7ee26199141b00896ba6a1b3fd3398f95ccc13e1ea2dd3e18044237ae87f1",
      "transactionIndex": "0x3b",
      "blockHash": "0x2f46a3268e5684cb5be527ad387b7342a9d00b86a874dd55dac571f983e6518f",
      "blockNumber": "0x54d537",
      "gasUsed": "0xc00c2",
      "effectiveGasPrice": "0x4a817c802",
      "from": "0xc77ad4de7d179fffba417ca24c055d86af69f4bb",
      "to": "0x46bcae2625157b562c974bb5a912dfcb811a234a",
      "contractAddress": null,
      "feeToken": "0x20c0000000000000000000000000000000000000",
      "feePayer": "0xc77ad4de7d179fffba417ca24c055d86af69f4bb"
    },
    {
      "type": "0x2",
      "status": "0x1",
      "cumulativeGasUsed": "0x1172e78",
      "logs": [
        {
          "address": "0x46bcae2625157b562c974bb5a912dfcb811a234a",
          "topics": [
            "0x9e0fd7b7de37ad5d7110476296cb5fb624ca41122ef85cb019eef238259b27ec",
            "0x8edf6f47e89d05c0e21320161fda1fd1fabd0081a66c959691ea17102e39fb27",
            "0x3f631d566f4db432ca320a6932a0a30ed043d45d49871ce3d6daa3d8ea615ee4"
          ],
          "data": "0x00000000000000000000000000000000000000000000000000000000017d78400000000000000000000000000000000000000000000000000000000001e133800000000000000000000000000000000000000000000000000000000000000001",
          "blockHash": "0xef27f8d98c1f6445b88bff456e1566119e0a08482093e97b978baa12169547be",
          "blockNumber": "0x54d53b",
          "blockTimestamp": "0x69971972",
          "transactionHash": "0x5d59261d24c0128fd4dedc2b8eee4c0d5c3059efc123c06ce817c5314e171fb2",
          "transactionIndex": "0x5a",
          "logIndex": "0xab",
          "removed": false
        },
        {
          "address": "0x20c0000000000000000000000000000000000000",
          "topics": [
            "0xddf252ad1be2c89b69c2b068fc378daa952ba7f163c4a11628f55a4df523b3ef",
            "0x000000000000000000000000c77ad4de7d179fffba417ca24c055d86af69f4bb",
            "0x000000000000000000000000feec000000000000000000000000000000000000"
          ],
          "data": "0x0000000000000000000000000000000000000000000000000000000000003d75",
          "blockHash": "0xef27f8d98c1f6445b88bff456e1566119e0a08482093e97b978baa12169547be",
          "blockNumber": "0x54d53b",
          "blockTimestamp": "0x69971972",
          "transactionHash": "0x5d59261d24c0128fd4dedc2b8eee4c0d5c3059efc123c06ce817c5314e171fb2",
          "transactionIndex": "0x5a",
          "logIndex": "0xac",
          "removed": false
        }
      ],
      "logsBloom": "0x00000800000000000000000020002000000000000000000000000000000000400000000000000000000000000100000000000800000000000000000000000000000004000000000000000008000000000000000000000002000000020400000000000000140000000000000000000000000000000000000000000010000000000000000000000000000000000020000000000000800000000000000000000000000020000000000000000000000000000000000000000000000000000000000000100002000000000000020000000000004000000000000000000000000000000000000004000000000000000000000000000040000000000020000000000000",
      "transactionHash": "0x5d59261d24c0128fd4dedc2b8eee4c0d5c3059efc123c06ce817c5314e171fb2",
      "transactionIndex": "0x5a",
      "blockHash": "0xef27f8d98c1f6445b88bff456e1566119e0a08482093e97b978baa12169547be",
      "blockNumber": "0x54d53b",
      "gasUsed": "0xc00c2",
      "effectiveGasPrice": "0x4a817c802",
      "from": "0xc77ad4de7d179fffba417ca24c055d86af69f4bb",
      "to": "0x46bcae2625157b562c974bb5a912dfcb811a234a",
      "contractAddress": null,
      "feeToken": "0x20c0000000000000000000000000000000000000",
      "feePayer": "0xc77ad4de7d179fffba417ca24c055d86af69f4bb"
    },
    {
      "type": "0x2",
      "status": "0x1",
      "cumulativeGasUsed": "0x78a4fd",
      "logs": [
        {
          "address": "0x46bcae2625157b562c974bb5a912dfcb811a234a",
          "topics": [
            "0x9e0fd7b7de37ad5d7110476296cb5fb624ca41122ef85cb019eef238259b27ec",
            "0x8edf6f47e89d05c0e21320161fda1fd1fabd0081a66c959691ea17102e39fb27",
            "0xa827b848d338b362a9edc3f5d9143a504828207dd0d1d6515b2b3968154d59b0"
          ],
          "data": "0x00000000000000000000000000000000000000000000000000000000017d78400000000000000000000000000000000000000000000000000000000001e133800000000000000000000000000000000000000000000000000000000000000001",
          "blockHash": "0x14746273681ad756be07fd9f1a430d73a5912e4782e86818c91259d8a4c56521",
          "blockNumber": "0x54d53e",
          "blockTimestamp": "0x69971974",
          "transactionHash": "0xdc72a545867b672a6a37036592eb3df705f95a0d6cf1848d0c8fbe24ba4750bc",
          "transactionIndex": "0x2c",
          "logIndex": "0x55",
          "removed": false
        },
        {
          "address": "0x20c0000000000000000000000000000000000000",
          "topics": [
            "0xddf252ad1be2c89b69c2b068fc378daa952ba7f163c4a11628f55a4df523b3ef",
            "0x000000000000000000000000c77ad4de7d179fffba417ca24c055d86af69f4bb",
            "0x000000000000000000000000feec000000000000000000000000000000000000"
          ],
          "data": "0x0000000000000000000000000000000000000000000000000000000000003d75",
          "blockHash": "0x14746273681ad756be07fd9f1a430d73a5912e4782e86818c91259d8a4c56521",
          "blockNumber": "0x54d53e",
          "blockTimestamp": "0x69971974",
          "transactionHash": "0xdc72a545867b672a6a37036592eb3df705f95a0d6cf1848d0c8fbe24ba4750bc",
          "transactionIndex": "0x2c",
          "logIndex": "0x56",
          "removed": false
        }
      ],
      "logsBloom": "0x00000800000000000000000020002000000000000000000000000000000000600000000020000000000000000100000000000800000000000000000000000000000004000000000000000008000000000000000000000000000000020400000000000000040000000000000000000000000000000000000000000010000000000000000000000000000000000020000000000000800000000000000000000000000020000000000000000000000000000000000000000000000000000000000800100002000000000000000000000000004000000000000000000000000000000000000004000000000000000000000000000040000000000020000000000000",
      "transactionHash": "0xdc72a545867b672a6a37036592eb3df705f95a0d6cf1848d0c8fbe24ba4750bc",
      "transactionIndex": "0x2c",
      "blockHash": "0x14746273681ad756be07fd9f1a430d73a5912e4782e86818c91259d8a4c56521",
      "blockNumber": "0x54d53e",
      "gasUsed": "0xc00c2",
      "effectiveGasPrice": "0x4a817c802",
      "from": "0xc77ad4de7d179fffba417ca24c055d86af69f4bb",
      "to": "0x46bcae2625157b562c974bb5a912dfcb811a234a",
      "contractAddress": null,
      "feeToken": "0x20c0000000000000000000000000000000000000",
      "feePayer": "0xc77ad4de7d179fffba417ca24c055d86af69f4bb"
    },
    {
      "type": "0x2",
      "status": "0x1",
      "cumulativeGasUsed": "0x143c47b",
      "logs": [
        {
          "address": "0x46bcae2625157b562c974bb5a912dfcb811a234a",
          "topics": [
            "0x9e0fd7b7de37ad5d7110476296cb5fb624ca41122ef85cb019eef238259b27ec",
            "0x8edf6f47e89d05c0e21320161fda1fd1fabd0081a66c959691ea17102e39fb27",
            "0x6cb8430e200400c2bf381cdf79f195612cc0925d9550337df07dfe3e28796ba6"
          ],
          "data": "0x00000000000000000000000000000000000000000000000000000000017d78400000000000000000000000000000000000000000000000000000000001e133800000000000000000000000000000000000000000000000000000000000000001",
          "blockHash": "0x65ca39cc03e619b377728160caaf87ef64c826f352df98e6b2f8cda76ad04214",
          "blockNumber": "0x54d543",
          "blockTimestamp": "0x69971978",
          "transactionHash": "0x8599bd6e2860e2aecf20fe83bd44052b1d8f3b354ce1c08385f300d11f1fc22e",
          "transactionIndex": "0x49",
          "logIndex": "0x83",
          "removed": false
        },
        {
          "address": "0x20c0000000000000000000000000000000000000",
          "topics": [
            "0xddf252ad1be2c89b69c2b068fc378daa952ba7f163c4a11628f55a4df523b3ef",
            "0x000000000000000000000000c77ad4de7d179fffba417ca24c055d86af69f4bb",
            "0x000000000000000000000000feec000000000000000000000000000000000000"
          ],
          "data": "0x0000000000000000000000000000000000000000000000000000000000003d75",
          "blockHash": "0x65ca39cc03e619b377728160caaf87ef64c826f352df98e6b2f8cda76ad04214",
          "blockNumber": "0x54d543",
          "blockTimestamp": "0x69971978",
          "transactionHash": "0x8599bd6e2860e2aecf20fe83bd44052b1d8f3b354ce1c08385f300d11f1fc22e",
          "transactionIndex": "0x49",
          "logIndex": "0x84",
          "removed": false
        }
      ],
      "logsBloom": "0x00000800000000000040000020002000000000000002000000000000000000400000000000000000000000000100000000000800000000000000000000000000000004000000000000000008000000000000000000000000000000020400000000000000040000000000000000000000000000000000000000000010000000000000000000000000000000000020000000000000800000000000004000000000000020000000000000000000000000000000000000000000000000000000000000100002000000000000000000000000004000000000000000000000000000000000000004000000000000000000000000000040000000000020000000000000",
      "transactionHash": "0x8599bd6e2860e2aecf20fe83bd44052b1d8f3b354ce1c08385f300d11f1fc22e",
      "transactionIndex": "0x49",
      "blockHash": "0x65ca39cc03e619b377728160caaf87ef64c826f352df98e6b2f8cda76ad04214",
      "blockNumber": "0x54d543",
      "gasUsed": "0xc00c2",
      "effectiveGasPrice": "0x4a817c802",
      "from": "0xc77ad4de7d179fffba417ca24c055d86af69f4bb",
      "to": "0x46bcae2625157b562c974bb5a912dfcb811a234a",
      "contractAddress": null,
      "feeToken": "0x20c0000000000000000000000000000000000000",
      "feePayer": "0xc77ad4de7d179fffba417ca24c055d86af69f4bb"
    },
    {
      "type": "0x2",
      "status": "0x1",
      "cumulativeGasUsed": "0x12b8dab",
      "logs": [
        {
          "address": "0x46bcae2625157b562c974bb5a912dfcb811a234a",
          "topics": [
            "0x9e0fd7b7de37ad5d7110476296cb5fb624ca41122ef85cb019eef238259b27ec",
            "0x8edf6f47e89d05c0e21320161fda1fd1fabd0081a66c959691ea17102e39fb27",
            "0x562dbd2e118dfbcf12d2e1f8d2c2681655e181f9d2e0f3ff620aedf5bfcd2848"
          ],
          "data": "0x00000000000000000000000000000000000000000000000000000000017d78400000000000000000000000000000000000000000000000000000000001e133800000000000000000000000000000000000000000000000000000000000000001",
          "blockHash": "0xcaadbd19b0701d501a68e87cc747ee7cd9d0d9ec7158f6984c198589290b870c",
          "blockNumber": "0x54d547",
          "blockTimestamp": "0x6997197b",
          "transactionHash": "0xe6dcf6125b788d0fc028b48850bc37e1bdacfef838fb8ceecce1fbcd7ecd07c7",
          "transactionIndex": "0x58",
          "logIndex": "0xaa",
          "removed": false
        },
        {
          "address": "0x20c0000000000000000000000000000000000000",
          "topics": [
            "0xddf252ad1be2c89b69c2b068fc378daa952ba7f163c4a11628f55a4df523b3ef",
            "0x000000000000000000000000c77ad4de7d179fffba417ca24c055d86af69f4bb",
            "0x000000000000000000000000feec000000000000000000000000000000000000"
          ],
          "data": "0x0000000000000000000000000000000000000000000000000000000000003d75",
          "blockHash": "0xcaadbd19b0701d501a68e87cc747ee7cd9d0d9ec7158f6984c198589290b870c",
          "blockNumber": "0x54d547",
          "blockTimestamp": "0x6997197b",
          "transactionHash": "0xe6dcf6125b788d0fc028b48850bc37e1bdacfef838fb8ceecce1fbcd7ecd07c7",
          "transactionIndex": "0x58",
          "logIndex": "0xab",
          "removed": false
        }
      ],
      "logsBloom": "0x00000800000000000000000020002000000000000000000000000000000000400000000000000000000000000100000000000800000000000080000000000000000004000000000000000008000000000000000000000000000000020400000000000000040000000000000000000000000000080000000000000010000000000000000000000000000000000020000000000000800000000000000000000000000020000000000000000000000000000000000000000000000000000000000000100002000000000000000000000000005000000000000000000000000000000000000004000000000000000000000000000040000000000020000000000000",
      "transactionHash": "0xe6dcf6125b788d0fc028b48850bc37e1bdacfef838fb8ceecce1fbcd7ecd07c7",
      "transactionIndex": "0x58",
      "blockHash": "0xcaadbd19b0701d501a68e87cc747ee7cd9d0d9ec7158f6984c198589290b870c",
      "blockNumber": "0x54d547",
      "gasUsed": "0xc00c2",
      "effectiveGasPrice": "0x4a817c802",
      "from": "0xc77ad4de7d179fffba417ca24c055d86af69f4bb",
      "to": "0x46bcae2625157b562c974bb5a912dfcb811a234a",
      "contractAddress": null,
      "feeToken": "0x20c0000000000000000000000000000000000000",
      "feePayer": "0xc77ad4de7d179fffba417ca24c055d86af69f4bb"
    },
    {
      "type": "0x2",
      "status": "0x1",
      "cumulativeGasUsed": "0xd06122",
      "logs": [
        {
          "address": "0x46bcae2625157b562c974bb5a912dfcb811a234a",
          "topics": [
            "0x9e0fd7b7de37ad5d7110476296cb5fb624ca41122ef85cb019eef238259b27ec",
            "0xace9c9c435cf933be3564cdbcf7b7e2faee63e4f39034849eacb82d13f32f02a",
            "0x8f77c8c6fd421d301c5f91568d08c991f5a87c5f04cc3f0a4176f9e9b14c3854"
          ],
          "data": "0x0000000000000000000000000000000000000000000000000000000005f5e1000000000000000000000000000000000000000000000000000000000001e133800000000000000000000000000000000000000000000000000000000000000001",
          "blockHash": "0xb52301dee86d6e7e153d684c69faac131fe38338799dfff57e0e09fe133dcd7d",
          "blockNumber": "0x54d54d",
          "blockTimestamp": "0x6997197f",
          "transactionHash": "0x15af924546924b0a52b4646c0881f6872f411de6192825b245acff5033f82db1",
          "transactionIndex": "0x45",
          "logIndex": "0x85",
          "removed": false
        },
        {
          "address": "0x20c0000000000000000000000000000000000000",
          "topics": [
            "0xddf252ad1be2c89b69c2b068fc378daa952ba7f163c4a11628f55a4df523b3ef",
            "0x000000000000000000000000c77ad4de7d179fffba417ca24c055d86af69f4bb",
            "0x000000000000000000000000feec000000000000000000000000000000000000"
          ],
          "data": "0x0000000000000000000000000000000000000000000000000000000000003d75",
          "blockHash": "0xb52301dee86d6e7e153d684c69faac131fe38338799dfff57e0e09fe133dcd7d",
          "blockNumber": "0x54d54d",
          "blockTimestamp": "0x6997197f",
          "transactionHash": "0x15af924546924b0a52b4646c0881f6872f411de6192825b245acff5033f82db1",
          "transactionIndex": "0x45",
          "logIndex": "0x86",
          "removed": false
        }
      ],
      "logsBloom": "0x00800800000000000000000000002000000000000000000000000000000100400000000000000000000000000108000000000800000000000000000000000000000004000000000000000008000000000000000000000000000000020400000000000000040000000000001000000000000000000000000000000010000000000000000000000000000000000220000000000000800000000000000000000080000020000000000000000000000000000000000000000000000000000000000000100002000000000000000000000000000000000000000000000000000000000000000004000000000000000000000000000000000000000020000000000000",
      "transactionHash": "0x15af924546924b0a52b4646c0881f6872f411de6192825b245acff5033f82db1",
      "transactionIndex": "0x45",
      "blockHash": "0xb52301dee86d6e7e153d684c69faac131fe38338799dfff57e0e09fe133dcd7d",
      "blockNumber": "0x54d54d",
      "gasUsed": "0xc00c2",
      "effectiveGasPrice": "0x4a817c802",
      "from": "0xc77ad4de7d179fffba417ca24c055d86af69f4bb",
      "to": "0x46bcae2625157b562c974bb5a912dfcb811a234a",
      "contractAddress": null,
      "feeToken": "0x20c0000000000000000000000000000000000000",
      "feePayer": "0xc77ad4de7d179fffba417ca24c055d86af69f4bb"
    },
    {
      "type": "0x2",
      "status": "0x1",
      "cumulativeGasUsed": "0x9b3435",
      "logs": [
        {
          "address": "0x46bcae2625157b562c974bb5a912dfcb811a234a",
          "topics": [
            "0x9e0fd7b7de37ad5d7110476296cb5fb624ca41122ef85cb019eef238259b27ec",
            "0xace9c9c435cf933be3564cdbcf7b7e2faee63e4f39034849eacb82d13f32f02a",
            "0xf6a2574f8130a5385a107da69d90fd5f193de1a157d8c2a8da98cb1ea42522c3"
          ],
          "data": "0x0000000000000000000000000000000000000000000000000000000005f5e1000000000000000000000000000000000000000000000000000000000001e133800000000000000000000000000000000000000000000000000000000000000001",
          "blockHash": "0x56c602851c39b1a6d4cfe1cb8f386995fc259b36ecaea40051ecf84f629fbe47",
          "blockNumber": "0x54d552",
          "blockTimestamp": "0x69971983",
          "transactionHash": "0x41f26f88a140df6575bd54ca44ddd1255fa8e60f937b366c577b483752e2e02e",
          "transactionIndex": "0x41",
          "logIndex": "0x7d",
          "removed": false
        },
        {
          "address": "0x20c0000000000000000000000000000000000000",
          "topics": [
            "0xddf252ad1be2c89b69c2b068fc378daa952ba7f163c4a11628f55a4df523b3ef",
            "0x000000000000000000000000c77ad4de7d179fffba417ca24c055d86af69f4bb",
            "0x000000000000000000000000feec000000000000000000000000000000000000"
          ],
          "data": "0x0000000000000000000000000000000000000000000000000000000000003d7c",
          "blockHash": "0x56c602851c39b1a6d4cfe1cb8f386995fc259b36ecaea40051ecf84f629fbe47",
          "blockNumber": "0x54d552",
          "blockTimestamp": "0x69971983",
          "transactionHash": "0x41f26f88a140df6575bd54ca44ddd1255fa8e60f937b366c577b483752e2e02e",
          "transactionIndex": "0x41",
          "logIndex": "0x7e",
          "removed": false
        }
      ],
      "logsBloom": "0x00800800000000000000000000002000000000000000000000000000000100400000000000000000000000400100000000000800000800000000000000000000000004000000000000000008000000000000000000000000000000020400000000000000040000000000000000000000000000000000000000000010000000000000000000000000000000000220000000000000800000000000000000000000000020000000000000000000000000000000000000000000000000000000000000140002000000000000000000000000000000000000000000000000000000000000000004000000000000000000000000000000000000000020000000000000",
      "transactionHash": "0x41f26f88a140df6575bd54ca44ddd1255fa8e60f937b366c577b483752e2e02e",
      "transactionIndex": "0x41",
      "blockHash": "0x56c602851c39b1a6d4cfe1cb8f386995fc259b36ecaea40051ecf84f629fbe47",
      "blockNumber": "0x54d552",
      "gasUsed": "0xc0218",
      "effectiveGasPrice": "0x4a817c802",
      "from": "0xc77ad4de7d179fffba417ca24c055d86af69f4bb",
      "to": "0x46bcae2625157b562c974bb5a912dfcb811a234a",
      "contractAddress": null,
      "feeToken": "0x20c0000000000000000000000000000000000000",
      "feePayer": "0xc77ad4de7d179fffba417ca24c055d86af69f4bb"
    },
    {
      "type": "0x2",
      "status": "0x1",
      "cumulativeGasUsed": "0x4886a7",
      "logs": [
        {
          "address": "0x46bcae2625157b562c974bb5a912dfcb811a234a",
          "topics": [
            "0x9e0fd7b7de37ad5d7110476296cb5fb624ca41122ef85cb019eef238259b27ec",
            "0xace9c9c435cf933be3564cdbcf7b7e2faee63e4f39034849eacb82d13f32f02a",
            "0x536861bd889e384b0b0b95235b722d4faa778a260da1033ca00f620dbbb1709a"
          ],
          "data": "0x0000000000000000000000000000000000000000000000000000000005f5e1000000000000000000000000000000000000000000000000000000000001e133800000000000000000000000000000000000000000000000000000000000000001",
          "blockHash": "0x41616f129d727e5343e2e28722d1a5af4fab7915aeb70ea2cd841d430faffe37",
          "blockNumber": "0x54d555",
          "blockTimestamp": "0x69971985",
          "transactionHash": "0x66f4bfd0c351da385e5686d384bc60c50d1bac7a7c6427a0199434bca3dbb1c8",
          "transactionIndex": "0x1e",
          "logIndex": "0x34",
          "removed": false
        },
        {
          "address": "0x20c0000000000000000000000000000000000000",
          "topics": [
            "0xddf252ad1be2c89b69c2b068fc378daa952ba7f163c4a11628f55a4df523b3ef",
            "0x000000000000000000000000c77ad4de7d179fffba417ca24c055d86af69f4bb",
            "0x000000000000000000000000feec000000000000000000000000000000000000"
          ],
          "data": "0x0000000000000000000000000000000000000000000000000000000000003d6e",
          "blockHash": "0x41616f129d727e5343e2e28722d1a5af4fab7915aeb70ea2cd841d430faffe37",
          "blockNumber": "0x54d555",
          "blockTimestamp": "0x69971985",
          "transactionHash": "0x66f4bfd0c351da385e5686d384bc60c50d1bac7a7c6427a0199434bca3dbb1c8",
          "transactionIndex": "0x1e",
          "logIndex": "0x35",
          "removed": false
        }
      ],
      "logsBloom": "0x00880800000000000000000000002000000000000000000000000000000100400000000000000000000000000100000000000800000000000000000000000000000004000000000000000008000000000000000000000000000000020400000000000000040000000000000000000000000800000000000000000010000000000000000000000000000000000220000000000000800000000000000000000000000020000000000000000000000000000000000000000000000000000000000000100002000000000000000000000000000000000000000000000000000000000000000004000000000000000000000000000000000000000020000020000000",
      "transactionHash": "0x66f4bfd0c351da385e5686d384bc60c50d1bac7a7c6427a0199434bca3dbb1c8",
      "transactionIndex": "0x1e",
      "blockHash": "0x41616f129d727e5343e2e28722d1a5af4fab7915aeb70ea2cd841d430faffe37",
      "blockNumber": "0x54d555",
      "gasUsed": "0xbff6c",
      "effectiveGasPrice": "0x4a817c802",
      "from": "0xc77ad4de7d179fffba417ca24c055d86af69f4bb",
      "to": "0x46bcae2625157b562c974bb5a912dfcb811a234a",
      "contractAddress": null,
      "feeToken": "0x20c0000000000000000000000000000000000000",
      "feePayer": "0xc77ad4de7d179fffba417ca24c055d86af69f4bb"
    },
    {
      "type": "0x2",
      "status": "0x1",
      "cumulativeGasUsed": "0x92092e",
      "logs": [
        {
          "address": "0x46bcae2625157b562c974bb5a912dfcb811a234a",
          "topics": [
            "0x9e0fd7b7de37ad5d7110476296cb5fb624ca41122ef85cb019eef238259b27ec",
            "0xace9c9c435cf933be3564cdbcf7b7e2faee63e4f39034849eacb82d13f32f02a",
            "0xcd3a10258f4c15d033b6373f725da8d1215be02f83656e11f550b3374fbe2bb5"
          ],
          "data": "0x0000000000000000000000000000000000000000000000000000000005f5e1000000000000000000000000000000000000000000000000000000000001e133800000000000000000000000000000000000000000000000000000000000000001",
          "blockHash": "0xa837aabbcc18eb0045e885cfeabef9c2f55cb0cadec338b30cb40f93e96871c7",
          "blockNumber": "0x54d55d",
          "blockTimestamp": "0x6997198a",
          "transactionHash": "0xcaebdaa49fd2427f40da87c9e24a8a986431a3976b6cb6d68233eba6ba673cc5",
          "transactionIndex": "0x29",
          "logIndex": "0x5c",
          "removed": false
        },
        {
          "address": "0x20c0000000000000000000000000000000000000",
          "topics": [
            "0xddf252ad1be2c89b69c2b068fc378daa952ba7f163c4a11628f55a4df523b3ef",
            "0x000000000000000000000000c77ad4de7d179fffba417ca24c055d86af69f4bb",
            "0x000000000000000000000000feec000000000000000000000000000000000000"
          ],
          "data": "0x0000000000000000000000000000000000000000000000000000000000003d7c",
          "blockHash": "0xa837aabbcc18eb0045e885cfeabef9c2f55cb0cadec338b30cb40f93e96871c7",
          "blockNumber": "0x54d55d",
          "blockTimestamp": "0x6997198a",
          "transactionHash": "0xcaebdaa49fd2427f40da87c9e24a8a986431a3976b6cb6d68233eba6ba673cc5",
          "transactionIndex": "0x29",
          "logIndex": "0x5d",
          "removed": false
        }
      ],
      "logsBloom": "0x00800800000000000000000000002000000000000000000000000000000100400000000000000000000000000100000000000800000800000000100000000000000004000000000000000008000000000000000000000000000000020400008000000000040000000000000000000000000000000000000000000010000000000000000000000000000000000220000000000000800000000000000000000000000020000000000000000000000000000000000000000000000000000000000000100002000000000000000000000000000000000000000000000000000000000000000004000000000000000000000000000000000000000020000000000000",
      "transactionHash": "0xcaebdaa49fd2427f40da87c9e24a8a986431a3976b6cb6d68233eba6ba673cc5",
      "transactionIndex": "0x29",
      "blockHash": "0xa837aabbcc18eb0045e885cfeabef9c2f55cb0cadec338b30cb40f93e96871c7",
      "blockNumber": "0x54d55d",
      "gasUsed": "0xc0218",
      "effectiveGasPrice": "0x4a817c802",
      "from": "0xc77ad4de7d179fffba417ca24c055d86af69f4bb",
      "to": "0x46bcae2625157b562c974bb5a912dfcb811a234a",
      "contractAddress": null,
      "feeToken": "0x20c0000000000000000000000000000000000000",
      "feePayer": "0xc77ad4de7d179fffba417ca24c055d86af69f4bb"
    },
    {
      "type": "0x2",
      "status": "0x1",
      "cumulativeGasUsed": "0xe308e4",
      "logs": [
        {
          "address": "0x46bcae2625157b562c974bb5a912dfcb811a234a",
          "topics": [
            "0x9e0fd7b7de37ad5d7110476296cb5fb624ca41122ef85cb019eef238259b27ec",
            "0xace9c9c435cf933be3564cdbcf7b7e2faee63e4f39034849eacb82d13f32f02a",
            "0x0c3fd321f4034b150c9566252db6f2e0394944320559ea8b2cf14a3e1e873024"
          ],
          "data": "0x0000000000000000000000000000000000000000000000000000000005f5e1000000000000000000000000000000000000000000000000000000000001e133800000000000000000000000000000000000000000000000000000000000000001",
          "blockHash": "0x5141af9a20707d33907f01dea67f3b283d5e9ea5333907242f1ee5a6128a963f",
          "blockNumber": "0x54d561",
          "blockTimestamp": "0x6997198d",
          "transactionHash": "0x89dbedcdd28b6907af2ccf1ca38182a3cd29cff0615885be826b705f97d3ae69",
          "transactionIndex": "0x46",
          "logIndex": "0x71",
          "removed": false
        },
        {
          "address": "0x20c0000000000000000000000000000000000000",
          "topics": [
            "0xddf252ad1be2c89b69c2b068fc378daa952ba7f163c4a11628f55a4df523b3ef",
            "0x000000000000000000000000c77ad4de7d179fffba417ca24c055d86af69f4bb",
            "0x000000000000000000000000feec000000000000000000000000000000000000"
          ],
          "data": "0x0000000000000000000000000000000000000000000000000000000000003d83",
          "blockHash": "0x5141af9a20707d33907f01dea67f3b283d5e9ea5333907242f1ee5a6128a963f",
          "blockNumber": "0x54d561",
          "blockTimestamp": "0x6997198d",
          "transactionHash": "0x89dbedcdd28b6907af2ccf1ca38182a3cd29cff0615885be826b705f97d3ae69",
          "transactionIndex": "0x46",
          "logIndex": "0x72",
          "removed": false
        }
      ],
      "logsBloom": "0x00800800000000000000000000002000000000000000000000000000000100400200000000000000000000000100000000000800000000000000000040000000000004000000000000000008000000000000000000000000000000020400000000000000040000000000000000000000000000000000000000000010000000000000000000000000000000000220000000000000800000000000000000000000000020000000000000000000000000000000000000000000000000000000000000100002000000000000000000000000000000000000000000000000000000000000000004000000000000000000100000000000000000000020000000000000",
      "transactionHash": "0x89dbedcdd28b6907af2ccf1ca38182a3cd29cff0615885be826b705f97d3ae69",
      "transactionIndex": "0x46",
      "blockHash": "0x5141af9a20707d33907f01dea67f3b283d5e9ea5333907242f1ee5a6128a963f",
      "blockNumber": "0x54d561",
      "gasUsed": "0xc036e",
      "effectiveGasPrice": "0x4a817c802",
      "from": "0xc77ad4de7d179fffba417ca24c055d86af69f4bb",
      "to": "0x46bcae2625157b562c974bb5a912dfcb811a234a",
      "contractAddress": null,
      "feeToken": "0x20c0000000000000000000000000000000000000",
      "feePayer": "0xc77ad4de7d179fffba417ca24c055d86af69f4bb"
    },
    {
      "type": "0x2",
      "status": "0x1",
      "cumulativeGasUsed": "0x14f59bc",
      "logs": [
        {
          "address": "0x46bcae2625157b562c974bb5a912dfcb811a234a",
          "topics": [
            "0x9e0fd7b7de37ad5d7110476296cb5fb624ca41122ef85cb019eef238259b27ec",
            "0xace9c9c435cf933be3564cdbcf7b7e2faee63e4f39034849eacb82d13f32f02a",
            "0x6d9ef456bf9817b37be2dccf1f8c6fefd89f6a4a7a8e0f226001466eac0023be"
          ],
          "data": "0x0000000000000000000000000000000000000000000000000000000005f5e1000000000000000000000000000000000000000000000000000000000001e133800000000000000000000000000000000000000000000000000000000000000001",
          "blockHash": "0xf121f58351ba30ec902ef9b35a8efed4e90436afa05630706248934eb544836b",
          "blockNumber": "0x54d564",
          "blockTimestamp": "0x6997198f",
          "transactionHash": "0x6b25a4af2715f7d4bfbdd180ce5fe4b458290237c9c02089bda8c4e5163b75e8",
          "transactionIndex": "0x41",
          "logIndex": "0x7a",
          "removed": false
        },
        {
          "address": "0x20c0000000000000000000000000000000000000",
          "topics": [
            "0xddf252ad1be2c89b69c2b068fc378daa952ba7f163c4a11628f55a4df523b3ef",
            "0x000000000000000000000000c77ad4de7d179fffba417ca24c055d86af69f4bb",
            "0x000000000000000000000000feec000000000000000000000000000000000000"
          ],
          "data": "0x0000000000000000000000000000000000000000000000000000000000003d83",
          "blockHash": "0xf121f58351ba30ec902ef9b35a8efed4e90436afa05630706248934eb544836b",
          "blockNumber": "0x54d564",
          "blockTimestamp": "0x6997198f",
          "transactionHash": "0x6b25a4af2715f7d4bfbdd180ce5fe4b458290237c9c02089bda8c4e5163b75e8",
          "transactionIndex": "0x41",
          "logIndex": "0x7b",
          "removed": false
        }
      ],
      "logsBloom": "0x00800800000000000000000000002000000000000000000000000000000100400000000000000000000000000100000000000800000000000000000000000000000004000000000000000008000000000000000000000000000000020400000000000000040000000000000000000000000000000000000000000011000000000000000000000000000000000220000000000000800000000000000000000000000020000000000000000000000000000000000000000000000000000000000000100002000000000000000000000000000000000000000000000000000000000000000004000000000002000000800000000000000000000020000000000000",
      "transactionHash": "0x6b25a4af2715f7d4bfbdd180ce5fe4b458290237c9c02089bda8c4e5163b75e8",
      "transactionIndex": "0x41",
      "blockHash": "0xf121f58351ba30ec902ef9b35a8efed4e90436afa05630706248934eb544836b",
      "blockNumber": "0x54d564",
      "gasUsed": "0xc036e",
      "effectiveGasPrice": "0x4a817c802",
      "from": "0xc77ad4de7d179fffba417ca24c055d86af69f4bb",
      "to": "0x46bcae2625157b562c974bb5a912dfcb811a234a",
      "contractAddress": null,
      "feeToken": "0x20c0000000000000000000000000000000000000",
      "feePayer": "0xc77ad4de7d179fffba417ca24c055d86af69f4bb"
    },
    {
      "type": "0x2",
      "status": "0x1",
      "cumulativeGasUsed": "0xf2c161",
      "logs": [
        {
          "address": "0x46bcae2625157b562c974bb5a912dfcb811a234a",
          "topics": [
            "0x9e0fd7b7de37ad5d7110476296cb5fb624ca41122ef85cb019eef238259b27ec",
            "0xace9c9c435cf933be3564cdbcf7b7e2faee63e4f39034849eacb82d13f32f02a",
            "0xd952fe0740d9d14011fc8ead3ab7de3c739d3aa93ce9254c10b0134d80d26a30"
          ],
          "data": "0x0000000000000000000000000000000000000000000000000000000005f5e1000000000000000000000000000000000000000000000000000000000001e133800000000000000000000000000000000000000000000000000000000000000001",
          "blockHash": "0x72f4850ca54bafec49ec38ed3f23169a6f94d20208520755a0c01683610f87ad",
          "blockNumber": "0x54d567",
          "blockTimestamp": "0x69971991",
          "transactionHash": "0xdcba84d63194e55a914afea2ce0a8d52198da098c1a027d8a25a6a006a22797e",
          "transactionIndex": "0x3a",
          "logIndex": "0x74",
          "removed": false
        },
        {
          "address": "0x20c0000000000000000000000000000000000000",
          "topics": [
            "0xddf252ad1be2c89b69c2b068fc378daa952ba7f163c4a11628f55a4df523b3ef",
            "0x000000000000000000000000c77ad4de7d179fffba417ca24c055d86af69f4bb",
            "0x000000000000000000000000feec000000000000000000000000000000000000"
          ],
          "data": "0x0000000000000000000000000000000000000000000000000000000000003d75",
          "blockHash": "0x72f4850ca54bafec49ec38ed3f23169a6f94d20208520755a0c01683610f87ad",
          "blockNumber": "0x54d567",
          "blockTimestamp": "0x69971991",
          "transactionHash": "0xdcba84d63194e55a914afea2ce0a8d52198da098c1a027d8a25a6a006a22797e",
          "transactionIndex": "0x3a",
          "logIndex": "0x75",
          "removed": false
        }
      ],
      "logsBloom": "0x00800800000000000000000000002000000000000000000000000000000100400000000000000000000000000100000000000800000000000000000000000000000004000000000000000008000000000000800000000000000000020400000000000000040000000000000000000000000000000000000000000010000000000000000000000000000000000320000000000000800000000000000000000000000020000000000000000000000000000000000000000000000000000000000000100002000000000000000000000000000000000000000000000000000000000000000004000000000000000000000000000000000080000020000000000000",
      "transactionHash": "0xdcba84d63194e55a914afea2ce0a8d52198da098c1a027d8a25a6a006a22797e",
      "transactionIndex": "0x3a",
      "blockHash": "0x72f4850ca54bafec49ec38ed3f23169a6f94d20208520755a0c01683610f87ad",
      "blockNumber": "0x54d567",
      "gasUsed": "0xc00c2",
      "effectiveGasPrice": "0x4a817c802",
      "from": "0xc77ad4de7d179fffba417ca24c055d86af69f4bb",
      "to": "0x46bcae2625157b562c974bb5a912dfcb811a234a",
      "contractAddress": null,
      "feeToken": "0x20c0000000000000000000000000000000000000",
      "feePayer": "0xc77ad4de7d179fffba417ca24c055d86af69f4bb"
    },
    {
      "type": "0x2",
      "status": "0x1",
      "cumulativeGasUsed": "0xc77301",
      "logs": [
        {
          "address": "0x46bcae2625157b562c974bb5a912dfcb811a234a",
          "topics": [
            "0x9e0fd7b7de37ad5d7110476296cb5fb624ca41122ef85cb019eef238259b27ec",
            "0xace9c9c435cf933be3564cdbcf7b7e2faee63e4f39034849eacb82d13f32f02a",
            "0x6bd5921979df8775e28d201d8f84d011f187d53c9ef8172ca1c37c59d422bff2"
          ],
          "data": "0x0000000000000000000000000000000000000000000000000000000005f5e1000000000000000000000000000000000000000000000000000000000001e133800000000000000000000000000000000000000000000000000000000000000001",
          "blockHash": "0xee3b01da902f2023c5cb97d0760553c5ac50dd8894be5d73dbe0aaf70da57704",
          "blockNumber": "0x54d569",
          "blockTimestamp": "0x69971992",
          "transactionHash": "0x32964d04b649568b4a1025aa0eeee686f72404e7bfa6c700b89b3e3824b0dd89",
          "transactionIndex": "0x38",
          "logIndex": "0x7e",
          "removed": false
        },
        {
          "address": "0x20c0000000000000000000000000000000000000",
          "topics": [
            "0xddf252ad1be2c89b69c2b068fc378daa952ba7f163c4a11628f55a4df523b3ef",
            "0x000000000000000000000000c77ad4de7d179fffba417ca24c055d86af69f4bb",
            "0x000000000000000000000000feec000000000000000000000000000000000000"
          ],
          "data": "0x0000000000000000000000000000000000000000000000000000000000003d75",
          "blockHash": "0xee3b01da902f2023c5cb97d0760553c5ac50dd8894be5d73dbe0aaf70da57704",
          "blockNumber": "0x54d569",
          "blockTimestamp": "0x69971992",
          "transactionHash": "0x32964d04b649568b4a1025aa0eeee686f72404e7bfa6c700b89b3e3824b0dd89",
          "transactionIndex": "0x38",
          "logIndex": "0x7f",
          "removed": false
        }
      ],
      "logsBloom": "0x00800800000000000000000000002000000000000000000000000000000100400000000000000000000000004100000000000800000000000000000000000000000004000000000000000008000000000000000000000000000000020400000000000000040000000000000000000000000000000000000000000010000000000000000000000000000000000220000000000000800001000000000000000000000020000000000000000000000000000000000000000200000000000000000000100002000000000000000000000000000000000000000000000000000000000000000004000000000000000000000000000000000000000020000000000000",
      "transactionHash": "0x32964d04b649568b4a1025aa0eeee686f72404e7bfa6c700b89b3e3824b0dd89",
      "transactionIndex": "0x38",
      "blockHash": "0xee3b01da902f2023c5cb97d0760553c5ac50dd8894be5d73dbe0aaf70da57704",
      "blockNumber": "0x54d569",
      "gasUsed": "0xc00c2",
      "effectiveGasPrice": "0x4a817c802",
      "from": "0xc77ad4de7d179fffba417ca24c055d86af69f4bb",
      "to": "0x46bcae2625157b562c974bb5a912dfcb811a234a",
      "contractAddress": null,
      "feeToken": "0x20c0000000000000000000000000000000000000",
      "feePayer": "0xc77ad4de7d179fffba417ca24c055d86af69f4bb"
    },
    {
      "type": "0x2",
      "status": "0x1",
      "cumulativeGasUsed": "0x8e9747",
      "logs": [
        {
          "address": "0x46bcae2625157b562c974bb5a912dfcb811a234a",
          "topics": [
            "0x9e0fd7b7de37ad5d7110476296cb5fb624ca41122ef85cb019eef238259b27ec",
            "0xace9c9c435cf933be3564cdbcf7b7e2faee63e4f39034849eacb82d13f32f02a",
            "0x2632c52c2eb190dc088fe4ce54053b1ccbff2c3c5988f7480ef74b97394dbd9a"
          ],
          "data": "0x0000000000000000000000000000000000000000000000000000000005f5e1000000000000000000000000000000000000000000000000000000000001e133800000000000000000000000000000000000000000000000000000000000000001",
          "blockHash": "0xcf6c0a976152046d91c5061e4bdd8abc7d7594474729905f04892b604918fe16",
          "blockNumber": "0x54d56c",
          "blockTimestamp": "0x69971994",
          "transactionHash": "0x6f83d4ab8c87f7b85e15110af0401cd25049873a03e35a80a49ff46779787ea0",
          "transactionIndex": "0x2b",
          "logIndex": "0x53",
          "removed": false
        },
        {
          "address": "0x20c0000000000000000000000000000000000000",
          "topics": [
            "0xddf252ad1be2c89b69c2b068fc378daa952ba7f163c4a11628f55a4df523b3ef",
            "0x000000000000000000000000c77ad4de7d179fffba417ca24c055d86af69f4bb",
            "0x000000000000000000000000feec000000000000000000000000000000000000"
          ],
          "data": "0x0000000000000000000000000000000000000000000000000000000000003d75",
          "blockHash": "0xcf6c0a976152046d91c5061e4bdd8abc7d7594474729905f04892b604918fe16",
          "blockNumber": "0x54d56c",
          "blockTimestamp": "0x69971994",
          "transactionHash": "0x6f83d4ab8c87f7b85e15110af0401cd25049873a03e35a80a49ff46779787ea0",
          "transactionIndex": "0x2b",
          "logIndex": "0x54",
          "removed": false
        }
      ],
      "logsBloom": "0x00800800000000000000000000002000000000000000000000000000000100400000000080000000004000000100000000000800000000000000000000000000000004000000000000000008000000000000000000000000000000020400000000000000040000000000000000000000000000000000000000000010000000000000000000000000000000000220000000000000800000000000000000000000000020000000000000000000000000000000000000000000000000000001000000100002000000000000000000000000000000000000000000000000000000000000000004000000000000000000000000000000000000000020000000000000",
      "transactionHash": "0x6f83d4ab8c87f7b85e15110af0401cd25049873a03e35a80a49ff46779787ea0",
      "transactionIndex": "0x2b",
      "blockHash": "0xcf6c0a976152046d91c5061e4bdd8abc7d7594474729905f04892b604918fe16",
      "blockNumber": "0x54d56c",
      "gasUsed": "0xc00c2",
      "effectiveGasPrice": "0x4a817c802",
      "from": "0xc77ad4de7d179fffba417ca24c055d86af69f4bb",
      "to": "0x46bcae2625157b562c974bb5a912dfcb811a234a",
      "contractAddress": null,
      "feeToken": "0x20c0000000000000000000000000000000000000",
      "feePayer": "0xc77ad4de7d179fffba417ca24c055d86af69f4bb"
    },
    {
      "type": "0x2",
      "status": "0x1",
      "cumulativeGasUsed": "0x17b31b6",
      "logs": [
        {
          "address": "0x46bcae2625157b562c974bb5a912dfcb811a234a",
          "topics": [
            "0x9e0fd7b7de37ad5d7110476296cb5fb624ca41122ef85cb019eef238259b27ec",
            "0xace9c9c435cf933be3564cdbcf7b7e2faee63e4f39034849eacb82d13f32f02a",
            "0xd860e3f5f752dd317289a914ceea5886a841192a7f2f9fcdd3a0f662c070e91a"
          ],
          "data": "0x0000000000000000000000000000000000000000000000000000000005f5e1000000000000000000000000000000000000000000000000000000000001e133800000000000000000000000000000000000000000000000000000000000000001",
          "blockHash": "0xe85e6431cc8746b6cc73b9f4890214fba3c48da6d8831ed20d4513d69811b252",
          "blockNumber": "0x54d570",
          "blockTimestamp": "0x69971997",
          "transactionHash": "0x3c8d084c970e2ddd412a9305c3d28432d94ec8d16ef58943b19dbbd1f8c8c1ab",
          "transactionIndex": "0x4b",
          "logIndex": "0x8b",
          "removed": false
        },
        {
          "address": "0x20c0000000000000000000000000000000000000",
          "topics": [
            "0xddf252ad1be2c89b69c2b068fc378daa952ba7f163c4a11628f55a4df523b3ef",
            "0x000000000000000000000000c77ad4de7d179fffba417ca24c055d86af69f4bb",
            "0x000000000000000000000000feec000000000000000000000000000000000000"
          ],
          "data": "0x0000000000000000000000000000000000000000000000000000000000003d7c",
          "blockHash": "0xe85e6431cc8746b6cc73b9f4890214fba3c48da6d8831ed20d4513d69811b252",
          "blockNumber": "0x54d570",
          "blockTimestamp": "0x69971997",
          "transactionHash": "0x3c8d084c970e2ddd412a9305c3d28432d94ec8d16ef58943b19dbbd1f8c8c1ab",
          "transactionIndex": "0x4b",
          "logIndex": "0x8c",
          "removed": false
        }
      ],
      "logsBloom": "0x00800800000000000000000000002000000000000000000000000000000110400000000000000000000000000100000000000800000000000000000000000000000004000000000000000008000000000000000000000000000000020400000000000000040000000000000000000000000000000000000000000010000000000000000400000000000000000220000000000000800000000000000000000000000020000000000000000000000000000000000000000000000004000000000000100002000000000000000000000000000000000000000000000000000000000000000004000000000000000000000000000000000000000020000000000000",
      "transactionHash": "0x3c8d084c970e2ddd412a9305c3d28432d94ec8d16ef58943b19dbbd1f8c8c1ab",
      "transactionIndex": "0x4b",
      "blockHash": "0xe85e6431cc8746b6cc73b9f4890214fba3c48da6d8831ed20d4513d69811b252",
      "blockNumber": "0x54d570",
      "gasUsed": "0xc0218",
      "effectiveGasPrice": "0x4a817c802",
      "from": "0xc77ad4de7d179fffba417ca24c055d86af69f4bb",
      "to": "0x46bcae2625157b562c974bb5a912dfcb811a234a",
      "contractAddress": null,
      "feeToken": "0x20c0000000000000000000000000000000000000",
      "feePayer": "0xc77ad4de7d179fffba417ca24c055d86af69f4bb"
    },
    {
      "type": "0x2",
      "status": "0x1",
      "cumulativeGasUsed": "0x1a24b0e",
      "logs": [
        {
          "address": "0x46bcae2625157b562c974bb5a912dfcb811a234a",
          "topics": [
            "0x9e0fd7b7de37ad5d7110476296cb5fb624ca41122ef85cb019eef238259b27ec",
            "0xace9c9c435cf933be3564cdbcf7b7e2faee63e4f39034849eacb82d13f32f02a",
            "0xec08d0974e93cdef3f47cd5c5a287a626489bcf52960b0af6a2544794055c85b"
          ],
          "data": "0x00000000000000000000000000000000000000000000000000000000017d78400000000000000000000000000000000000000000000000000000000001e133800000000000000000000000000000000000000000000000000000000000000001",
          "blockHash": "0x8ba991124bf5dc18bfaf7119b94f6bb3eadd8a0fe31da7b6ba794ef0b7a7e463",
          "blockNumber": "0x54d574",
          "blockTimestamp": "0x6997199a",
          "transactionHash": "0x818057e4a4e386c518060a1a5b5a9a969168097e22f0e3f8ba0cf16308f3561b",
          "transactionIndex": "0x57",
          "logIndex": "0xab",
          "removed": false
        },
        {
          "address": "0x20c0000000000000000000000000000000000000",
          "topics": [
            "0xddf252ad1be2c89b69c2b068fc378daa952ba7f163c4a11628f55a4df523b3ef",
            "0x000000000000000000000000c77ad4de7d179fffba417ca24c055d86af69f4bb",
            "0x000000000000000000000000feec000000000000000000000000000000000000"
          ],
          "data": "0x0000000000000000000000000000000000000000000000000000000000003d6e",
          "blockHash": "0x8ba991124bf5dc18bfaf7119b94f6bb3eadd8a0fe31da7b6ba794ef0b7a7e463",
          "blockNumber": "0x54d574",
          "blockTimestamp": "0x6997199a",
          "transactionHash": "0x818057e4a4e386c518060a1a5b5a9a969168097e22f0e3f8ba0cf16308f3561b",
          "transactionIndex": "0x57",
          "logIndex": "0xac",
          "removed": false
        }
      ],
      "logsBloom": "0x00800800000000000000000000002000000000000000000000000000000100400000000000000000000000000100000000000800000000000000001000000000000004000000000000000008000000000000000000000000000000020400000000000000040000000000000000000000000000000000000000000010000000000000000000000000000000000220000004000000800000000000000000000000000020000000000000000000000000000000000000000000000000000000000000100002000000000000000000000000000000000000000000000000000000000000100004000000000000000000000000000000000000000020000000000000",
      "transactionHash": "0x818057e4a4e386c518060a1a5b5a9a969168097e22f0e3f8ba0cf16308f3561b",
      "transactionIndex": "0x57",
      "blockHash": "0x8ba991124bf5dc18bfaf7119b94f6bb3eadd8a0fe31da7b6ba794ef0b7a7e463",
      "blockNumber": "0x54d574",
      "gasUsed": "0xbff78",
      "effectiveGasPrice": "0x4a817c802",
      "from": "0xc77ad4de7d179fffba417ca24c055d86af69f4bb",
      "to": "0x46bcae2625157b562c974bb5a912dfcb811a234a",
      "contractAddress": null,
      "feeToken": "0x20c0000000000000000000000000000000000000",
      "feePayer": "0xc77ad4de7d179fffba417ca24c055d86af69f4bb"
    },
    {
      "type": "0x2",
      "status": "0x1",
      "cumulativeGasUsed": "0x14256e7",
      "logs": [
        {
          "address": "0x46bcae2625157b562c974bb5a912dfcb811a234a",
          "topics": [
            "0x9e0fd7b7de37ad5d7110476296cb5fb624ca41122ef85cb019eef238259b27ec",
            "0xace9c9c435cf933be3564cdbcf7b7e2faee63e4f39034849eacb82d13f32f02a",
            "0x934224c6bd94d513bbffb24896491c7e64cce714cd6504d94caccb3208c60f65"
          ],
          "data": "0x00000000000000000000000000000000000000000000000000000000017d78400000000000000000000000000000000000000000000000000000000001e133800000000000000000000000000000000000000000000000000000000000000001",
          "blockHash": "0x444113c6fd9364b7d0ad4d704ddf8f4af3dbbf0b46bc959482a92abd75e523ef",
          "blockNumber": "0x54d57a",
          "blockTimestamp": "0x6997199e",
          "transactionHash": "0x32393c1aa0fa53b28754d0470004827fdb3801fe72a5ae797c55e203add14722",
          "transactionIndex": "0x52",
          "logIndex": "0x9f",
          "removed": false
        },
        {
          "address": "0x20c0000000000000000000000000000000000000",
          "topics": [
            "0xddf252ad1be2c89b69c2b068fc378daa952ba7f163c4a11628f55a4df523b3ef",
            "0x000000000000000000000000c77ad4de7d179fffba417ca24c055d86af69f4bb",
            "0x000000000000000000000000feec000000000000000000000000000000000000"
          ],
          "data": "0x0000000000000000000000000000000000000000000000000000000000003d6e",
          "blockHash": "0x444113c6fd9364b7d0ad4d704ddf8f4af3dbbf0b46bc959482a92abd75e523ef",
          "blockNumber": "0x54d57a",
          "blockTimestamp": "0x6997199e",
          "transactionHash": "0x32393c1aa0fa53b28754d0470004827fdb3801fe72a5ae797c55e203add14722",
          "transactionIndex": "0x52",
          "logIndex": "0xa0",
          "removed": false
        }
      ],
      "logsBloom": "0x00800800000000000000000000002000000000000000000000000000000100400000000000000000000000000100000000000800000000000000000000000000000004000000000000000008000000000000000000000000000000020400000000000000040000000010000000000000000000000000000000000010000000000000000000000000000000000220000000004000800000000000000000000000000020000000000000000000000000000000000000000000000000000000000000100002080000000000000000000000000000000000000000000000000000000000000004000000000000000000000000000000000000000020000000000000",
      "transactionHash": "0x32393c1aa0fa53b28754d0470004827fdb3801fe72a5ae797c55e203add14722",
      "transactionIndex": "0x52",
      "blockHash": "0x444113c6fd9364b7d0ad4d704ddf8f4af3dbbf0b46bc959482a92abd75e523ef",
      "blockNumber": "0x54d57a",
      "gasUsed": "0xbff78",
      "effectiveGasPrice": "0x4a817c802",
      "from": "0xc77ad4de7d179fffba417ca24c055d86af69f4bb",
      "to": "0x46bcae2625157b562c974bb5a912dfcb811a234a",
      "contractAddress": null,
      "feeToken": "0x20c0000000000000000000000000000000000000",
      "feePayer": "0xc77ad4de7d179fffba417ca24c055d86af69f4bb"
    },
    {
      "type": "0x2",
      "status": "0x1",
      "cumulativeGasUsed": "0x54f842",
      "logs": [
        {
          "address": "0x46bcae2625157b562c974bb5a912dfcb811a234a",
          "topics": [
            "0x9e0fd7b7de37ad5d7110476296cb5fb624ca41122ef85cb019eef238259b27ec",
            "0xace9c9c435cf933be3564cdbcf7b7e2faee63e4f39034849eacb82d13f32f02a",
            "0xc90e7e9184dce6e0d7fff2e19e72ffa35430aca54bd634ada091bef2d2bb0635"
          ],
          "data": "0x00000000000000000000000000000000000000000000000000000000017d78400000000000000000000000000000000000000000000000000000000001e133800000000000000000000000000000000000000000000000000000000000000001",
          "blockHash": "0x082a8ecae8a827268e1f041f4acf3a30e7e3ab671d5a5e8277ea48c01d1d4fec",
          "blockNumber": "0x54d57d",
          "blockTimestamp": "0x699719a0",
          "transactionHash": "0xb7e81cdd24ca812b3acf1d30fb42d71a1d66afd1715c9cce97d393f2f05ab70c",
          "transactionIndex": "0x19",
          "logIndex": "0x30",
          "removed": false
        },
        {
          "address": "0x20c0000000000000000000000000000000000000",
          "topics": [
            "0xddf252ad1be2c89b69c2b068fc378daa952ba7f163c4a11628f55a4df523b3ef",
            "0x000000000000000000000000c77ad4de7d179fffba417ca24c055d86af69f4bb",
            "0x000000000000000000000000feec000000000000000000000000000000000000"
          ],
          "data": "0x0000000000000000000000000000000000000000000000000000000000003d75",
          "blockHash": "0x082a8ecae8a827268e1f041f4acf3a30e7e3ab671d5a5e8277ea48c01d1d4fec",
          "blockNumber": "0x54d57d",
          "blockTimestamp": "0x699719a0",
          "transactionHash": "0xb7e81cdd24ca812b3acf1d30fb42d71a1d66afd1715c9cce97d393f2f05ab70c",
          "transactionIndex": "0x19",
          "logIndex": "0x31",
          "removed": false
        }
      ],
      "logsBloom": "0x00800800000000000000000000002000000000000100000000000000000100400000000000000000000000000100000000000800000000000000000000000000000004000000000000000008000000000000000000000000000000020400000000000000040000000000004000000000000000000000000000000010000000000000000000000000000000000220000000000000800000000000000000000000000020000000000000000000000000000000000000000000000000000000000000100002000000000000000000000000000000000000000000000400000000000000000004000000000000000000000000000000000000000020000000000000",
      "transactionHash": "0xb7e81cdd24ca812b3acf1d30fb42d71a1d66afd1715c9cce97d393f2f05ab70c",
      "transactionIndex": "0x19",
      "blockHash": "0x082a8ecae8a827268e1f041f4acf3a30e7e3ab671d5a5e8277ea48c01d1d4fec",
      "blockNumber": "0x54d57d",
      "gasUsed": "0xc00ce",
      "effectiveGasPrice": "0x4a817c802",
      "from": "0xc77ad4de7d179fffba417ca24c055d86af69f4bb",
      "to": "0x46bcae2625157b562c974bb5a912dfcb811a234a",
      "contractAddress": null,
      "feeToken": "0x20c0000000000000000000000000000000000000",
      "feePayer": "0xc77ad4de7d179fffba417ca24c055d86af69f4bb"
    },
    {
      "type": "0x2",
      "status": "0x1",
      "cumulativeGasUsed": "0x585eb5",
      "logs": [
        {
          "address": "0x46bcae2625157b562c974bb5a912dfcb811a234a",
          "topics": [
            "0x9e0fd7b7de37ad5d7110476296cb5fb624ca41122ef85cb019eef238259b27ec",
            "0xace9c9c435cf933be3564cdbcf7b7e2faee63e4f39034849eacb82d13f32f02a",
            "0x0a24b3696fc1b44815c836b1f503c906711422771b26bccb4db6dd315f759b2e"
          ],
          "data": "0x00000000000000000000000000000000000000000000000000000000017d78400000000000000000000000000000000000000000000000000000000001e133800000000000000000000000000000000000000000000000000000000000000001",
          "blockHash": "0xf88736c446b437762c5608569e12233484ac14c0686ab3e6cc91d23dd42ab470",
          "blockNumber": "0x54d584",
          "blockTimestamp": "0x699719a5",
          "transactionHash": "0x1e362e6e15647b3a9b3ad96d505264fe9d3c98070c5ea572d9396e501f16713f",
          "transactionIndex": "0x48",
          "logIndex": "0x82",
          "removed": false
        },
        {
          "address": "0x20c0000000000000000000000000000000000000",
          "topics": [
            "0xddf252ad1be2c89b69c2b068fc378daa952ba7f163c4a11628f55a4df523b3ef",
            "0x000000000000000000000000c77ad4de7d179fffba417ca24c055d86af69f4bb",
            "0x000000000000000000000000feec000000000000000000000000000000000000"
          ],
          "data": "0x0000000000000000000000000000000000000000000000000000000000003d75",
          "blockHash": "0xf88736c446b437762c5608569e12233484ac14c0686ab3e6cc91d23dd42ab470",
          "blockNumber": "0x54d584",
          "blockTimestamp": "0x699719a5",
          "transactionHash": "0x1e362e6e15647b3a9b3ad96d505264fe9d3c98070c5ea572d9396e501f16713f",
          "transactionIndex": "0x48",
          "logIndex": "0x83",
          "removed": false
        }
      ],
      "logsBloom": "0x00800800000000000000000000002000000000000000000000000000000100400000000000000000000000000100000000000800000000000000000000000000000004000000000000000008000000000000000000000000000000020400000000000000040000008000000000000000000000000000000000000012000000000000000000000000000000000220000000000000800000000000000000000000000020010000000000000000000000000000000000000000000000000000000000100002000000000000000000000000000000000000000000000000000000000000000004000000000000000000000000000000000000000020000000000000",
      "transactionHash": "0x1e362e6e15647b3a9b3ad96d505264fe9d3c98070c5ea572d9396e501f16713f",
      "transactionIndex": "0x48",
      "blockHash": "0xf88736c446b437762c5608569e12233484ac14c0686ab3e6cc91d23dd42ab470",
      "blockNumber": "0x54d584",
      "gasUsed": "0xc00ce",
      "effectiveGasPrice": "0x4a817c802",
      "from": "0xc77ad4de7d179fffba417ca24c055d86af69f4bb",
      "to": "0x46bcae2625157b562c974bb5a912dfcb811a234a",
      "contractAddress": null,
      "feeToken": "0x20c0000000000000000000000000000000000000",
      "feePayer": "0xc77ad4de7d179fffba417ca24c055d86af69f4bb"
    },
    {
      "type": "0x2",
      "status": "0x1",
      "cumulativeGasUsed": "0x1c2c093",
      "logs": [
        {
          "address": "0x46bcae2625157b562c974bb5a912dfcb811a234a",
          "topics": [
            "0x9e0fd7b7de37ad5d7110476296cb5fb624ca41122ef85cb019eef238259b27ec",
            "0xace9c9c435cf933be3564cdbcf7b7e2faee63e4f39034849eacb82d13f32f02a",
            "0x4c71ce6ba2ee0cfaa5acee977e8e67e2cd9b456dcdf1ab291519d32de27f4ece"
          ],
          "data": "0x00000000000000000000000000000000000000000000000000000000017d78400000000000000000000000000000000000000000000000000000000001e133800000000000000000000000000000000000000000000000000000000000000001",
          "blockHash": "0xe7bebdb78b4b895259542f35b0d10f025692addc56d1434c64475b31a88dda3c",
          "blockNumber": "0x54d588",
          "blockTimestamp": "0x699719a7",
          "transactionHash": "0x0b6e1eee16a97a6e02afe43e7cd4a6aac71920b659f79edbf4a6a272304f7abe",
          "transactionIndex": "0x55",
          "logIndex": "0xb6",
          "removed": false
        },
        {
          "address": "0x20c0000000000000000000000000000000000000",
          "topics": [
            "0xddf252ad1be2c89b69c2b068fc378daa952ba7f163c4a11628f55a4df523b3ef",
            "0x000000000000000000000000c77ad4de7d179fffba417ca24c055d86af69f4bb",
            "0x000000000000000000000000feec000000000000000000000000000000000000"
          ],
          "data": "0x0000000000000000000000000000000000000000000000000000000000003d75",
          "blockHash": "0xe7bebdb78b4b895259542f35b0d10f025692addc56d1434c64475b31a88dda3c",
          "blockNumber": "0x54d588",
          "blockTimestamp": "0x699719a7",
          "transactionHash": "0x0b6e1eee16a97a6e02afe43e7cd4a6aac71920b659f79edbf4a6a272304f7abe",
          "transactionIndex": "0x55",
          "logIndex": "0xb7",
          "removed": false
        }
      ],
      "logsBloom": "0x00800800000000000000000000002000000000002000000000000000000100400000000000000000000000000100000000000800000000000000000000000000000004000000000000000008000000000000000000000000000000020400000000000000040000000000000000000000000000000000000000000010000000000000000000000000040000000220000000000000800000000000000000000000000020000000000000000000000000000000000000000000000000000000000000100002000000000000000000000000000000000000000000000000000010000000000004000000000000000000000000000000000000000020000000000000",
      "transactionHash": "0x0b6e1eee16a97a6e02afe43e7cd4a6aac71920b659f79edbf4a6a272304f7abe",
      "transactionIndex": "0x55",
      "blockHash": "0xe7bebdb78b4b895259542f35b0d10f025692addc56d1434c64475b31a88dda3c",
      "blockNumber": "0x54d588",
      "gasUsed": "0xc00ce",
      "effectiveGasPrice": "0x4a817c802",
      "from": "0xc77ad4de7d179fffba417ca24c055d86af69f4bb",
      "to": "0x46bcae2625157b562c974bb5a912dfcb811a234a",
      "contractAddress": null,
      "feeToken": "0x20c0000000000000000000000000000000000000",
      "feePayer": "0xc77ad4de7d179fffba417ca24c055d86af69f4bb"
    },
    {
      "type": "0x2",
      "status": "0x1",
      "cumulativeGasUsed": "0x1711507",
      "logs": [
        {
          "address": "0x46bcae2625157b562c974bb5a912dfcb811a234a",
          "topics": [
            "0x9e0fd7b7de37ad5d7110476296cb5fb624ca41122ef85cb019eef238259b27ec",
            "0xace9c9c435cf933be3564cdbcf7b7e2faee63e4f39034849eacb82d13f32f02a",
            "0x1e39b0d04949e939b238bdc2c38f5acb52d2d9b05d8de70f345245e398e6f171"
          ],
          "data": "0x00000000000000000000000000000000000000000000000000000000017d78400000000000000000000000000000000000000000000000000000000001e133800000000000000000000000000000000000000000000000000000000000000001",
          "blockHash": "0x3a808565d4fc9c6157ff7421d890578608ccce94e8a9ad44a8bb26b8c86f4686",
          "blockNumber": "0x54d58a",
          "blockTimestamp": "0x699719a9",
          "transactionHash": "0x734df4d0b1dd960b856ca972585addeb04c426d5444d49f05cba664dcd6555a7",
          "transactionIndex": "0x4e",
          "logIndex": "0xa0",
          "removed": false
        },
        {
          "address": "0x20c0000000000000000000000000000000000000",
          "topics": [
            "0xddf252ad1be2c89b69c2b068fc378daa952ba7f163c4a11628f55a4df523b3ef",
            "0x000000000000000000000000c77ad4de7d179fffba417ca24c055d86af69f4bb",
            "0x000000000000000000000000feec000000000000000000000000000000000000"
          ],
          "data": "0x0000000000000000000000000000000000000000000000000000000000003d75",
          "blockHash": "0x3a808565d4fc9c6157ff7421d890578608ccce94e8a9ad44a8bb26b8c86f4686",
          "blockNumber": "0x54d58a",
          "blockTimestamp": "0x699719a9",
          "transactionHash": "0x734df4d0b1dd960b856ca972585addeb04c426d5444d49f05cba664dcd6555a7",
          "transactionIndex": "0x4e",
          "logIndex": "0xa1",
          "removed": false
        }
      ],
      "logsBloom": "0x00800800000000000000000000002000000000000000000000000000000100400000000000000000000000000100000000000800000000000000000000000000000004000000000000000008000000000000000000000000000000020400000000000000040000000000000000000000000000000000000000000010000000000000000000000000000000000220000000000000800000000000000000000000000020000000000000000000000000000000000000000000000000000000000000100002004000000000000000000000000000000040000000000000000000000000000004000010000000000000000000000000000000000020000000000000",
      "transactionHash": "0x734df4d0b1dd960b856ca972585addeb04c426d5444d49f05cba664dcd6555a7",
      "transactionIndex": "0x4e",
      "blockHash": "0x3a808565d4fc9c6157ff7421d890578608ccce94e8a9ad44a8bb26b8c86f4686",
      "blockNumber": "0x54d58a",
      "gasUsed": "0xc00ce",
      "effectiveGasPrice": "0x4a817c802",
      "from": "0xc77ad4de7d179fffba417ca24c055d86af69f4bb",
      "to": "0x46bcae2625157b562c974bb5a912dfcb811a234a",
      "contractAddress": null,
      "feeToken": "0x20c0000000000000000000000000000000000000",
      "feePayer": "0xc77ad4de7d179fffba417ca24c055d86af69f4bb"
    },
    {
      "type": "0x2",
      "status": "0x1",
      "cumulativeGasUsed": "0xb215d9",
      "logs": [
        {
          "address": "0x46bcae2625157b562c974bb5a912dfcb811a234a",
          "topics": [
            "0x9e0fd7b7de37ad5d7110476296cb5fb624ca41122ef85cb019eef238259b27ec",
            "0xace9c9c435cf933be3564cdbcf7b7e2faee63e4f39034849eacb82d13f32f02a",
            "0x3f631d566f4db432ca320a6932a0a30ed043d45d49871ce3d6daa3d8ea615ee4"
          ],
          "data": "0x00000000000000000000000000000000000000000000000000000000017d78400000000000000000000000000000000000000000000000000000000001e133800000000000000000000000000000000000000000000000000000000000000001",
          "blockHash": "0xc95e70f5e2067eb0d26dd7c2151ed7d712772ac5d4d0dd6c56f0abbd5d78c430",
          "blockNumber": "0x54d590",
          "blockTimestamp": "0x699719ad",
          "transactionHash": "0xff929ee8f23fce65ebf82669be6cd30e40e5e85237887198299e70fea39c43ee",
          "transactionIndex": "0x26",
          "logIndex": "0x51",
          "removed": false
        },
        {
          "address": "0x20c0000000000000000000000000000000000000",
          "topics": [
            "0xddf252ad1be2c89b69c2b068fc378daa952ba7f163c4a11628f55a4df523b3ef",
            "0x000000000000000000000000c77ad4de7d179fffba417ca24c055d86af69f4bb",
            "0x000000000000000000000000feec000000000000000000000000000000000000"
          ],
          "data": "0x0000000000000000000000000000000000000000000000000000000000003d75",
          "blockHash": "0xc95e70f5e2067eb0d26dd7c2151ed7d712772ac5d4d0dd6c56f0abbd5d78c430",
          "blockNumber": "0x54d590",
          "blockTimestamp": "0x699719ad",
          "transactionHash": "0xff929ee8f23fce65ebf82669be6cd30e40e5e85237887198299e70fea39c43ee",
          "transactionIndex": "0x26",
          "logIndex": "0x52",
          "removed": false
        }
      ],
      "logsBloom": "0x00800800000000000000000000002000000000000000000000000000000100400000000000000000000000000100000000000800000000000000000000000000000004000000000000000008000000000000000000000002000000020400000000000000140000000000000000000000000000000000000000000010000000000000000000000000000000000220000000000000800000000000000000000000000020000000000000000000000000000000000000000000000000000000000000100002000000000000020000000000000000000000000000000000000000000000000004000000000000000000000000000000000000000020000000000000",
      "transactionHash": "0xff929ee8f23fce65ebf82669be6cd30e40e5e85237887198299e70fea39c43ee",
      "transactionIndex": "0x26",
      "blockHash": "0xc95e70f5e2067eb0d26dd7c2151ed7d712772ac5d4d0dd6c56f0abbd5d78c430",
      "blockNumber": "0x54d590",
      "gasUsed": "0xc00ce",
      "effectiveGasPrice": "0x4a817c802",
      "from": "0xc77ad4de7d179fffba417ca24c055d86af69f4bb",
      "to": "0x46bcae2625157b562c974bb5a912dfcb811a234a",
      "contractAddress": null,
      "feeToken": "0x20c0000000000000000000000000000000000000",
      "feePayer": "0xc77ad4de7d179fffba417ca24c055d86af69f4bb"
    },
    {
      "type": "0x2",
      "status": "0x1",
      "cumulativeGasUsed": "0x14767e8",
      "logs": [
        {
          "address": "0x46bcae2625157b562c974bb5a912dfcb811a234a",
          "topics": [
            "0x9e0fd7b7de37ad5d7110476296cb5fb624ca41122ef85cb019eef238259b27ec",
            "0xace9c9c435cf933be3564cdbcf7b7e2faee63e4f39034849eacb82d13f32f02a",
            "0xa827b848d338b362a9edc3f5d9143a504828207dd0d1d6515b2b3968154d59b0"
          ],
          "data": "0x00000000000000000000000000000000000000000000000000000000017d78400000000000000000000000000000000000000000000000000000000001e133800000000000000000000000000000000000000000000000000000000000000001",
          "blockHash": "0x924a4a728dc37d5e91decca5331d573af81c8accbc70374e1e8585d499dfe38f",
          "blockNumber": "0x54d594",
          "blockTimestamp": "0x699719b0",
          "transactionHash": "0x47c6735ae6178f89d08e4161c15f7f75fc69c1787c1c349531acb462f4cab999",
          "transactionIndex": "0x47",
          "logIndex": "0x92",
          "removed": false
        },
        {
          "address": "0x20c0000000000000000000000000000000000000",
          "topics": [
            "0xddf252ad1be2c89b69c2b068fc378daa952ba7f163c4a11628f55a4df523b3ef",
            "0x000000000000000000000000c77ad4de7d179fffba417ca24c055d86af69f4bb",
            "0x000000000000000000000000feec000000000000000000000000000000000000"
          ],
          "data": "0x0000000000000000000000000000000000000000000000000000000000003d75",
          "blockHash": "0x924a4a728dc37d5e91decca5331d573af81c8accbc70374e1e8585d499dfe38f",
          "blockNumber": "0x54d594",
          "blockTimestamp": "0x699719b0",
          "transactionHash": "0x47c6735ae6178f89d08e4161c15f7f75fc69c1787c1c349531acb462f4cab999",
          "transactionIndex": "0x47",
          "logIndex": "0x93",
          "removed": false
        }
      ],
      "logsBloom": "0x00800800000000000000000000002000000000000000000000000000000100600000000020000000000000000100000000000800000000000000000000000000000004000000000000000008000000000000000000000000000000020400000000000000040000000000000000000000000000000000000000000010000000000000000000000000000000000220000000000000800000000000000000000000000020000000000000000000000000000000000000000000000000000000000800100002000000000000000000000000000000000000000000000000000000000000000004000000000000000000000000000000000000000020000000000000",
      "transactionHash": "0x47c6735ae6178f89d08e4161c15f7f75fc69c1787c1c349531acb462f4cab999",
      "transactionIndex": "0x47",
      "blockHash": "0x924a4a728dc37d5e91decca5331d573af81c8accbc70374e1e8585d499dfe38f",
      "blockNumber": "0x54d594",
      "gasUsed": "0xc00ce",
      "effectiveGasPrice": "0x4a817c802",
      "from": "0xc77ad4de7d179fffba417ca24c055d86af69f4bb",
      "to": "0x46bcae2625157b562c974bb5a912dfcb811a234a",
      "contractAddress": null,
      "feeToken": "0x20c0000000000000000000000000000000000000",
      "feePayer": "0xc77ad4de7d179fffba417ca24c055d86af69f4bb"
    },
    {
      "type": "0x2",
      "status": "0x1",
      "cumulativeGasUsed": "0xbc2109",
      "logs": [
        {
          "address": "0x46bcae2625157b562c974bb5a912dfcb811a234a",
          "topics": [
            "0x9e0fd7b7de37ad5d7110476296cb5fb624ca41122ef85cb019eef238259b27ec",
            "0xace9c9c435cf933be3564cdbcf7b7e2faee63e4f39034849eacb82d13f32f02a",
            "0x6cb8430e200400c2bf381cdf79f195612cc0925d9550337df07dfe3e28796ba6"
          ],
          "data": "0x00000000000000000000000000000000000000000000000000000000017d78400000000000000000000000000000000000000000000000000000000001e133800000000000000000000000000000000000000000000000000000000000000001",
          "blockHash": "0x4ca3507652e6b2245557b376e0e5455096d2fe5fa7b9392a3ef8ec027be0715e",
          "blockNumber": "0x54d599",
          "blockTimestamp": "0x699719b3",
          "transactionHash": "0xce7d7743d2a7be769063e3047ed5a10008c801345182854cd11031d150976650",
          "transactionIndex": "0x32",
          "logIndex": "0x56",
          "removed": false
        },
        {
          "address": "0x20c0000000000000000000000000000000000000",
          "topics": [
            "0xddf252ad1be2c89b69c2b068fc378daa952ba7f163c4a11628f55a4df523b3ef",
            "0x000000000000000000000000c77ad4de7d179fffba417ca24c055d86af69f4bb",
            "0x000000000000000000000000feec000000000000000000000000000000000000"
          ],
          "data": "0x0000000000000000000000000000000000000000000000000000000000003d75",
          "blockHash": "0x4ca3507652e6b2245557b376e0e5455096d2fe5fa7b9392a3ef8ec027be0715e",
          "blockNumber": "0x54d599",
          "blockTimestamp": "0x699719b3",
          "transactionHash": "0xce7d7743d2a7be769063e3047ed5a10008c801345182854cd11031d150976650",
          "transactionIndex": "0x32",
          "logIndex": "0x57",
          "removed": false
        }
      ],
      "logsBloom": "0x00800800000000000040000000002000000000000002000000000000000100400000000000000000000000000100000000000800000000000000000000000000000004000000000000000008000000000000000000000000000000020400000000000000040000000000000000000000000000000000000000000010000000000000000000000000000000000220000000000000800000000000004000000000000020000000000000000000000000000000000000000000000000000000000000100002000000000000000000000000000000000000000000000000000000000000000004000000000000000000000000000000000000000020000000000000",
      "transactionHash": "0xce7d7743d2a7be769063e3047ed5a10008c801345182854cd11031d150976650",
      "transactionIndex": "0x32",
      "blockHash": "0x4ca3507652e6b2245557b376e0e5455096d2fe5fa7b9392a3ef8ec027be0715e",
      "blockNumber": "0x54d599",
      "gasUsed": "0xc00ce",
      "effectiveGasPrice": "0x4a817c802",
      "from": "0xc77ad4de7d179fffba417ca24c055d86af69f4bb",
      "to": "0x46bcae2625157b562c974bb5a912dfcb811a234a",
      "contractAddress": null,
      "feeToken": "0x20c0000000000000000000000000000000000000",
      "feePayer": "0xc77ad4de7d179fffba417ca24c055d86af69f4bb"
    },
    {
      "type": "0x2",
      "status": "0x1",
      "cumulativeGasUsed": "0xadc7d0",
      "logs": [
        {
          "address": "0x46bcae2625157b562c974bb5a912dfcb811a234a",
          "topics": [
            "0x9e0fd7b7de37ad5d7110476296cb5fb624ca41122ef85cb019eef238259b27ec",
            "0xace9c9c435cf933be3564cdbcf7b7e2faee63e4f39034849eacb82d13f32f02a",
            "0x562dbd2e118dfbcf12d2e1f8d2c2681655e181f9d2e0f3ff620aedf5bfcd2848"
          ],
          "data": "0x00000000000000000000000000000000000000000000000000000000017d78400000000000000000000000000000000000000000000000000000000001e133800000000000000000000000000000000000000000000000000000000000000001",
          "blockHash": "0x0553a7e66246a10de2abf68fede30ff6032e4e7fbdde933d3b0f3935ce674aa9",
          "blockNumber": "0x54d59d",
          "blockTimestamp": "0x699719b6",
          "transactionHash": "0xbb60a4e25550dfdda655560faaf767897dd71e708353e843181bba53f0ee7a73",
          "transactionIndex": "0x38",
          "logIndex": "0x72",
          "removed": false
        },
        {
          "address": "0x20c0000000000000000000000000000000000000",
          "topics": [
            "0xddf252ad1be2c89b69c2b068fc378daa952ba7f163c4a11628f55a4df523b3ef",
            "0x000000000000000000000000c77ad4de7d179fffba417ca24c055d86af69f4bb",
            "0x000000000000000000000000feec000000000000000000000000000000000000"
          ],
          "data": "0x0000000000000000000000000000000000000000000000000000000000003d75",
          "blockHash": "0x0553a7e66246a10de2abf68fede30ff6032e4e7fbdde933d3b0f3935ce674aa9",
          "blockNumber": "0x54d59d",
          "blockTimestamp": "0x699719b6",
          "transactionHash": "0xbb60a4e25550dfdda655560faaf767897dd71e708353e843181bba53f0ee7a73",
          "transactionIndex": "0x38",
          "logIndex": "0x73",
          "removed": false
        }
      ],
      "logsBloom": "0x00800800000000000000000000002000000000000000000000000000000100400000000000000000000000000100000000000800000000000080000000000000000004000000000000000008000000000000000000000000000000020400000000000000040000000000000000000000000000080000000000000010000000000000000000000000000000000220000000000000800000000000000000000000000020000000000000000000000000000000000000000000000000000000000000100002000000000000000000000000001000000000000000000000000000000000000004000000000000000000000000000000000000000020000000000000",
      "transactionHash": "0xbb60a4e25550dfdda655560faaf767897dd71e708353e843181bba53f0ee7a73",
      "transactionIndex": "0x38",
      "blockHash": "0x0553a7e66246a10de2abf68fede30ff6032e4e7fbdde933d3b0f3935ce674aa9",
      "blockNumber": "0x54d59d",
      "gasUsed": "0xc00ce",
      "effectiveGasPrice": "0x4a817c802",
      "from": "0xc77ad4de7d179fffba417ca24c055d86af69f4bb",
      "to": "0x46bcae2625157b562c974bb5a912dfcb811a234a",
      "contractAddress": null,
      "feeToken": "0x20c0000000000000000000000000000000000000",
      "feePayer": "0xc77ad4de7d179fffba417ca24c055d86af69f4bb"
    }
  ],
  "libraries": [],
  "pending": [],
  "returns": {},
  "timestamp": 1771510199935,
  "chain": 42431,
  "commit": "58e21dc"
}